{
  "transactions": [
    {
      "hash": "0x384ecd2baf8bbfcdcf189970bea063e1d7fd1d5624c6c8b3f07d696d1470edd4",
      "transactionType": "CALL",
      "contractName": null,
      "contractAddress": "0xe5c212de64a5481e719d7c6ee8d00f2cb9a20864",
      "function": "transfer(address,uint256)",
      "arguments": [
        "0x1cEE9Bd2bdCD04e3880a51210AC78F5D70DD1B9B",
        "100000000"
      ],
      "transaction": {
        "from": "0xc06999313769622dad93d6d01642be9762e3b520",
        "to": "0xe5c212de64a5481e719d7c6ee8d00f2cb9a20864",
        "gas": "0xb8fb",
        "value": "0x0",
        "input": "0xa9059cbb0000000000000000000000001cee9bd2bdcd04e3880a51210ac78f5d70dd1b9b0000000000000000000000000000000000000000000000000000000005f5e100",
        "nonce": "0x1c",
        "chainId": "0xaa37dc"
      },
      "additionalContracts": [],
      "isFixedGasLimit": false
    }
  ],
  "receipts": [
    {
      "status": "0x1",
      "cumulativeGasUsed": "0x413bb3",
      "logs": [
        {
          "address": "0xe5c212de64a5481e719d7c6ee8d00f2cb9a20864",
          "topics": [
            "0xddf252ad1be2c89b69c2b068fc378daa952ba7f163c4a11628f55a4df523b3ef",
            "0x000000000000000000000000c06999313769622dad93d6d01642be9762e3b520",
            "0x0000000000000000000000001cee9bd2bdcd04e3880a51210ac78f5d70dd1b9b"
          ],
          "data": "0x0000000000000000000000000000000000000000000000000000000005f5e100",
          "blockHash": "0xf0b9b1827ff9fb65a880d9bac102ae5199fa0ab7559897565966509d487173f4",
          "blockNumber": "0x173445f",
          "transactionHash": "0x384ecd2baf8bbfcdcf189970bea063e1d7fd1d5624c6c8b3f07d696d1470edd4",
          "transactionIndex": "0x5",
          "logIndex": "0x1c",
          "removed": false
        }
      ],
      "logsBloom": "0x00400000000000000000000001000000000000000000000000008000000000000100000000000000000000000000000000000400000000000000000000000000000000000000000000000008000000000000000000000000000000000000008000000000000000000000100000000000000000000000000000000010000000000000800000000000000000000000000000000000000000000000000000000000000000000000000000000000000040000000000000000000000000000000000000000002000000000000000000000000000000000000000000000000000000000000000000000000000000000000000000000000000000000000000000000000",
      "type": "0x2",
      "transactionHash": "0x384ecd2baf8bbfcdcf189970bea063e1d7fd1d5624c6c8b3f07d696d1470edd4",
      "transactionIndex": "0x5",
      "blockHash": "0xf0b9b1827ff9fb65a880d9bac102ae5199fa0ab7559897565966509d487173f4",
      "blockNumber": "0x173445f",
      "gasUsed": "0x85ed",
      "effectiveGasPrice": "0xf434a",
      "from": "0xc06999313769622dad93d6d01642be9762e3b520",
      "to": "0xe5c212de64a5481e719d7c6ee8d00f2cb9a20864",
      "contractAddress": null,
      "l1BaseFeeScalar": "0x1db0",
      "l1BlobBaseFee": "0x17bc3c869",
      "l1BlobBaseFeeScalar": "0xd2730",
      "l1Fee": "0x93a65e4731",
      "l1GasPrice": "0x1a055fd65",
      "l1GasUsed": "0x640"
    }
  ],
  "libraries": [],
  "pending": [],
  "returns": {},
  "timestamp": 1740465259,
  "chain": 11155420,
  "commit": "106638d"
}