{
  "transactions": [
    {
      "hash": "0x76c917bda3655e8c695b0fe0c1a4df4dcb221ada152206a4977e21b267068556",
      "transactionType": "CALL",
      "contractName": null,
      "contractAddress": "0xe5c212de64a5481e719d7c6ee8d00f2cb9a20864",
      "function": "transfer(address,uint256)",
      "arguments": [
        "0x1cEE9Bd2bdCD04e3880a51210AC78F5D70DD1B9B",
        "1000000000"
      ],
      "transaction": {
        "from": "0xc06999313769622dad93d6d01642be9762e3b520",
        "to": "0xe5c212de64a5481e719d7c6ee8d00f2cb9a20864",
        "gas": "0xb8fb",
        "value": "0x0",
        "input": "0xa9059cbb0000000000000000000000001cee9bd2bdcd04e3880a51210ac78f5d70dd1b9b000000000000000000000000000000000000000000000000000000003b9aca00",
        "nonce": "0x1d",
        "chainId": "0xaa37dc"
      },
      "additionalContracts": [],
      "isFixedGasLimit": false
    }
  ],
  "receipts": [
    {
      "status": "0x1",
      "cumulativeGasUsed": "0x1315c",
      "logs": [
        {
          "address": "0xe5c212de64a5481e719d7c6ee8d00f2cb9a20864",
          "topics": [
            "0xddf252ad1be2c89b69c2b068fc378daa952ba7f163c4a11628f55a4df523b3ef",
            "0x000000000000000000000000c06999313769622dad93d6d01642be9762e3b520",
            "0x0000000000000000000000001cee9bd2bdcd04e3880a51210ac78f5d70dd1b9b"
          ],
          "data": "0x000000000000000000000000000000000000000000000000000000003b9aca00",
          "blockHash": "0xe930e7dfbb421c06566107ae8ce68b9d073b30a6fbc7b29c7287d1365ab45f88",
          "blockNumber": "0x1734477",
          "transactionHash": "0x76c917bda3655e8c695b0fe0c1a4df4dcb221ada152206a4977e21b267068556",
          "transactionIndex": "0x1",
          "logIndex": "0x0",
          "removed": false
        }
      ],
      "logsBloom": "0x00400000000000000000000001000000000000000000000000008000000000000100000000000000000000000000000000000400000000000000000000000000000000000000000000000008000000000000000000000000000000000000008000000000000000000000100000000000000000000000000000000010000000000000800000000000000000000000000000000000000000000000000000000000000000000000000000000000000040000000000000000000000000000000000000000002000000000000000000000000000000000000000000000000000000000000000000000000000000000000000000000000000000000000000000000000",
      "type": "0x2",
      "transactionHash": "0x76c917bda3655e8c695b0fe0c1a4df4dcb221ada152206a4977e21b267068556",
      "transactionIndex": "0x1",
      "blockHash": "0xe930e7dfbb421c06566107ae8ce68b9d073b30a6fbc7b29c7287d1365ab45f88",
      "blockNumber": "0x1734477",
      "gasUsed": "0x85ed",
      "effectiveGasPrice": "0xf4345",
      "from": "0xc06999313769622dad93d6d01642be9762e3b520",
      "to": "0xe5c212de64a5481e719d7c6ee8d00f2cb9a20864",
      "contractAddress": null,
      "l1BaseFeeScalar": "0x1db0",
      "l1BlobBaseFee": "0x19ac964ba",
      "l1BlobBaseFeeScalar": "0xd2730",
      "l1Fee": "0x9dbb99b78c",
      "l1GasPrice": "0x198b31af5",
      "l1GasUsed": "0x640"
    }
  ],
  "libraries": [],
  "pending": [],
  "returns": {},
  "timestamp": 1740465308,
  "chain": 11155420,
  "commit": "106638d"
}