{
  "transactions": [
    {
      "hash": "0x740a906e46feac5fe230aa24f27795010eac03701fdeb0d58f0b66afd8be8603",
      "transactionType": "CALL",
      "contractName": null,
      "contractAddress": "0xa83cb2f4fa7ed1d77e60edcc4d0e99efda38a050",
      "function": "approve(address,uint256)",
      "arguments": [
        "0x728EAE530d80E29a27074903775421A41eFd614A",
        "10000000000000000000000"
      ],
      "transaction": {
        "from": "0xc06999313769622dad93d6d01642be9762e3b520",
        "to": "0xa83cb2f4fa7ed1d77e60edcc4d0e99efda38a050",
        "gas": "0xf9d2",
        "value": "0x0",
        "input": "0x095ea7b3000000000000000000000000728eae530d80e29a27074903775421a41efd614a00000000000000000000000000000000000000000000021e19e0c9bab2400000",
        "nonce": "0x52",
        "chainId": "0xaa37dc"
      },
      "additionalContracts": [],
      "isFixedGasLimit": false
    },
    {
      "hash": "0xed346a68516cb0071a23fbfbe39fb32a3382d08cae0a2aeea6ccffa39ca8a2ab",
      "transactionType": "CALL",
      "contractName": null,
      "contractAddress": "0x728eae530d80e29a27074903775421a41efd614a",
      "function": "sellTokens(uint256)",
      "arguments": [
        "10000000000000000000000"
      ],
      "transaction": {
        "from": "0xc06999313769622dad93d6d01642be9762e3b520",
        "to": "0x728eae530d80e29a27074903775421a41efd614a",
        "gas": "0x1d2f2",
        "value": "0x0",
        "input": "0x6c11bcd300000000000000000000000000000000000000000000021e19e0c9bab2400000",
        "nonce": "0x53",
        "chainId": "0xaa37dc"
      },
      "additionalContracts": [],
      "isFixedGasLimit": false
    }
  ],
  "receipts": [
    {
      "status": "0x1",
      "cumulativeGasUsed": "0x396ae7",
      "logs": [
        {
          "address": "0xa83cb2f4fa7ed1d77e60edcc4d0e99efda38a050",
          "topics": [
            "0x8c5be1e5ebec7d5bd14f71427d1e84f3dd0314c0f7b2291e5b200ac8c7c3b925",
            "0x000000000000000000000000c06999313769622dad93d6d01642be9762e3b520",
            "0x000000000000000000000000728eae530d80e29a27074903775421a41efd614a"
          ],
          "data": "0x00000000000000000000000000000000000000000000021e19e0c9bab2400000",
          "blockHash": "0x94cf8c6ae11efb0d3e4f5049f68f8e5c5410859b1a6d2b6fb6ba6b4c70ef38b6",
          "blockNumber": "0x1735a4b",
          "transactionHash": "0x740a906e46feac5fe230aa24f27795010eac03701fdeb0d58f0b66afd8be8603",
          "transactionIndex": "0x5",
          "logIndex": "0x6",
          "removed": false
        }
      ],
      "logsBloom": "0x00000000000000000000000021000000000000000000000000000000000000000100000000000000000000000000000000000000000000000000000000200000000000000000000000000000000000000000000000000000000000000000000000000000000000000000100000000000000000000000000000000000000000000000000000000000000000200000000000000000000000000000000000000040020000080000000000000000000000000000000000000000000000000000000000000000000000000000000000000000000000000000000000000000000000000010000000000000000000000000000000000000000000000000000020400000",
      "type": "0x2",
      "transactionHash": "0x740a906e46feac5fe230aa24f27795010eac03701fdeb0d58f0b66afd8be8603",
      "transactionIndex": "0x5",
      "blockHash": "0x94cf8c6ae11efb0d3e4f5049f68f8e5c5410859b1a6d2b6fb6ba6b4c70ef38b6",
      "blockNumber": "0x1735a4b",
      "gasUsed": "0xb4df",
      "effectiveGasPrice": "0xf433b",
      "from": "0xc06999313769622dad93d6d01642be9762e3b520",
      "to": "0xa83cb2f4fa7ed1d77e60edcc4d0e99efda38a050",
      "contractAddress": null,
      "l1BaseFeeScalar": "0x1db0",
      "l1BlobBaseFee": "0x7d51e334d4",
      "l1BlobBaseFeeScalar": "0xd2730",
      "l1Fee": "0x2abd5be4002e",
      "l1GasPrice": "0xb69cedce5",
      "l1GasUsed": "0x640"
    },
    {
      "status": "0x1",
      "cumulativeGasUsed": "0x472fe5",
      "logs": [
        {
          "address": "0xa83cb2f4fa7ed1d77e60edcc4d0e99efda38a050",
          "topics": [
            "0x8c5be1e5ebec7d5bd14f71427d1e84f3dd0314c0f7b2291e5b200ac8c7c3b925",
            "0x000000000000000000000000c06999313769622dad93d6d01642be9762e3b520",
            "0x000000000000000000000000728eae530d80e29a27074903775421a41efd614a"
          ],
          "data": "0x0000000000000000000000000000000000000000000000000000000000000000",
          "blockHash": "0x94cf8c6ae11efb0d3e4f5049f68f8e5c5410859b1a6d2b6fb6ba6b4c70ef38b6",
          "blockNumber": "0x1735a4b",
          "transactionHash": "0xed346a68516cb0071a23fbfbe39fb32a3382d08cae0a2aeea6ccffa39ca8a2ab",
          "transactionIndex": "0x8",
          "logIndex": "0x7",
          "removed": false
        },
        {
          "address": "0xa83cb2f4fa7ed1d77e60edcc4d0e99efda38a050",
          "topics": [
            "0xddf252ad1be2c89b69c2b068fc378daa952ba7f163c4a11628f55a4df523b3ef",
            "0x000000000000000000000000c06999313769622dad93d6d01642be9762e3b520",
            "0x000000000000000000000000728eae530d80e29a27074903775421a41efd614a"
          ],
          "data": "0x00000000000000000000000000000000000000000000021e19e0c9bab2400000",
          "blockHash": "0x94cf8c6ae11efb0d3e4f5049f68f8e5c5410859b1a6d2b6fb6ba6b4c70ef38b6",
          "blockNumber": "0x1735a4b",
          "transactionHash": "0xed346a68516cb0071a23fbfbe39fb32a3382d08cae0a2aeea6ccffa39ca8a2ab",
          "transactionIndex": "0x8",
          "logIndex": "0x8",
          "removed": false
        },
        {
          "address": "0x334f5a3ecc0c6dcea6d438a532b20dae20806bc6",
          "topics": [
            "0xddf252ad1be2c89b69c2b068fc378daa952ba7f163c4a11628f55a4df523b3ef",
            "0x000000000000000000000000728eae530d80e29a27074903775421a41efd614a",
            "0x000000000000000000000000c06999313769622dad93d6d01642be9762e3b520"
          ],
          "data": "0x0000000000000000000000000000000000000000000000000000000005f69d48",
          "blockHash": "0x94cf8c6ae11efb0d3e4f5049f68f8e5c5410859b1a6d2b6fb6ba6b4c70ef38b6",
          "blockNumber": "0x1735a4b",
          "transactionHash": "0xed346a68516cb0071a23fbfbe39fb32a3382d08cae0a2aeea6ccffa39ca8a2ab",
          "transactionIndex": "0x8",
          "logIndex": "0x9",
          "removed": false
        },
        {
          "address": "0x334f5a3ecc0c6dcea6d438a532b20dae20806bc6",
          "topics": [
            "0xddf252ad1be2c89b69c2b068fc378daa952ba7f163c4a11628f55a4df523b3ef",
            "0x000000000000000000000000728eae530d80e29a27074903775421a41efd614a",
            "0x000000000000000000000000c06999313769622dad93d6d01642be9762e3b520"
          ],
          "data": "0x0000000000000000000000000000000000000000000000000000000000018862",
          "blockHash": "0x94cf8c6ae11efb0d3e4f5049f68f8e5c5410859b1a6d2b6fb6ba6b4c70ef38b6",
          "blockNumber": "0x1735a4b",
          "transactionHash": "0xed346a68516cb0071a23fbfbe39fb32a3382d08cae0a2aeea6ccffa39ca8a2ab",
          "transactionIndex": "0x8",
          "logIndex": "0xa",
          "removed": false
        },
        {
          "address": "0x728eae530d80e29a27074903775421a41efd614a",
          "topics": [
            "0x6db63bebf1e6540277744df32846ebdb98385b1a73f2d5de49b28348add63f50",
            "0x000000000000000000000000c06999313769622dad93d6d01642be9762e3b520"
          ],
          "data": "0x00000000000000000000000000000000000000000000021e19e0c9bab24000000000000000000000000000000000000000000000000000000000000005f69d480000000000000000000000000000000000000000000000000000000000000028",
          "blockHash": "0x94cf8c6ae11efb0d3e4f5049f68f8e5c5410859b1a6d2b6fb6ba6b4c70ef38b6",
          "blockNumber": "0x1735a4b",
          "transactionHash": "0xed346a68516cb0071a23fbfbe39fb32a3382d08cae0a2aeea6ccffa39ca8a2ab",
          "transactionIndex": "0x8",
          "logIndex": "0xb",
          "removed": false
        }
      ],
      "logsBloom": "0x00000000000000000000000021000000000000080000000000000000000000000100000000000000000000000000000000000000000000000000000000200000000000000000000000000008000000000000000000000000000000000000000000000001000000000000100000000000000000000000000000000010000000000000000000000000000000200001000000000000000000000000000000000040020000080000000000000000000000000000000000000000000000000000000000000002400000000010000000000000000000000000000000000040000800000010000000000000000000000000000000000000000000200000000020440000",
      "type": "0x2",
      "transactionHash": "0xed346a68516cb0071a23fbfbe39fb32a3382d08cae0a2aeea6ccffa39ca8a2ab",
      "transactionIndex": "0x8",
      "blockHash": "0x94cf8c6ae11efb0d3e4f5049f68f8e5c5410859b1a6d2b6fb6ba6b4c70ef38b6",
      "blockNumber": "0x1735a4b",
      "gasUsed": "0x15210",
      "effectiveGasPrice": "0xf433b",
      "from": "0xc06999313769622dad93d6d01642be9762e3b520",
      "to": "0x728eae530d80e29a27074903775421a41efd614a",
      "contractAddress": null,
      "l1BaseFeeScalar": "0x1db0",
      "l1BlobBaseFee": "0x7d51e334d4",
      "l1BlobBaseFeeScalar": "0xd2730",
      "l1Fee": "0x2abd5be4002e",
      "l1GasPrice": "0xb69cedce5",
      "l1GasUsed": "0x640"
    }
  ],
  "libraries": [],
  "pending": [],
  "returns": {},
  "timestamp": 1740476483,
  "chain": 11155420,
  "commit": "99a39e4"
}