{
  "transactions": [
    {
      "hash": "0x82f8e32e65329ae29e5cb69a140fb28ab691047e44821273834ea5c3cffef75e",
      "transactionType": "CALL",
      "contractName": null,
      "contractAddress": "0xa83cb2f4fa7ed1d77e60edcc4d0e99efda38a050",
      "function": "approve(address,uint256)",
      "arguments": [
        "0x728EAE530d80E29a27074903775421A41eFd614A",
        "10000000000000000000000"
      ],
      "transaction": {
        "from": "0xc06999313769622dad93d6d01642be9762e3b520",
        "to": "0xa83cb2f4fa7ed1d77e60edcc4d0e99efda38a050",
        "gas": "0xf9d2",
        "value": "0x0",
        "input": "0x095ea7b3000000000000000000000000728eae530d80e29a27074903775421a41efd614a00000000000000000000000000000000000000000000021e19e0c9bab2400000",
        "nonce": "0x5a",
        "chainId": "0xaa37dc"
      },
      "additionalContracts": [],
      "isFixedGasLimit": false
    },
    {
      "hash": "0x0a0377a4ad0577adcb9e06ec1e9567932249a990020dff076a84113ebf4d4025",
      "transactionType": "CALL",
      "contractName": null,
      "contractAddress": "0x728eae530d80e29a27074903775421a41efd614a",
      "function": "sellTokens(uint256)",
      "arguments": [
        "10000000000000000000000"
      ],
      "transaction": {
        "from": "0xc06999313769622dad93d6d01642be9762e3b520",
        "to": "0x728eae530d80e29a27074903775421a41efd614a",
        "gas": "0x1d2f2",
        "value": "0x0",
        "input": "0x6c11bcd300000000000000000000000000000000000000000000021e19e0c9bab2400000",
        "nonce": "0x5b",
        "chainId": "0xaa37dc"
      },
      "additionalContracts": [],
      "isFixedGasLimit": false
    }
  ],
  "receipts": [
    {
      "status": "0x1",
      "cumulativeGasUsed": "0x161e4a",
      "logs": [
        {
          "address": "0xa83cb2f4fa7ed1d77e60edcc4d0e99efda38a050",
          "topics": [
            "0x8c5be1e5ebec7d5bd14f71427d1e84f3dd0314c0f7b2291e5b200ac8c7c3b925",
            "0x000000000000000000000000c06999313769622dad93d6d01642be9762e3b520",
            "0x000000000000000000000000728eae530d80e29a27074903775421a41efd614a"
          ],
          "data": "0x00000000000000000000000000000000000000000000021e19e0c9bab2400000",
          "blockHash": "0x5238fc9874573248969b0cac1e3da0ede8e575c5058a1fbd9b69d5049c504c59",
          "blockNumber": "0x1735bf0",
          "transactionHash": "0x82f8e32e65329ae29e5cb69a140fb28ab691047e44821273834ea5c3cffef75e",
          "transactionIndex": "0x5",
          "logIndex": "0x2",
          "removed": false
        }
      ],
      "logsBloom": "0x00000000000000000000000021000000000000000000000000000000000000000100000000000000000000000000000000000000000000000000000000200000000000000000000000000000000000000000000000000000000000000000000000000000000000000000100000000000000000000000000000000000000000000000000000000000000000200000000000000000000000000000000000000040020000080000000000000000000000000000000000000000000000000000000000000000000000000000000000000000000000000000000000000000000000000010000000000000000000000000000000000000000000000000000020400000",
      "type": "0x2",
      "transactionHash": "0x82f8e32e65329ae29e5cb69a140fb28ab691047e44821273834ea5c3cffef75e",
      "transactionIndex": "0x5",
      "blockHash": "0x5238fc9874573248969b0cac1e3da0ede8e575c5058a1fbd9b69d5049c504c59",
      "blockNumber": "0x1735bf0",
      "gasUsed": "0xb4df",
      "effectiveGasPrice": "0xf433e",
      "from": "0xc06999313769622dad93d6d01642be9762e3b520",
      "to": "0xa83cb2f4fa7ed1d77e60edcc4d0e99efda38a050",
      "contractAddress": null,
      "l1BaseFeeScalar": "0x1db0",
      "l1BlobBaseFee": "0x458b2acd91",
      "l1BlobBaseFeeScalar": "0xd2730",
      "l1Fee": "0x185b5c4b5cb3",
      "l1GasPrice": "0x13cb6009c5",
      "l1GasUsed": "0x640"
    },
    {
      "status": "0x1",
      "cumulativeGasUsed": "0x17705a",
      "logs": [
        {
          "address": "0xa83cb2f4fa7ed1d77e60edcc4d0e99efda38a050",
          "topics": [
            "0x8c5be1e5ebec7d5bd14f71427d1e84f3dd0314c0f7b2291e5b200ac8c7c3b925",
            "0x000000000000000000000000c06999313769622dad93d6d01642be9762e3b520",
            "0x000000000000000000000000728eae530d80e29a27074903775421a41efd614a"
          ],
          "data": "0x0000000000000000000000000000000000000000000000000000000000000000",
          "blockHash": "0x5238fc9874573248969b0cac1e3da0ede8e575c5058a1fbd9b69d5049c504c59",
          "blockNumber": "0x1735bf0",
          "transactionHash": "0x0a0377a4ad0577adcb9e06ec1e9567932249a990020dff076a84113ebf4d4025",
          "transactionIndex": "0x6",
          "logIndex": "0x3",
          "removed": false
        },
        {
          "address": "0xa83cb2f4fa7ed1d77e60edcc4d0e99efda38a050",
          "topics": [
            "0xddf252ad1be2c89b69c2b068fc378daa952ba7f163c4a11628f55a4df523b3ef",
            "0x000000000000000000000000c06999313769622dad93d6d01642be9762e3b520",
            "0x000000000000000000000000728eae530d80e29a27074903775421a41efd614a"
          ],
          "data": "0x00000000000000000000000000000000000000000000021e19e0c9bab2400000",
          "blockHash": "0x5238fc9874573248969b0cac1e3da0ede8e575c5058a1fbd9b69d5049c504c59",
          "blockNumber": "0x1735bf0",
          "transactionHash": "0x0a0377a4ad0577adcb9e06ec1e9567932249a990020dff076a84113ebf4d4025",
          "transactionIndex": "0x6",
          "logIndex": "0x4",
          "removed": false
        },
        {
          "address": "0x334f5a3ecc0c6dcea6d438a532b20dae20806bc6",
          "topics": [
            "0xddf252ad1be2c89b69c2b068fc378daa952ba7f163c4a11628f55a4df523b3ef",
            "0x000000000000000000000000728eae530d80e29a27074903775421a41efd614a",
            "0x000000000000000000000000c06999313769622dad93d6d01642be9762e3b520"
          ],
          "data": "0x0000000000000000000000000000000000000000000000000000000005fa69f0",
          "blockHash": "0x5238fc9874573248969b0cac1e3da0ede8e575c5058a1fbd9b69d5049c504c59",
          "blockNumber": "0x1735bf0",
          "transactionHash": "0x0a0377a4ad0577adcb9e06ec1e9567932249a990020dff076a84113ebf4d4025",
          "transactionIndex": "0x6",
          "logIndex": "0x5",
          "removed": false
        },
        {
          "address": "0x334f5a3ecc0c6dcea6d438a532b20dae20806bc6",
          "topics": [
            "0xddf252ad1be2c89b69c2b068fc378daa952ba7f163c4a11628f55a4df523b3ef",
            "0x000000000000000000000000728eae530d80e29a27074903775421a41efd614a",
            "0x000000000000000000000000c06999313769622dad93d6d01642be9762e3b520"
          ],
          "data": "0x000000000000000000000000000000000000000000000000000000000001895c",
          "blockHash": "0x5238fc9874573248969b0cac1e3da0ede8e575c5058a1fbd9b69d5049c504c59",
          "blockNumber": "0x1735bf0",
          "transactionHash": "0x0a0377a4ad0577adcb9e06ec1e9567932249a990020dff076a84113ebf4d4025",
          "transactionIndex": "0x6",
          "logIndex": "0x6",
          "removed": false
        },
        {
          "address": "0x728eae530d80e29a27074903775421a41efd614a",
          "topics": [
            "0x6db63bebf1e6540277744df32846ebdb98385b1a73f2d5de49b28348add63f50",
            "0x000000000000000000000000c06999313769622dad93d6d01642be9762e3b520"
          ],
          "data": "0x00000000000000000000000000000000000000000000021e19e0c9bab24000000000000000000000000000000000000000000000000000000000000005fa69f00000000000000000000000000000000000000000000000000000000000000028",
          "blockHash": "0x5238fc9874573248969b0cac1e3da0ede8e575c5058a1fbd9b69d5049c504c59",
          "blockNumber": "0x1735bf0",
          "transactionHash": "0x0a0377a4ad0577adcb9e06ec1e9567932249a990020dff076a84113ebf4d4025",
          "transactionIndex": "0x6",
          "logIndex": "0x7",
          "removed": false
        }
      ],
      "logsBloom": "0x00000000000000000000000021000000000000080000000000000000000000000100000000000000000000000000000000000000000000000000000000200000000000000000000000000008000000000000000000000000000000000000000000000001000000000000100000000000000000000000000000000010000000000000000000000000000000200001000000000000000000000000000000000040020000080000000000000000000000000000000000000000000000000000000000000002400000000010000000000000000000000000000000000040000800000010000000000000000000000000000000000000000000200000000020440000",
      "type": "0x2",
      "transactionHash": "0x0a0377a4ad0577adcb9e06ec1e9567932249a990020dff076a84113ebf4d4025",
      "transactionIndex": "0x6",
      "blockHash": "0x5238fc9874573248969b0cac1e3da0ede8e575c5058a1fbd9b69d5049c504c59",
      "blockNumber": "0x1735bf0",
      "gasUsed": "0x15210",
      "effectiveGasPrice": "0xf433e",
      "from": "0xc06999313769622dad93d6d01642be9762e3b520",
      "to": "0x728eae530d80e29a27074903775421a41efd614a",
      "contractAddress": null,
      "l1BaseFeeScalar": "0x1db0",
      "l1BlobBaseFee": "0x458b2acd91",
      "l1BlobBaseFeeScalar": "0xd2730",
      "l1Fee": "0x185b5c4b5cb3",
      "l1GasPrice": "0x13cb6009c5",
      "l1GasUsed": "0x640"
    }
  ],
  "libraries": [],
  "pending": [],
  "returns": {},
  "timestamp": 1740477327,
  "chain": 11155420,
  "commit": "99a39e4"
}