{
  "transactions": [
    {
      "hash": "0xe1559b2c3a74b84ddd0838301bd98438db1af8166099461e8555afb217ca36db",
      "transactionType": "CALL",
      "contractName": null,
      "contractAddress": "0x656e098e175c614bf14e9ce5a17736e25322920b",
      "function": "approve(address,uint256)",
      "arguments": [
        "0xEed45965dd5DD2Fed4EA614fFA29cFF6CE974914",
        "1000000000000000000000"
      ],
      "transaction": {
        "from": "0xc06999313769622dad93d6d01642be9762e3b520",
        "to": "0x656e098e175c614bf14e9ce5a17736e25322920b",
        "gas": "0x10874",
        "value": "0x0",
        "input": "0x095ea7b3000000000000000000000000eed45965dd5dd2fed4ea614ffa29cff6ce97491400000000000000000000000000000000000000000000003635c9adc5dea00000",
        "nonce": "0x26",
        "chainId": "0xaa37dc"
      },
      "additionalContracts": [],
      "isFixedGasLimit": false
    },
    {
      "hash": "0x8030c2a7847ee524893c52ca2f2d11ee5c5775672dabf3d8e6bb3315d5122c9a",
      "transactionType": "CALL",
      "contractName": null,
      "contractAddress": "0xeed45965dd5dd2fed4ea614ffa29cff6ce974914",
      "function": "sellTokens(uint256)",
      "arguments": [
        "1000000000000000000000"
      ],
      "transaction": {
        "from": "0xc06999313769622dad93d6d01642be9762e3b520",
        "to": "0xeed45965dd5dd2fed4ea614ffa29cff6ce974914",
        "gas": "0x1d5cc",
        "value": "0x0",
        "input": "0x6c11bcd300000000000000000000000000000000000000000000003635c9adc5dea00000",
        "nonce": "0x27",
        "chainId": "0xaa37dc"
      },
      "additionalContracts": [],
      "isFixedGasLimit": false
    }
  ],
  "receipts": [
    {
      "status": "0x1",
      "cumulativeGasUsed": "0x52979f",
      "logs": [
        {
          "address": "0x656e098e175c614bf14e9ce5a17736e25322920b",
          "topics": [
            "0x8c5be1e5ebec7d5bd14f71427d1e84f3dd0314c0f7b2291e5b200ac8c7c3b925",
            "0x000000000000000000000000c06999313769622dad93d6d01642be9762e3b520",
            "0x000000000000000000000000eed45965dd5dd2fed4ea614ffa29cff6ce974914"
          ],
          "data": "0x00000000000000000000000000000000000000000000003635c9adc5dea00000",
          "blockHash": "0x0a83326b4422a71a636828a9c8111936a6a673d8fb1d10378a6247118cf8ab0c",
          "blockNumber": "0x173493a",
          "transactionHash": "0xe1559b2c3a74b84ddd0838301bd98438db1af8166099461e8555afb217ca36db",
          "transactionIndex": "0x7",
          "logIndex": "0x1a",
          "removed": false
        }
      ],
      "logsBloom": "0x00000000000000000000000001000000000000000004000000000000000000000100000000000000000000000000020000000000000000000000000000200000000000000000000000000000000000000000000000000000000000000000000000800000000000000000100000000000000000000000000200000000000000000400002000000000000000000000000000000000000000000000000000000000020000000000000000000000000000000000000000000000000000000000000000000000000000000000000000000000000000000000000000000000000000000010000000000000000000000000000000000000000000000000000000000000",
      "type": "0x0",
      "transactionHash": "0xe1559b2c3a74b84ddd0838301bd98438db1af8166099461e8555afb217ca36db",
      "transactionIndex": "0x7",
      "blockHash": "0x0a83326b4422a71a636828a9c8111936a6a673d8fb1d10378a6247118cf8ab0c",
      "blockNumber": "0x173493a",
      "gasUsed": "0xb4d3",
      "effectiveGasPrice": "0xf4343",
      "from": "0xc06999313769622dad93d6d01642be9762e3b520",
      "to": "0x656e098e175c614bf14e9ce5a17736e25322920b",
      "contractAddress": null,
      "l1BaseFeeScalar": "0x1db0",
      "l1BlobBaseFee": "0xbe259e8ad",
      "l1BlobBaseFeeScalar": "0xd2730",
      "l1Fee": "0x422fca85217",
      "l1GasPrice": "0x2d7cb7125",
      "l1GasUsed": "0x640"
    },
    {
      "status": "0x1",
      "cumulativeGasUsed": "0x53ebbf",
      "logs": [
        {
          "address": "0x656e098e175c614bf14e9ce5a17736e25322920b",
          "topics": [
            "0x8c5be1e5ebec7d5bd14f71427d1e84f3dd0314c0f7b2291e5b200ac8c7c3b925",
            "0x000000000000000000000000c06999313769622dad93d6d01642be9762e3b520",
            "0x000000000000000000000000eed45965dd5dd2fed4ea614ffa29cff6ce974914"
          ],
          "data": "0x0000000000000000000000000000000000000000000000000000000000000000",
          "blockHash": "0x0a83326b4422a71a636828a9c8111936a6a673d8fb1d10378a6247118cf8ab0c",
          "blockNumber": "0x173493a",
          "transactionHash": "0x8030c2a7847ee524893c52ca2f2d11ee5c5775672dabf3d8e6bb3315d5122c9a",
          "transactionIndex": "0x8",
          "logIndex": "0x1b",
          "removed": false
        },
        {
          "address": "0x656e098e175c614bf14e9ce5a17736e25322920b",
          "topics": [
            "0xddf252ad1be2c89b69c2b068fc378daa952ba7f163c4a11628f55a4df523b3ef",
            "0x000000000000000000000000c06999313769622dad93d6d01642be9762e3b520",
            "0x000000000000000000000000eed45965dd5dd2fed4ea614ffa29cff6ce974914"
          ],
          "data": "0x00000000000000000000000000000000000000000000003635c9adc5dea00000",
          "blockHash": "0x0a83326b4422a71a636828a9c8111936a6a673d8fb1d10378a6247118cf8ab0c",
          "blockNumber": "0x173493a",
          "transactionHash": "0x8030c2a7847ee524893c52ca2f2d11ee5c5775672dabf3d8e6bb3315d5122c9a",
          "transactionIndex": "0x8",
          "logIndex": "0x1c",
          "removed": false
        },
        {
          "address": "0x452387742c56993a47f35425ddcbb05000681fc6",
          "topics": [
            "0xddf252ad1be2c89b69c2b068fc378daa952ba7f163c4a11628f55a4df523b3ef",
            "0x000000000000000000000000eed45965dd5dd2fed4ea614ffa29cff6ce974914",
            "0x000000000000000000000000c06999313769622dad93d6d01642be9762e3b520"
          ],
          "data": "0x0000000000000000000000000000000000000000000000000000000000982150",
          "blockHash": "0x0a83326b4422a71a636828a9c8111936a6a673d8fb1d10378a6247118cf8ab0c",
          "blockNumber": "0x173493a",
          "transactionHash": "0x8030c2a7847ee524893c52ca2f2d11ee5c5775672dabf3d8e6bb3315d5122c9a",
          "transactionIndex": "0x8",
          "logIndex": "0x1d",
          "removed": false
        },
        {
          "address": "0x452387742c56993a47f35425ddcbb05000681fc6",
          "topics": [
            "0xddf252ad1be2c89b69c2b068fc378daa952ba7f163c4a11628f55a4df523b3ef",
            "0x000000000000000000000000eed45965dd5dd2fed4ea614ffa29cff6ce974914",
            "0x000000000000000000000000c06999313769622dad93d6d01642be9762e3b520"
          ],
          "data": "0x0000000000000000000000000000000000000000000000000000000000002710",
          "blockHash": "0x0a83326b4422a71a636828a9c8111936a6a673d8fb1d10378a6247118cf8ab0c",
          "blockNumber": "0x173493a",
          "transactionHash": "0x8030c2a7847ee524893c52ca2f2d11ee5c5775672dabf3d8e6bb3315d5122c9a",
          "transactionIndex": "0x8",
          "logIndex": "0x1e",
          "removed": false
        }
      ],
      "logsBloom": "0x00000000000000000000000001000000000000000004000000000000000000000100000000000000000000000000020000000000000000000000000000200000000000000000000000000008000000000000000000000000000000000000000000800001000000000000100000400000000000000000000200000010000000000400002000000000000000000000000000000000000000000000000000000000020000000000000000000000000000010000000000000000000000000000000000000002000000000000000000000000000000000000000000000000000000000010000000000000000000000000000000000000000000000000000000000000",
      "type": "0x0",
      "transactionHash": "0x8030c2a7847ee524893c52ca2f2d11ee5c5775672dabf3d8e6bb3315d5122c9a",
      "transactionIndex": "0x8",
      "blockHash": "0x0a83326b4422a71a636828a9c8111936a6a673d8fb1d10378a6247118cf8ab0c",
      "blockNumber": "0x173493a",
      "gasUsed": "0x15420",
      "effectiveGasPrice": "0xf4343",
      "from": "0xc06999313769622dad93d6d01642be9762e3b520",
      "to": "0xeed45965dd5dd2fed4ea614ffa29cff6ce974914",
      "contractAddress": null,
      "l1BaseFeeScalar": "0x1db0",
      "l1BlobBaseFee": "0xbe259e8ad",
      "l1BlobBaseFeeScalar": "0xd2730",
      "l1Fee": "0x422fca85217",
      "l1GasPrice": "0x2d7cb7125",
      "l1GasUsed": "0x640"
    }
  ],
  "libraries": [],
  "pending": [],
  "returns": {},
  "timestamp": 1740467745,
  "chain": 11155420,
  "commit": "ce9846d"
}