{
  "transactions": [
    {
      "hash": "0x29e1813d32013d4924483c65e340dce8f1c8d8e19c03010295c30db3b4c9f8a0",
      "transactionType": "CALL",
      "contractName": null,
      "contractAddress": "0xcec34c32ebb2ef111077b61d2c7913095bc26cd9",
      "function": "approve(address,uint256)",
      "arguments": [
        "0x12452904BE81b20eF06EE39fA2c7c49E27456EDf",
        "1000000000000000000000000"
      ],
      "transaction": {
        "from": "0xc06999313769622dad93d6d01642be9762e3b520",
        "to": "0xcec34c32ebb2ef111077b61d2c7913095bc26cd9",
        "gas": "0x10874",
        "value": "0x0",
        "input": "0x095ea7b300000000000000000000000012452904be81b20ef06ee39fa2c7c49e27456edf00000000000000000000000000000000000000000000d3c21bcecceda1000000",
        "nonce": "0x38",
        "chainId": "0xaa37dc"
      },
      "additionalContracts": [],
      "isFixedGasLimit": false
    },
    {
      "hash": "0xbe2244ae9d3f9734af5b3a2a311713a5555dcdf9e6b17cb250c81c730bedd6c6",
      "transactionType": "CALL",
      "contractName": null,
      "contractAddress": "0x12452904be81b20ef06ee39fa2c7c49e27456edf",
      "function": "sellTokens(uint256)",
      "arguments": [
        "1000000000000000000000000"
      ],
      "transaction": {
        "from": "0xc06999313769622dad93d6d01642be9762e3b520",
        "to": "0x12452904be81b20ef06ee39fa2c7c49e27456edf",
        "gas": "0x1f1da",
        "value": "0x0",
        "input": "0x6c11bcd300000000000000000000000000000000000000000000d3c21bcecceda1000000",
        "nonce": "0x39",
        "chainId": "0xaa37dc"
      },
      "additionalContracts": [],
      "isFixedGasLimit": false
    }
  ],
  "receipts": [
    {
      "status": "0x1",
      "cumulativeGasUsed": "0x2df86",
      "logs": [
        {
          "address": "0xcec34c32ebb2ef111077b61d2c7913095bc26cd9",
          "topics": [
            "0x8c5be1e5ebec7d5bd14f71427d1e84f3dd0314c0f7b2291e5b200ac8c7c3b925",
            "0x000000000000000000000000c06999313769622dad93d6d01642be9762e3b520",
            "0x00000000000000000000000012452904be81b20ef06ee39fa2c7c49e27456edf"
          ],
          "data": "0x00000000000000000000000000000000000000000000d3c21bcecceda1000000",
          "blockHash": "0x45c4ac2fbfdb85864e40d34c5767253dd103cb3db2d33e2091b469f4629a1c76",
          "blockNumber": "0x1734ce6",
          "transactionHash": "0x29e1813d32013d4924483c65e340dce8f1c8d8e19c03010295c30db3b4c9f8a0",
          "transactionIndex": "0x2",
          "logIndex": "0x4",
          "removed": false
        }
      ],
      "logsBloom": "0x00000000000000000000000001000000000000000000000000000000000000000100000000000000000000000000000000000000100040000000000000200000000000000000000000000000000000000000000000000000020000000000000000000000000000000000100000000000000000000000000000000000000000000000000000000000004000000000000000000000000000000000000000000000020000000080000000000000000000000000000000000000000000000000000000000000000000000000000000000000000000000000000000000000000000000010000000000000000000000000000000000020000000000000000000000000",
      "type": "0x2",
      "transactionHash": "0x29e1813d32013d4924483c65e340dce8f1c8d8e19c03010295c30db3b4c9f8a0",
      "transactionIndex": "0x2",
      "blockHash": "0x45c4ac2fbfdb85864e40d34c5767253dd103cb3db2d33e2091b469f4629a1c76",
      "blockNumber": "0x1734ce6",
      "gasUsed": "0xb4d3",
      "effectiveGasPrice": "0xf4340",
      "from": "0xc06999313769622dad93d6d01642be9762e3b520",
      "to": "0xcec34c32ebb2ef111077b61d2c7913095bc26cd9",
      "contractAddress": null,
      "l1BaseFeeScalar": "0x1db0",
      "l1BlobBaseFee": "0x3b6fc4ce0f",
      "l1BlobBaseFeeScalar": "0xd2730",
      "l1Fee": "0x1448c626562d",
      "l1GasPrice": "0x5b3c6c696",
      "l1GasUsed": "0x640"
    },
    {
      "status": "0x1",
      "cumulativeGasUsed": "0x1f3e18",
      "logs": [
        {
          "address": "0xcec34c32ebb2ef111077b61d2c7913095bc26cd9",
          "topics": [
            "0x8c5be1e5ebec7d5bd14f71427d1e84f3dd0314c0f7b2291e5b200ac8c7c3b925",
            "0x000000000000000000000000c06999313769622dad93d6d01642be9762e3b520",
            "0x00000000000000000000000012452904be81b20ef06ee39fa2c7c49e27456edf"
          ],
          "data": "0x0000000000000000000000000000000000000000000000000000000000000000",
          "blockHash": "0x45c4ac2fbfdb85864e40d34c5767253dd103cb3db2d33e2091b469f4629a1c76",
          "blockNumber": "0x1734ce6",
          "transactionHash": "0xbe2244ae9d3f9734af5b3a2a311713a5555dcdf9e6b17cb250c81c730bedd6c6",
          "transactionIndex": "0x4",
          "logIndex": "0x5",
          "removed": false
        },
        {
          "address": "0xcec34c32ebb2ef111077b61d2c7913095bc26cd9",
          "topics": [
            "0xddf252ad1be2c89b69c2b068fc378daa952ba7f163c4a11628f55a4df523b3ef",
            "0x000000000000000000000000c06999313769622dad93d6d01642be9762e3b520",
            "0x00000000000000000000000012452904be81b20ef06ee39fa2c7c49e27456edf"
          ],
          "data": "0x00000000000000000000000000000000000000000000d3c21bcecceda1000000",
          "blockHash": "0x45c4ac2fbfdb85864e40d34c5767253dd103cb3db2d33e2091b469f4629a1c76",
          "blockNumber": "0x1734ce6",
          "transactionHash": "0xbe2244ae9d3f9734af5b3a2a311713a5555dcdf9e6b17cb250c81c730bedd6c6",
          "transactionIndex": "0x4",
          "logIndex": "0x6",
          "removed": false
        },
        {
          "address": "0x741973e28394f26f75cb1a09303aab3c43180d31",
          "topics": [
            "0xddf252ad1be2c89b69c2b068fc378daa952ba7f163c4a11628f55a4df523b3ef",
            "0x00000000000000000000000012452904be81b20ef06ee39fa2c7c49e27456edf",
            "0x000000000000000000000000c06999313769622dad93d6d01642be9762e3b520"
          ],
          "data": "0x000000000000000000000000000000000000000000000000000000025465cba0",
          "blockHash": "0x45c4ac2fbfdb85864e40d34c5767253dd103cb3db2d33e2091b469f4629a1c76",
          "blockNumber": "0x1734ce6",
          "transactionHash": "0xbe2244ae9d3f9734af5b3a2a311713a5555dcdf9e6b17cb250c81c730bedd6c6",
          "transactionIndex": "0x4",
          "logIndex": "0x7",
          "removed": false
        },
        {
          "address": "0x741973e28394f26f75cb1a09303aab3c43180d31",
          "topics": [
            "0xddf252ad1be2c89b69c2b068fc378daa952ba7f163c4a11628f55a4df523b3ef",
            "0x00000000000000000000000012452904be81b20ef06ee39fa2c7c49e27456edf",
            "0x000000000000000000000000c06999313769622dad93d6d01642be9762e3b520"
          ],
          "data": "0x0000000000000000000000000000000000000000000000000000000000992320",
          "blockHash": "0x45c4ac2fbfdb85864e40d34c5767253dd103cb3db2d33e2091b469f4629a1c76",
          "blockNumber": "0x1734ce6",
          "transactionHash": "0xbe2244ae9d3f9734af5b3a2a311713a5555dcdf9e6b17cb250c81c730bedd6c6",
          "transactionIndex": "0x4",
          "logIndex": "0x8",
          "removed": false
        }
      ],
      "logsBloom": "0x00000000000000000000000001000000000000000000000000000000002000000100000000000000000000000000000000000000100040000000000000200000000000000000000000000008000000000000000000000000020000000000000000000000000000000000100000000000000000000000000000000010000000000000000000000000004000000000000000000000000000000000000000000000020000000080000000000000000000000000000000000000000000000000000000000002000000000000000000000000000000000000000000000000000000000010002000000000000000000800000000000020000000000000000000000000",
      "type": "0x2",
      "transactionHash": "0xbe2244ae9d3f9734af5b3a2a311713a5555dcdf9e6b17cb250c81c730bedd6c6",
      "transactionIndex": "0x4",
      "blockHash": "0x45c4ac2fbfdb85864e40d34c5767253dd103cb3db2d33e2091b469f4629a1c76",
      "blockNumber": "0x1734ce6",
      "gasUsed": "0x1546a",
      "effectiveGasPrice": "0xf4340",
      "from": "0xc06999313769622dad93d6d01642be9762e3b520",
      "to": "0x12452904be81b20ef06ee39fa2c7c49e27456edf",
      "contractAddress": null,
      "l1BaseFeeScalar": "0x1db0",
      "l1BlobBaseFee": "0x3b6fc4ce0f",
      "l1BlobBaseFeeScalar": "0xd2730",
      "l1Fee": "0x1448c626562d",
      "l1GasPrice": "0x5b3c6c696",
      "l1GasUsed": "0x640"
    }
  ],
  "libraries": [],
  "pending": [],
  "returns": {},
  "timestamp": 1740469625,
  "chain": 11155420,
  "commit": "1a90a3b"
}