{
  "transactions": [
    {
      "hash": "0xce6bafcf35961cbf8ff1cb6a9123b8b898a318501e08962161a8e44b6920e35d",
      "transactionType": "CALL",
      "contractName": null,
      "contractAddress": "0x47170ea51bf13019d7e1eb666a0d2e19767d2397",
      "function": "transfer(address,uint256)",
      "arguments": [
        "0xa1bA1F0210319dd7e8abd51229012B692420a346",
        "1000000000000000000000000"
      ],
      "transaction": {
        "from": "0xc06999313769622dad93d6d01642be9762e3b520",
        "to": "0x47170ea51bf13019d7e1eb666a0d2e19767d2397",
        "gas": "0x125d4",
        "value": "0x0",
        "input": "0xa9059cbb000000000000000000000000a1ba1f0210319dd7e8abd51229012b692420a34600000000000000000000000000000000000000000000d3c21bcecceda1000000",
        "nonce": "0x5f",
        "chainId": "0xaa37dc"
      },
      "additionalContracts": [],
      "isFixedGasLimit": false
    }
  ],
  "receipts": [
    {
      "status": "0x1",
      "cumulativeGasUsed": "0x14b2a4",
      "logs": [
        {
          "address": "0x47170ea51bf13019d7e1eb666a0d2e19767d2397",
          "topics": [
            "0xddf252ad1be2c89b69c2b068fc378daa952ba7f163c4a11628f55a4df523b3ef",
            "0x000000000000000000000000c06999313769622dad93d6d01642be9762e3b520",
            "0x000000000000000000000000a1ba1f0210319dd7e8abd51229012b692420a346"
          ],
          "data": "0x00000000000000000000000000000000000000000000d3c21bcecceda1000000",
          "blockHash": "0xeff28b51cc32fbb0219b5c0b2506c786b4f8f839ba3a232b49bb094eb239969d",
          "blockNumber": "0x1735df1",
          "transactionHash": "0xce6bafcf35961cbf8ff1cb6a9123b8b898a318501e08962161a8e44b6920e35d",
          "transactionIndex": "0x4",
          "logIndex": "0x15",
          "removed": false
        }
      ],
      "logsBloom": "0x00000000000000000000000001000000000000000000000000000000000000000120000000000000000000000000000000000000000010000000000000000000000000000000000000000008000000000000000000000000000000000000000000200000000000000000100000000000000000000000000000000010000020000000000000004000000000000000000000000000000000000000000000000000000000000000000000080000000000000000000000000000000000000000000000000002000000000000000000000000000000000000000000000000000000000000000000000000000000000000000000000000000000000000000000000000",
      "type": "0x2",
      "transactionHash": "0xce6bafcf35961cbf8ff1cb6a9123b8b898a318501e08962161a8e44b6920e35d",
      "transactionIndex": "0x4",
      "blockHash": "0xeff28b51cc32fbb0219b5c0b2506c786b4f8f839ba3a232b49bb094eb239969d",
      "blockNumber": "0x1735df1",
      "gasUsed": "0xc8e9",
      "effectiveGasPrice": "0xf433e",
      "from": "0xc06999313769622dad93d6d01642be9762e3b520",
      "to": "0x47170ea51bf13019d7e1eb666a0d2e19767d2397",
      "contractAddress": null,
      "l1BaseFeeScalar": "0x1db0",
      "l1BlobBaseFee": "0x3b6fc4ce0f",
      "l1BlobBaseFeeScalar": "0xd2730",
      "l1Fee": "0x1475b0331c46",
      "l1GasPrice": "0x96556fbee",
      "l1GasUsed": "0x640"
    }
  ],
  "libraries": [],
  "pending": [],
  "returns": {},
  "timestamp": 1740478352,
  "chain": 11155420,
  "commit": "6f5774f"
}