{
  "transactions": [
    {
      "hash": "0x9971054e56f3195c6a3550c022a73267992a9458eee542fffc8be7275e17c701",
      "transactionType": "CALL",
      "contractName": null,
      "contractAddress": "0xaf36a1b261e42946f47b6eed24db5478e9b46f16",
      "function": "approve(address,uint256)",
      "arguments": [
        "0x1cEE9Bd2bdCD04e3880a51210AC78F5D70DD1B9B",
        "1000000000000000000000000"
      ],
      "transaction": {
        "from": "0xc06999313769622dad93d6d01642be9762e3b520",
        "to": "0xaf36a1b261e42946f47b6eed24db5478e9b46f16",
        "gas": "0x10874",
        "value": "0x0",
        "input": "0x095ea7b30000000000000000000000001cee9bd2bdcd04e3880a51210ac78f5d70dd1b9b00000000000000000000000000000000000000000000d3c21bcecceda1000000",
        "nonce": "0x1b",
        "chainId": "0xaa37dc"
      },
      "additionalContracts": [],
      "isFixedGasLimit": false
    }
  ],
  "receipts": [
    {
      "status": "0x1",
      "cumulativeGasUsed": "0x5d3ae0",
      "logs": [
        {
          "address": "0xaf36a1b261e42946f47b6eed24db5478e9b46f16",
          "topics": [
            "0x8c5be1e5ebec7d5bd14f71427d1e84f3dd0314c0f7b2291e5b200ac8c7c3b925",
            "0x000000000000000000000000c06999313769622dad93d6d01642be9762e3b520",
            "0x0000000000000000000000001cee9bd2bdcd04e3880a51210ac78f5d70dd1b9b"
          ],
          "data": "0x00000000000000000000000000000000000000000000d3c21bcecceda1000000",
          "blockHash": "0xa27ef2c5cf25691dd48ca8c6df5c518aeda6699e4596da9b61b935763d498ced",
          "blockNumber": "0x173436f",
          "transactionHash": "0x9971054e56f3195c6a3550c022a73267992a9458eee542fffc8be7275e17c701",
          "transactionIndex": "0x6",
          "logIndex": "0xa",
          "removed": false
        }
      ],
      "logsBloom": "0x00400000008000000000000001000000000000000000000000008000000000000100000000000000000000000000000000000000000000000000000000200000000000000000000000000000000000000000000000000008000000000000008000000000000000000000100000000000000000000000000000000000000000000000000000000000000000000000000000000000000000000000000000000000020000000000000000000000000000000000000000000000000000000000000000000000000000000000000000000000000000000000000000000000000000000010000000000000000000000000000000000000000000000000000000000100",
      "type": "0x2",
      "transactionHash": "0x9971054e56f3195c6a3550c022a73267992a9458eee542fffc8be7275e17c701",
      "transactionIndex": "0x6",
      "blockHash": "0xa27ef2c5cf25691dd48ca8c6df5c518aeda6699e4596da9b61b935763d498ced",
      "blockNumber": "0x173436f",
      "gasUsed": "0xb4d3",
      "effectiveGasPrice": "0xf4343",
      "from": "0xc06999313769622dad93d6d01642be9762e3b520",
      "to": "0xaf36a1b261e42946f47b6eed24db5478e9b46f16",
      "contractAddress": null,
      "l1BaseFeeScalar": "0x1db0",
      "l1BlobBaseFee": "0x88d56729",
      "l1BlobBaseFeeScalar": "0xd2730",
      "l1Fee": "0x40ce553b3c",
      "l1GasPrice": "0x18a592ea4",
      "l1GasUsed": "0x640"
    }
  ],
  "libraries": [],
  "pending": [],
  "returns": {},
  "timestamp": 1740464779,
  "chain": 11155420,
  "commit": "106638d"
}