{
  "transactions": [
    {
      "hash": "0xe9a1d0b9b9ebb09581cda510d98a86ca0cc8e64a5131bd8bae82545c4ed4fd95",
      "transactionType": "CALL",
      "contractName": null,
      "contractAddress": "0xe5c212de64a5481e719d7c6ee8d00f2cb9a20864",
      "function": "approve(address,uint256)",
      "arguments": [
        "0x1cEE9Bd2bdCD04e3880a51210AC78F5D70DD1B9B",
        "1000000000000"
      ],
      "transaction": {
        "from": "0xc06999313769622dad93d6d01642be9762e3b520",
        "to": "0xe5c212de64a5481e719d7c6ee8d00f2cb9a20864",
        "gas": "0xf990",
        "value": "0x0",
        "input": "0x095ea7b30000000000000000000000001cee9bd2bdcd04e3880a51210ac78f5d70dd1b9b000000000000000000000000000000000000000000000000000000e8d4a51000",
        "nonce": "0x18",
        "chainId": "0xaa37dc"
      },
      "additionalContracts": [],
      "isFixedGasLimit": false
    }
  ],
  "receipts": [
    {
      "status": "0x1",
      "cumulativeGasUsed": "0x10845e",
      "logs": [
        {
          "address": "0xe5c212de64a5481e719d7c6ee8d00f2cb9a20864",
          "topics": [
            "0x8c5be1e5ebec7d5bd14f71427d1e84f3dd0314c0f7b2291e5b200ac8c7c3b925",
            "0x000000000000000000000000c06999313769622dad93d6d01642be9762e3b520",
            "0x0000000000000000000000001cee9bd2bdcd04e3880a51210ac78f5d70dd1b9b"
          ],
          "data": "0x000000000000000000000000000000000000000000000000000000e8d4a51000",
          "blockHash": "0xaa4211f63fb41108c2ba2214dd91f779d91c17c3fdf00afb0649eaa8e485f613",
          "blockNumber": "0x1734319",
          "transactionHash": "0xe9a1d0b9b9ebb09581cda510d98a86ca0cc8e64a5131bd8bae82545c4ed4fd95",
          "transactionIndex": "0x4",
          "logIndex": "0xd",
          "removed": false
        }
      ],
      "logsBloom": "0x00400000000000000000000001000000000000000000000000008000000000000100000000000000000000000000000000000400000000000000000000200000000000000000000000000000000000000000000000000000000000000000008000000000000000000000100000000000000000000000000000000000000000000000800000000000000000000000000000000000000000000000000000000000020000000000000000000000000040000000000000000000000000000000000000000000000000000000000000000000000000000000000000000000000000000010000000000000000000000000000000000000000000000000000000000000",
      "type": "0x2",
      "transactionHash": "0xe9a1d0b9b9ebb09581cda510d98a86ca0cc8e64a5131bd8bae82545c4ed4fd95",
      "transactionIndex": "0x4",
      "blockHash": "0xaa4211f63fb41108c2ba2214dd91f779d91c17c3fdf00afb0649eaa8e485f613",
      "blockNumber": "0x1734319",
      "gasUsed": "0xb4af",
      "effectiveGasPrice": "0xf4345",
      "from": "0xc06999313769622dad93d6d01642be9762e3b520",
      "to": "0xe5c212de64a5481e719d7c6ee8d00f2cb9a20864",
      "contractAddress": null,
      "l1BaseFeeScalar": "0x1db0",
      "l1BlobBaseFee": "0x74f27422",
      "l1BlobBaseFeeScalar": "0xd2730",
      "l1Fee": "0x3b341dbad7",
      "l1GasPrice": "0x1a15ff23a",
      "l1GasUsed": "0x640"
    }
  ],
  "libraries": [],
  "pending": [],
  "returns": {},
  "timestamp": 1740464606,
  "chain": 11155420,
  "commit": "106638d"
}