{
  "transactions": [
    {
      "hash": "0x1fd902885238eaa6a749be66361a71cbeeb49acd2ded626d91b271e339b20f9f",
      "transactionType": "CALL",
      "contractName": null,
      "contractAddress": "0x966be3df28040313a6ecc5c925f07b169b87cbb7",
      "function": "approve(address,uint256)",
      "arguments": [
        "0xa1bA1F0210319dd7e8abd51229012B692420a346",
        "1000000000"
      ],
      "transaction": {
        "from": "0xc06999313769622dad93d6d01642be9762e3b520",
        "to": "0x966be3df28040313a6ecc5c925f07b169b87cbb7",
        "gas": "0x1082d",
        "value": "0x0",
        "input": "0x095ea7b3000000000000000000000000a1ba1f0210319dd7e8abd51229012b692420a346000000000000000000000000000000000000000000000000000000003b9aca00",
        "nonce": "0x66",
        "chainId": "0xaa37dc"
      },
      "additionalContracts": [],
      "isFixedGasLimit": false
    },
    {
      "hash": "0x6077236d77b34a30d82b56fa863b33968c7a8bb1dbd26ac357ed728aa9c86635",
      "transactionType": "CALL",
      "contractName": null,
      "contractAddress": "0xa1ba1f0210319dd7e8abd51229012b692420a346",
      "function": "buyTokens(uint256)",
      "arguments": [
        "1000000000"
      ],
      "transaction": {
        "from": "0xc06999313769622dad93d6d01642be9762e3b520",
        "to": "0xa1ba1f0210319dd7e8abd51229012b692420a346",
        "gas": "0x1e171",
        "value": "0x0",
        "input": "0x3610724e000000000000000000000000000000000000000000000000000000003b9aca00",
        "nonce": "0x67",
        "chainId": "0xaa37dc"
      },
      "additionalContracts": [],
      "isFixedGasLimit": false
    }
  ],
  "receipts": [
    {
      "status": "0x1",
      "cumulativeGasUsed": "0x16012",
      "logs": [
        {
          "address": "0x966be3df28040313a6ecc5c925f07b169b87cbb7",
          "topics": [
            "0x8c5be1e5ebec7d5bd14f71427d1e84f3dd0314c0f7b2291e5b200ac8c7c3b925",
            "0x000000000000000000000000c06999313769622dad93d6d01642be9762e3b520",
            "0x000000000000000000000000a1ba1f0210319dd7e8abd51229012b692420a346"
          ],
          "data": "0x000000000000000000000000000000000000000000000000000000003b9aca00",
          "blockHash": "0x832e19556fe5e12de0760db055febbfc35e50aea6eea580afcca1310a514b689",
          "blockNumber": "0x1735f25",
          "transactionHash": "0x1fd902885238eaa6a749be66361a71cbeeb49acd2ded626d91b271e339b20f9f",
          "transactionIndex": "0x1",
          "logIndex": "0x0",
          "removed": false
        }
      ],
      "logsBloom": "0x00000000000000000000000001000000000000000000000000000000000000000100000000000000000000000000000000000000000000000000000000200000000000000000020000000000000000000000000000000000000000000000000000000000000000000000100000000000000000200000000000000000000020000000000000004000000000000000000000000000000000000000000000000000020000000000000000080200000000000000000000000000000000000000000000000000000000000000000000000000000000000000000000000000000000000010000000000000000000000000000000000000000000000000000000000000",
      "type": "0x2",
      "transactionHash": "0x1fd902885238eaa6a749be66361a71cbeeb49acd2ded626d91b271e339b20f9f",
      "transactionIndex": "0x1",
      "blockHash": "0x832e19556fe5e12de0760db055febbfc35e50aea6eea580afcca1310a514b689",
      "blockNumber": "0x1735f25",
      "gasUsed": "0xb4a3",
      "effectiveGasPrice": "0xf56c9",
      "from": "0xc06999313769622dad93d6d01642be9762e3b520",
      "to": "0x966be3df28040313a6ecc5c925f07b169b87cbb7",
      "contractAddress": null,
      "l1BaseFeeScalar": "0x1db0",
      "l1BlobBaseFee": "0xa4f57ccd96",
      "l1BlobBaseFeeScalar": "0xd2730",
      "l1Fee": "0x381c304e78c6",
      "l1GasPrice": "0xbe6ea2b19",
      "l1GasUsed": "0x640"
    },
    {
      "status": "0x1",
      "cumulativeGasUsed": "0x2bca1",
      "logs": [
        {
          "address": "0x966be3df28040313a6ecc5c925f07b169b87cbb7",
          "topics": [
            "0x8c5be1e5ebec7d5bd14f71427d1e84f3dd0314c0f7b2291e5b200ac8c7c3b925",
            "0x000000000000000000000000c06999313769622dad93d6d01642be9762e3b520",
            "0x000000000000000000000000a1ba1f0210319dd7e8abd51229012b692420a346"
          ],
          "data": "0x00000000000000000000000000000000000000000000000000000000000f4240",
          "blockHash": "0x832e19556fe5e12de0760db055febbfc35e50aea6eea580afcca1310a514b689",
          "blockNumber": "0x1735f25",
          "transactionHash": "0x6077236d77b34a30d82b56fa863b33968c7a8bb1dbd26ac357ed728aa9c86635",
          "transactionIndex": "0x2",
          "logIndex": "0x1",
          "removed": false
        },
        {
          "address": "0x966be3df28040313a6ecc5c925f07b169b87cbb7",
          "topics": [
            "0xddf252ad1be2c89b69c2b068fc378daa952ba7f163c4a11628f55a4df523b3ef",
            "0x000000000000000000000000c06999313769622dad93d6d01642be9762e3b520",
            "0x000000000000000000000000a1ba1f0210319dd7e8abd51229012b692420a346"
          ],
          "data": "0x000000000000000000000000000000000000000000000000000000003b8b87c0",
          "blockHash": "0x832e19556fe5e12de0760db055febbfc35e50aea6eea580afcca1310a514b689",
          "blockNumber": "0x1735f25",
          "transactionHash": "0x6077236d77b34a30d82b56fa863b33968c7a8bb1dbd26ac357ed728aa9c86635",
          "transactionIndex": "0x2",
          "logIndex": "0x2",
          "removed": false
        },
        {
          "address": "0x966be3df28040313a6ecc5c925f07b169b87cbb7",
          "topics": [
            "0x8c5be1e5ebec7d5bd14f71427d1e84f3dd0314c0f7b2291e5b200ac8c7c3b925",
            "0x000000000000000000000000c06999313769622dad93d6d01642be9762e3b520",
            "0x000000000000000000000000a1ba1f0210319dd7e8abd51229012b692420a346"
          ],
          "data": "0x0000000000000000000000000000000000000000000000000000000000000000",
          "blockHash": "0x832e19556fe5e12de0760db055febbfc35e50aea6eea580afcca1310a514b689",
          "blockNumber": "0x1735f25",
          "transactionHash": "0x6077236d77b34a30d82b56fa863b33968c7a8bb1dbd26ac357ed728aa9c86635",
          "transactionIndex": "0x2",
          "logIndex": "0x3",
          "removed": false
        },
        {
          "address": "0x966be3df28040313a6ecc5c925f07b169b87cbb7",
          "topics": [
            "0xddf252ad1be2c89b69c2b068fc378daa952ba7f163c4a11628f55a4df523b3ef",
            "0x000000000000000000000000c06999313769622dad93d6d01642be9762e3b520",
            "0x000000000000000000000000c06999313769622dad93d6d01642be9762e3b520"
          ],
          "data": "0x00000000000000000000000000000000000000000000000000000000000f4240",
          "blockHash": "0x832e19556fe5e12de0760db055febbfc35e50aea6eea580afcca1310a514b689",
          "blockNumber": "0x1735f25",
          "transactionHash": "0x6077236d77b34a30d82b56fa863b33968c7a8bb1dbd26ac357ed728aa9c86635",
          "transactionIndex": "0x2",
          "logIndex": "0x4",
          "removed": false
        },
        {
          "address": "0x47170ea51bf13019d7e1eb666a0d2e19767d2397",
          "topics": [
            "0xddf252ad1be2c89b69c2b068fc378daa952ba7f163c4a11628f55a4df523b3ef",
            "0x000000000000000000000000a1ba1f0210319dd7e8abd51229012b692420a346",
            "0x000000000000000000000000c06999313769622dad93d6d01642be9762e3b520"
          ],
          "data": "0x00000000000000000000000000000000000000000000151753aa68956a400000",
          "blockHash": "0x832e19556fe5e12de0760db055febbfc35e50aea6eea580afcca1310a514b689",
          "blockNumber": "0x1735f25",
          "transactionHash": "0x6077236d77b34a30d82b56fa863b33968c7a8bb1dbd26ac357ed728aa9c86635",
          "transactionIndex": "0x2",
          "logIndex": "0x5",
          "removed": false
        },
        {
          "address": "0xa1ba1f0210319dd7e8abd51229012b692420a346",
          "topics": [
            "0x22f6af6e13430e3e7b6418d01e6a48c1fbce5e8cb1698901fc95134b4b1c58ad",
            "0x000000000000000000000000c06999313769622dad93d6d01642be9762e3b520"
          ],
          "data": "0x000000000000000000000000000000000000000000000000000000003b9aca0000000000000000000000000000000000000000000000151753aa68956a4000000000000000000000000000000000000000000000000000000000000000000028",
          "blockHash": "0x832e19556fe5e12de0760db055febbfc35e50aea6eea580afcca1310a514b689",
          "blockNumber": "0x1735f25",
          "transactionHash": "0x6077236d77b34a30d82b56fa863b33968c7a8bb1dbd26ac357ed728aa9c86635",
          "transactionIndex": "0x2",
          "logIndex": "0x6",
          "removed": false
        }
      ],
      "logsBloom": "0x00000000000000000000000001000000000000000000000000000000000000000120000000000000000000000000000000000004000010000000000000200000000000000000020000000008000000000000000000000200000000000000000000200000000000000000100000000000000000200000000000000010000020000000000000004000000000000000000000000000000800000000000000000000020000000000000000080200000000000000000000000000000000000000000002000002000000000000000000080000000000000000000000000000000000000010000000000000000000000000000000000000000000000000000010000000",
      "type": "0x2",
      "transactionHash": "0x6077236d77b34a30d82b56fa863b33968c7a8bb1dbd26ac357ed728aa9c86635",
      "transactionIndex": "0x2",
      "blockHash": "0x832e19556fe5e12de0760db055febbfc35e50aea6eea580afcca1310a514b689",
      "blockNumber": "0x1735f25",
      "gasUsed": "0x15c8f",
      "effectiveGasPrice": "0xf56c9",
      "from": "0xc06999313769622dad93d6d01642be9762e3b520",
      "to": "0xa1ba1f0210319dd7e8abd51229012b692420a346",
      "contractAddress": null,
      "l1BaseFeeScalar": "0x1db0",
      "l1BlobBaseFee": "0xa4f57ccd96",
      "l1BlobBaseFeeScalar": "0xd2730",
      "l1Fee": "0x381c304e78c6",
      "l1GasPrice": "0xbe6ea2b19",
      "l1GasUsed": "0x640"
    }
  ],
  "libraries": [],
  "pending": [],
  "returns": {},
  "timestamp": 1740478967,
  "chain": 11155420,
  "commit": "6f5774f"
}