{
  "transactions": [
    {
      "hash": "0x7e65d01d8a16a90ab36d7bcf2115a244ec5bb97f695f638b1b3ddbb15ab985ea",
      "transactionType": "CALL",
      "contractName": null,
      "contractAddress": "0xc939c1fb1cebc67a10463aa04cba9779c0499d5e",
      "function": "transfer(address,uint256)",
      "arguments": [
        "0xd4aAa5610b0eE8e2E55B0ec851dd3A7c55b5dDD8",
        "1000000000000000000000000000"
      ],
      "transaction": {
        "from": "0xc06999313769622dad93d6d01642be9762e3b520",
        "to": "0xc939c1fb1cebc67a10463aa04cba9779c0499d5e",
        "gas": "0x10a8b",
        "value": "0x0",
        "input": "0xa9059cbb000000000000000000000000d4aaa5610b0ee8e2e55b0ec851dd3a7c55b5ddd80000000000000000000000000000000000000000033b2e3c9fd0803ce8000000",
        "nonce": "0x3",
        "chainId": "0xaa37dc"
      },
      "additionalContracts": [],
      "isFixedGasLimit": false
    }
  ],
  "receipts": [
    {
      "status": "0x1",
      "cumulativeGasUsed": "0x9bfad",
      "logs": [
        {
          "address": "0xc939c1fb1cebc67a10463aa04cba9779c0499d5e",
          "topics": [
            "0xddf252ad1be2c89b69c2b068fc378daa952ba7f163c4a11628f55a4df523b3ef",
            "0x000000000000000000000000c06999313769622dad93d6d01642be9762e3b520",
            "0x000000000000000000000000d4aaa5610b0ee8e2e55b0ec851dd3a7c55b5ddd8"
          ],
          "data": "0x0000000000000000000000000000000000000000033b2e3c9fd0803ce8000000",
          "blockHash": "0xbc2b383dbd9842cdb556572ef09ea6e98e4350c33d081e84c685d649edfb3ba9",
          "blockNumber": "0x172ed09",
          "transactionHash": "0x7e65d01d8a16a90ab36d7bcf2115a244ec5bb97f695f638b1b3ddbb15ab985ea",
          "transactionIndex": "0x4",
          "logIndex": "0x3",
          "removed": false
        }
      ],
      "logsBloom": "0x00000000000000000000000001000000000000000000000000000000000000000100000000000000000000000000000000000000000000000000800010000000000000000000000000000008000000400000000000000000000000000000000000000000000000000000100000000000000000000000000000000010000000000000000000000000000000000000010000000000000000000000000000000000000000000000000000000000000000000000000000000000000000000000000000000002000000000000000000000000000000000000000000000000000000000000000000000000000800000000000000000000000000000000000020000000",
      "type": "0x2",
      "transactionHash": "0x7e65d01d8a16a90ab36d7bcf2115a244ec5bb97f695f638b1b3ddbb15ab985ea",
      "transactionIndex": "0x4",
      "blockHash": "0xbc2b383dbd9842cdb556572ef09ea6e98e4350c33d081e84c685d649edfb3ba9",
      "blockNumber": "0x172ed09",
      "gasUsed": "0xb641",
      "effectiveGasPrice": "0xf437d",
      "from": "0xc06999313769622dad93d6d01642be9762e3b520",
      "to": "0xc939c1fb1cebc67a10463aa04cba9779c0499d5e",
      "contractAddress": null,
      "l1BaseFeeScalar": "0x1db0",
      "l1BlobBaseFee": "0x8fa72c",
      "l1BlobBaseFeeScalar": "0xd2730",
      "l1Fee": "0x1dbb171e3b",
      "l1GasPrice": "0x26def267d",
      "l1GasUsed": "0x640"
    }
  ],
  "libraries": [],
  "pending": [],
  "returns": {},
  "timestamp": 1740420543,
  "chain": 11155420,
  "commit": "1a215eb"
}