{
  "transactions": [
    {
      "hash": "0x4b15c61df4d4f2c2a5072195adfa03923011d0b19ddd2dc0dcc6648b2a7bfb11",
      "transactionType": "CALL",
      "contractName": null,
      "contractAddress": "0xaf36a1b261e42946f47b6eed24db5478e9b46f16",
      "function": "transfer(address,uint256)",
      "arguments": [
        "0x1cEE9Bd2bdCD04e3880a51210AC78F5D70DD1B9B",
        "1000000000000000000000000000"
      ],
      "transaction": {
        "from": "0xc06999313769622dad93d6d01642be9762e3b520",
        "to": "0xaf36a1b261e42946f47b6eed24db5478e9b46f16",
        "gas": "0x10a8b",
        "value": "0x0",
        "input": "0xa9059cbb0000000000000000000000001cee9bd2bdcd04e3880a51210ac78f5d70dd1b9b0000000000000000000000000000000000000000033b2e3c9fd0803ce8000000",
        "nonce": "0x17",
        "chainId": "0xaa37dc"
      },
      "additionalContracts": [],
      "isFixedGasLimit": false
    }
  ],
  "receipts": [
    {
      "status": "0x1",
      "cumulativeGasUsed": "0x8aa9c",
      "logs": [
        {
          "address": "0xaf36a1b261e42946f47b6eed24db5478e9b46f16",
          "topics": [
            "0xddf252ad1be2c89b69c2b068fc378daa952ba7f163c4a11628f55a4df523b3ef",
            "0x000000000000000000000000c06999313769622dad93d6d01642be9762e3b520",
            "0x0000000000000000000000001cee9bd2bdcd04e3880a51210ac78f5d70dd1b9b"
          ],
          "data": "0x0000000000000000000000000000000000000000033b2e3c9fd0803ce8000000",
          "blockHash": "0xe26059964d33593755783dd9ea08303acee99de9655d7cf95ca7d6a4291a49c4",
          "blockNumber": "0x17342e8",
          "transactionHash": "0x4b15c61df4d4f2c2a5072195adfa03923011d0b19ddd2dc0dcc6648b2a7bfb11",
          "transactionIndex": "0x3",
          "logIndex": "0xb",
          "removed": false
        }
      ],
      "logsBloom": "0x00400000008000000000000001000000000000000000000000008000000000000100000000000000000000000000000000000000000000000000000000000000000000000000000000000008000000000000000000000008000000000000008000000000000000000000100000000000000000000000000000000010000000000000000000000000000000000000000000000000000000000000000000000000000000000000000000000000000000000000000000000000000000000000000000000002000000000000000000000000000000000000000000000000000000000000000000000000000000000000000000000000000000000000000000000100",
      "type": "0x2",
      "transactionHash": "0x4b15c61df4d4f2c2a5072195adfa03923011d0b19ddd2dc0dcc6648b2a7bfb11",
      "transactionIndex": "0x3",
      "blockHash": "0xe26059964d33593755783dd9ea08303acee99de9655d7cf95ca7d6a4291a49c4",
      "blockNumber": "0x17342e8",
      "gasUsed": "0xb641",
      "effectiveGasPrice": "0xf434c",
      "from": "0xc06999313769622dad93d6d01642be9762e3b520",
      "to": "0xaf36a1b261e42946f47b6eed24db5478e9b46f16",
      "contractAddress": null,
      "l1BaseFeeScalar": "0x1db0",
      "l1BlobBaseFee": "0x5c6712e7",
      "l1BlobBaseFeeScalar": "0xd2730",
      "l1Fee": "0x30ff07128e",
      "l1GasPrice": "0x178794752",
      "l1GasUsed": "0x640"
    }
  ],
  "libraries": [],
  "pending": [],
  "returns": {},
  "timestamp": 1740464509,
  "chain": 11155420,
  "commit": "106638d"
}