{
  "transactions": [
    {
      "hash": "0x73bfecd4ff2e0a1c09cbe7a93bf00ec5767140e12c15a429e9b89f93b1926ab9",
      "transactionType": "CALL",
      "contractName": null,
      "contractAddress": "0xf2dfa80e04287186d73431af0ab09321d8e97dba",
      "function": "transfer(address,uint256)",
      "arguments": [
        "0xBb535A3dbeEa0e2eAce9dF4caFEA8A1a4d0D8Ff6",
        "1000000000000000000000000000"
      ],
      "transaction": {
        "from": "0xc06999313769622dad93d6d01642be9762e3b520",
        "to": "0xf2dfa80e04287186d73431af0ab09321d8e97dba",
        "gas": "0x10a8b",
        "value": "0x0",
        "input": "0xa9059cbb000000000000000000000000bb535a3dbeea0e2eace9df4cafea8a1a4d0d8ff60000000000000000000000000000000000000000033b2e3c9fd0803ce8000000",
        "nonce": "0xe",
        "chainId": "0xaa37dc"
      },
      "additionalContracts": [],
      "isFixedGasLimit": false
    }
  ],
  "receipts": [
    {
      "status": "0x1",
      "cumulativeGasUsed": "0x3dfb4f",
      "logs": [
        {
          "address": "0xf2dfa80e04287186d73431af0ab09321d8e97dba",
          "topics": [
            "0xddf252ad1be2c89b69c2b068fc378daa952ba7f163c4a11628f55a4df523b3ef",
            "0x000000000000000000000000c06999313769622dad93d6d01642be9762e3b520",
            "0x000000000000000000000000bb535a3dbeea0e2eace9df4cafea8a1a4d0d8ff6"
          ],
          "data": "0x0000000000000000000000000000000000000000033b2e3c9fd0803ce8000000",
          "blockHash": "0xab5a29966daedee791e61a0395ea0ec075d0527b186888756cefbb99098e8c9d",
          "blockNumber": "0x172eea0",
          "transactionHash": "0x73bfecd4ff2e0a1c09cbe7a93bf00ec5767140e12c15a429e9b89f93b1926ab9",
          "transactionIndex": "0x5",
          "logIndex": "0x0",
          "removed": false
        }
      ],
      "logsBloom": "0x00000000000000000000000001000000000000000000000000000000000000000100000000000000000000000000000000000000000000000000000000000000000000000000000000000008000000000000000000000000001000000000001000000000000000004000100000000000000000000000000000000010000000000000000000000000000000000000000000000000000000000000000000000000000000000000000000000000000000000000000000000000400000000010000000000002000000000000000000000000000000000000000000000000000000000000000004000000000000000000000000000000000000000000000000000000",
      "type": "0x2",
      "transactionHash": "0x73bfecd4ff2e0a1c09cbe7a93bf00ec5767140e12c15a429e9b89f93b1926ab9",
      "transactionIndex": "0x5",
      "blockHash": "0xab5a29966daedee791e61a0395ea0ec075d0527b186888756cefbb99098e8c9d",
      "blockNumber": "0x172eea0",
      "gasUsed": "0xb641",
      "effectiveGasPrice": "0xf4391",
      "from": "0xc06999313769622dad93d6d01642be9762e3b520",
      "to": "0xf2dfa80e04287186d73431af0ab09321d8e97dba",
      "contractAddress": null,
      "l1BaseFeeScalar": "0x1db0",
      "l1BlobBaseFee": "0x30924a1",
      "l1BlobBaseFeeScalar": "0xd2730",
      "l1Fee": "0x115651cc2b",
      "l1GasPrice": "0x157794815",
      "l1GasUsed": "0x640"
    }
  ],
  "libraries": [],
  "pending": [],
  "returns": {},
  "timestamp": 1740421356,
  "chain": 11155420,
  "commit": "1a215eb"
}