{
  "transactions": [
    {
      "hash": "0xa1024cf7827956caaa762c6f451937d6da51b0f947a880f6953ece7714c80dcd",
      "transactionType": "CALL",
      "contractName": null,
      "contractAddress": "0xcec34c32ebb2ef111077b61d2c7913095bc26cd9",
      "function": "transfer(address,uint256)",
      "arguments": [
        "0x12452904BE81b20eF06EE39fA2c7c49E27456EDf",
        "1000000000000000000000000000"
      ],
      "transaction": {
        "from": "0xc06999313769622dad93d6d01642be9762e3b520",
        "to": "0xcec34c32ebb2ef111077b61d2c7913095bc26cd9",
        "gas": "0x10a8b",
        "value": "0x0",
        "input": "0xa9059cbb00000000000000000000000012452904be81b20ef06ee39fa2c7c49e27456edf0000000000000000000000000000000000000000033b2e3c9fd0803ce8000000",
        "nonce": "0x31",
        "chainId": "0xaa37dc"
      },
      "additionalContracts": [],
      "isFixedGasLimit": false
    }
  ],
  "receipts": [
    {
      "status": "0x1",
      "cumulativeGasUsed": "0x567ca1",
      "logs": [
        {
          "address": "0xcec34c32ebb2ef111077b61d2c7913095bc26cd9",
          "topics": [
            "0xddf252ad1be2c89b69c2b068fc378daa952ba7f163c4a11628f55a4df523b3ef",
            "0x000000000000000000000000c06999313769622dad93d6d01642be9762e3b520",
            "0x00000000000000000000000012452904be81b20ef06ee39fa2c7c49e27456edf"
          ],
          "data": "0x0000000000000000000000000000000000000000033b2e3c9fd0803ce8000000",
          "blockHash": "0x378b3058e44bd9966df789a1ae672d758ec4d848fc66de313b7b7675027dcf63",
          "blockNumber": "0x1734c52",
          "transactionHash": "0xa1024cf7827956caaa762c6f451937d6da51b0f947a880f6953ece7714c80dcd",
          "transactionIndex": "0x5",
          "logIndex": "0xf",
          "removed": false
        }
      ],
      "logsBloom": "0x00000000000000000000000001000000000000000000000000000000000000000100000000000000000000000000000000000000100040000000000000000000000000000000000000000008000000000000000000000000020000000000000000000000000000000000100000000000000000000000000000000010000000000000000000000000004000000000000000000000000000000000000000000000000000000080000000000000000000000000000000000000000000000000000000000002000000000000000000000000000000000000000000000000000000000000000000000000000000000000000000000020000000000000000000000000",
      "type": "0x2",
      "transactionHash": "0xa1024cf7827956caaa762c6f451937d6da51b0f947a880f6953ece7714c80dcd",
      "transactionIndex": "0x5",
      "blockHash": "0x378b3058e44bd9966df789a1ae672d758ec4d848fc66de313b7b7675027dcf63",
      "blockNumber": "0x1734c52",
      "gasUsed": "0xb641",
      "effectiveGasPrice": "0xf4348",
      "from": "0xc06999313769622dad93d6d01642be9762e3b520",
      "to": "0xcec34c32ebb2ef111077b61d2c7913095bc26cd9",
      "contractAddress": null,
      "l1BaseFeeScalar": "0x1db0",
      "l1BlobBaseFee": "0x3925f50e6e",
      "l1BlobBaseFeeScalar": "0xd2730",
      "l1Fee": "0x1379eb7076a3",
      "l1GasPrice": "0x4e9a882a0",
      "l1GasUsed": "0x640"
    }
  ],
  "libraries": [],
  "pending": [],
  "returns": {},
  "timestamp": 1740469329,
  "chain": 11155420,
  "commit": "1a90a3b"
}