{
  "transactions": [
    {
      "hash": "0x451cef05b1ddcca75dd64182fd73cc2dc72e7cd24413123ded7321c7559167be",
      "transactionType": "CALL",
      "contractName": null,
      "contractAddress": "0xa83cb2f4fa7ed1d77e60edcc4d0e99efda38a050",
      "function": "transfer(address,uint256)",
      "arguments": [
        "0x728EAE530d80E29a27074903775421A41eFd614A",
        "1000000000000000000000000000"
      ],
      "transaction": {
        "from": "0xc06999313769622dad93d6d01642be9762e3b520",
        "to": "0xa83cb2f4fa7ed1d77e60edcc4d0e99efda38a050",
        "gas": "0x10a8b",
        "value": "0x0",
        "input": "0xa9059cbb000000000000000000000000728eae530d80e29a27074903775421a41efd614a0000000000000000000000000000000000000000033b2e3c9fd0803ce8000000",
        "nonce": "0x4d",
        "chainId": "0xaa37dc"
      },
      "additionalContracts": [],
      "isFixedGasLimit": false
    }
  ],
  "receipts": [
    {
      "status": "0x1",
      "cumulativeGasUsed": "0x246225",
      "logs": [
        {
          "address": "0xa83cb2f4fa7ed1d77e60edcc4d0e99efda38a050",
          "topics": [
            "0xddf252ad1be2c89b69c2b068fc378daa952ba7f163c4a11628f55a4df523b3ef",
            "0x000000000000000000000000c06999313769622dad93d6d01642be9762e3b520",
            "0x000000000000000000000000728eae530d80e29a27074903775421a41efd614a"
          ],
          "data": "0x0000000000000000000000000000000000000000033b2e3c9fd0803ce8000000",
          "blockHash": "0xd4ac367979accbc327ee99cdf249e685d87d7da99fe33a63df40f57c77e00d44",
          "blockNumber": "0x1735990",
          "transactionHash": "0x451cef05b1ddcca75dd64182fd73cc2dc72e7cd24413123ded7321c7559167be",
          "transactionIndex": "0x6",
          "logIndex": "0x19",
          "removed": false
        }
      ],
      "logsBloom": "0x00000000000000000000000021000000000000000000000000000000000000000100000000000000000000000000000000000000000000000000000000000000000000000000000000000008000000000000000000000000000000000000000000000000000000000000100000000000000000000000000000000010000000000000000000000000000000200000000000000000000000000000000000000040000000080000000000000000000000000000000000000000000000000000000000000002000000000000000000000000000000000000000000000000000000000000000000000000000000000000000000000000000000000000000020400000",
      "type": "0x2",
      "transactionHash": "0x451cef05b1ddcca75dd64182fd73cc2dc72e7cd24413123ded7321c7559167be",
      "transactionIndex": "0x6",
      "blockHash": "0xd4ac367979accbc327ee99cdf249e685d87d7da99fe33a63df40f57c77e00d44",
      "blockNumber": "0x1735990",
      "gasUsed": "0xb641",
      "effectiveGasPrice": "0xf433b",
      "from": "0xc06999313769622dad93d6d01642be9762e3b520",
      "to": "0xa83cb2f4fa7ed1d77e60edcc4d0e99efda38a050",
      "contractAddress": null,
      "l1BaseFeeScalar": "0x1db0",
      "l1BlobBaseFee": "0xd0c6b252ef",
      "l1BlobBaseFeeScalar": "0xd2730",
      "l1Fee": "0x46dcb4619afd",
      "l1GasPrice": "0xbdbc8c35f",
      "l1GasUsed": "0x640"
    }
  ],
  "libraries": [],
  "pending": [],
  "returns": {},
  "timestamp": 1740476109,
  "chain": 11155420,
  "commit": "99a39e4"
}