{
  "transactions": [
    {
      "hash": "0x9ba7ee922f0769bfa42a00605ac020b8a3c394d401f3d58678c0787c681ca318",
      "transactionType": "CALL",
      "contractName": null,
      "contractAddress": "0x47170ea51bf13019d7e1eb666a0d2e19767d2397",
      "function": "transfer(address,uint256)",
      "arguments": [
        "0xa1bA1F0210319dd7e8abd51229012B692420a346",
        "999398400000000000000000000"
      ],
      "transaction": {
        "from": "0xc06999313769622dad93d6d01642be9762e3b520",
        "to": "0x47170ea51bf13019d7e1eb666a0d2e19767d2397",
        "gas": "0x9f79",
        "value": "0x0",
        "input": "0xa9059cbb000000000000000000000000a1ba1f0210319dd7e8abd51229012b692420a3460000000000000000000000000000000000000000033aaed7d2ab55a4f0000000",
        "nonce": "0x68",
        "chainId": "0xaa37dc"
      },
      "additionalContracts": [],
      "isFixedGasLimit": false
    }
  ],
  "receipts": [
    {
      "status": "0x1",
      "cumulativeGasUsed": "0x15f184",
      "logs": [
        {
          "address": "0x47170ea51bf13019d7e1eb666a0d2e19767d2397",
          "topics": [
            "0xddf252ad1be2c89b69c2b068fc378daa952ba7f163c4a11628f55a4df523b3ef",
            "0x000000000000000000000000c06999313769622dad93d6d01642be9762e3b520",
            "0x000000000000000000000000a1ba1f0210319dd7e8abd51229012b692420a346"
          ],
          "data": "0x0000000000000000000000000000000000000000033aaed7d2ab55a4f0000000",
          "blockHash": "0x4ceae93dff8232bfe22d624a099fe187c375499ccaa3aed1af55eb9083caa796",
          "blockNumber": "0x1735f48",
          "transactionHash": "0x9ba7ee922f0769bfa42a00605ac020b8a3c394d401f3d58678c0787c681ca318",
          "transactionIndex": "0x6",
          "logIndex": "0xc",
          "removed": false
        }
      ],
      "logsBloom": "0x00000000000000000000000001000000000000000000000000000000000000000120000000000000000000000000000000000000000010000000000000000000000000000000000000000008000000000000000000000000000000000000000000200000000000000000100000000000000000000000000000000010000020000000000000004000000000000000000000000000000000000000000000000000000000000000000000080000000000000000000000000000000000000000000000000002000000000000000000000000000000000000000000000000000000000000000000000000000000000000000000000000000000000000000000000000",
      "type": "0x2",
      "transactionHash": "0x9ba7ee922f0769bfa42a00605ac020b8a3c394d401f3d58678c0787c681ca318",
      "transactionIndex": "0x6",
      "blockHash": "0x4ceae93dff8232bfe22d624a099fe187c375499ccaa3aed1af55eb9083caa796",
      "blockNumber": "0x1735f48",
      "gasUsed": "0x7375",
      "effectiveGasPrice": "0xf433e",
      "from": "0xc06999313769622dad93d6d01642be9762e3b520",
      "to": "0x47170ea51bf13019d7e1eb666a0d2e19767d2397",
      "contractAddress": null,
      "l1BaseFeeScalar": "0x1db0",
      "l1BlobBaseFee": "0xc1027e0fa7",
      "l1BlobBaseFeeScalar": "0xd2730",
      "l1Fee": "0x418199489202",
      "l1GasPrice": "0xade4e3d0d",
      "l1GasUsed": "0x640"
    }
  ],
  "libraries": [],
  "pending": [],
  "returns": {},
  "timestamp": 1740479038,
  "chain": 11155420,
  "commit": "6f5774f"
}