{
  "transactions": [
    {
      "hash": "0x03f5a01088f8ad89e5faa3ff7b673838264b32f55730d293e79ec3240b792c34",
      "transactionType": "CALL",
      "contractName": null,
      "contractAddress": "0x741973e28394f26f75cb1a09303aab3c43180d31",
      "function": "approve(address,uint256)",
      "arguments": [
        "0x12452904BE81b20eF06EE39fA2c7c49E27456EDf",
        "10000000000"
      ],
      "transaction": {
        "from": "0xc06999313769622dad93d6d01642be9762e3b520",
        "to": "0x741973e28394f26f75cb1a09303aab3c43180d31",
        "gas": "0xa68e",
        "value": "0x0",
        "input": "0x095ea7b300000000000000000000000012452904be81b20ef06ee39fa2c7c49e27456edf00000000000000000000000000000000000000000000000000000002540be400",
        "nonce": "0x46",
        "chainId": "0xaa37dc"
      },
      "additionalContracts": [],
      "isFixedGasLimit": false
    },
    {
      "hash": "0x2e6bc8fd2fdaf8fed4fe03e0510778f0bf2ca1ddec64050c97bb740370d0e1c6",
      "transactionType": "CALL",
      "contractName": null,
      "contractAddress": "0x12452904be81b20ef06ee39fa2c7c49e27456edf",
      "function": "buyTokens(uint256)",
      "arguments": [
        "1000000000"
      ],
      "transaction": {
        "from": "0xc06999313769622dad93d6d01642be9762e3b520",
        "to": "0x12452904be81b20ef06ee39fa2c7c49e27456edf",
        "gas": "0x1ffbc",
        "value": "0x0",
        "input": "0x3610724e000000000000000000000000000000000000000000000000000000003b9aca00",
        "nonce": "0x47",
        "chainId": "0xaa37dc"
      },
      "additionalContracts": [],
      "isFixedGasLimit": false
    }
  ],
  "receipts": [
    {
      "status": "0x1",
      "cumulativeGasUsed": "0x1644ae",
      "logs": [
        {
          "address": "0x741973e28394f26f75cb1a09303aab3c43180d31",
          "topics": [
            "0x8c5be1e5ebec7d5bd14f71427d1e84f3dd0314c0f7b2291e5b200ac8c7c3b925",
            "0x000000000000000000000000c06999313769622dad93d6d01642be9762e3b520",
            "0x00000000000000000000000012452904be81b20ef06ee39fa2c7c49e27456edf"
          ],
          "data": "0x00000000000000000000000000000000000000000000000000000002540be400",
          "blockHash": "0x940009f02855f703daeedf1d4fdd03c2d3b297ff29f8c0d6ebad067bdfb8f43e",
          "blockNumber": "0x1734e89",
          "transactionHash": "0x03f5a01088f8ad89e5faa3ff7b673838264b32f55730d293e79ec3240b792c34",
          "transactionIndex": "0x2",
          "logIndex": "0x0",
          "removed": false
        }
      ],
      "logsBloom": "0x00000000000000000000000001000000000000000000000000000000002000000100000000000000000000000000000000000000000040000000000000200000000000000000000000000000000000000000000000000000020000000000000000000000000000000000100000000000000000000000000000000000000000000000000000000000000000000000000000000000000000000000000000000000020000000000000000000000000000000000000000000000000000000000000000000000000000000000000000000000000000000000000000000000000000000010002000000000000000000800000000000020000000000000000000000000",
      "type": "0x2",
      "transactionHash": "0x03f5a01088f8ad89e5faa3ff7b673838264b32f55730d293e79ec3240b792c34",
      "transactionIndex": "0x2",
      "blockHash": "0x940009f02855f703daeedf1d4fdd03c2d3b297ff29f8c0d6ebad067bdfb8f43e",
      "blockNumber": "0x1734e89",
      "gasUsed": "0x71e3",
      "effectiveGasPrice": "0xf4343",
      "from": "0xc06999313769622dad93d6d01642be9762e3b520",
      "to": "0x741973e28394f26f75cb1a09303aab3c43180d31",
      "contractAddress": null,
      "l1BaseFeeScalar": "0x1db0",
      "l1BlobBaseFee": "0x32cc680154",
      "l1BlobBaseFeeScalar": "0xd2730",
      "l1Fee": "0x11558d850136",
      "l1GasPrice": "0x4d452ed6c",
      "l1GasUsed": "0x640"
    },
    {
      "status": "0x1",
      "cumulativeGasUsed": "0x17b72c",
      "logs": [
        {
          "address": "0x741973e28394f26f75cb1a09303aab3c43180d31",
          "topics": [
            "0x8c5be1e5ebec7d5bd14f71427d1e84f3dd0314c0f7b2291e5b200ac8c7c3b925",
            "0x000000000000000000000000c06999313769622dad93d6d01642be9762e3b520",
            "0x00000000000000000000000012452904be81b20ef06ee39fa2c7c49e27456edf"
          ],
          "data": "0x0000000000000000000000000000000000000000000000000000000218805c40",
          "blockHash": "0x940009f02855f703daeedf1d4fdd03c2d3b297ff29f8c0d6ebad067bdfb8f43e",
          "blockNumber": "0x1734e89",
          "transactionHash": "0x2e6bc8fd2fdaf8fed4fe03e0510778f0bf2ca1ddec64050c97bb740370d0e1c6",
          "transactionIndex": "0x3",
          "logIndex": "0x1",
          "removed": false
        },
        {
          "address": "0x741973e28394f26f75cb1a09303aab3c43180d31",
          "topics": [
            "0xddf252ad1be2c89b69c2b068fc378daa952ba7f163c4a11628f55a4df523b3ef",
            "0x000000000000000000000000c06999313769622dad93d6d01642be9762e3b520",
            "0x00000000000000000000000012452904be81b20ef06ee39fa2c7c49e27456edf"
          ],
          "data": "0x000000000000000000000000000000000000000000000000000000003b8b87c0",
          "blockHash": "0x940009f02855f703daeedf1d4fdd03c2d3b297ff29f8c0d6ebad067bdfb8f43e",
          "blockNumber": "0x1734e89",
          "transactionHash": "0x2e6bc8fd2fdaf8fed4fe03e0510778f0bf2ca1ddec64050c97bb740370d0e1c6",
          "transactionIndex": "0x3",
          "logIndex": "0x2",
          "removed": false
        },
        {
          "address": "0x741973e28394f26f75cb1a09303aab3c43180d31",
          "topics": [
            "0x8c5be1e5ebec7d5bd14f71427d1e84f3dd0314c0f7b2291e5b200ac8c7c3b925",
            "0x000000000000000000000000c06999313769622dad93d6d01642be9762e3b520",
            "0x00000000000000000000000012452904be81b20ef06ee39fa2c7c49e27456edf"
          ],
          "data": "0x0000000000000000000000000000000000000000000000000000000218711a00",
          "blockHash": "0x940009f02855f703daeedf1d4fdd03c2d3b297ff29f8c0d6ebad067bdfb8f43e",
          "blockNumber": "0x1734e89",
          "transactionHash": "0x2e6bc8fd2fdaf8fed4fe03e0510778f0bf2ca1ddec64050c97bb740370d0e1c6",
          "transactionIndex": "0x3",
          "logIndex": "0x3",
          "removed": false
        },
        {
          "address": "0x741973e28394f26f75cb1a09303aab3c43180d31",
          "topics": [
            "0xddf252ad1be2c89b69c2b068fc378daa952ba7f163c4a11628f55a4df523b3ef",
            "0x000000000000000000000000c06999313769622dad93d6d01642be9762e3b520",
            "0x000000000000000000000000c06999313769622dad93d6d01642be9762e3b520"
          ],
          "data": "0x00000000000000000000000000000000000000000000000000000000000f4240",
          "blockHash": "0x940009f02855f703daeedf1d4fdd03c2d3b297ff29f8c0d6ebad067bdfb8f43e",
          "blockNumber": "0x1734e89",
          "transactionHash": "0x2e6bc8fd2fdaf8fed4fe03e0510778f0bf2ca1ddec64050c97bb740370d0e1c6",
          "transactionIndex": "0x3",
          "logIndex": "0x4",
          "removed": false
        },
        {
          "address": "0xcec34c32ebb2ef111077b61d2c7913095bc26cd9",
          "topics": [
            "0xddf252ad1be2c89b69c2b068fc378daa952ba7f163c4a11628f55a4df523b3ef",
            "0x00000000000000000000000012452904be81b20ef06ee39fa2c7c49e27456edf",
            "0x000000000000000000000000c06999313769622dad93d6d01642be9762e3b520"
          ],
          "data": "0x00000000000000000000000000000000000000000000150376df78c0df1b0251",
          "blockHash": "0x940009f02855f703daeedf1d4fdd03c2d3b297ff29f8c0d6ebad067bdfb8f43e",
          "blockNumber": "0x1734e89",
          "transactionHash": "0x2e6bc8fd2fdaf8fed4fe03e0510778f0bf2ca1ddec64050c97bb740370d0e1c6",
          "transactionIndex": "0x3",
          "logIndex": "0x5",
          "removed": false
        }
      ],
      "logsBloom": "0x00000000000000000000000001000000000000000000000000000000002000000100000000000000000000000000000000000000100040000000000000200000000000000000000000000008000000000000000000000000020000000000000000000000000000000000100000000000000000000000000000000010000000000000000000000000004000000000000000000000000000000000000000000000020000000080000000000000000000000000000000000000000000000000000000000002000000000000000000000000000000000000000000000000000000000010002000000000000000000800000000000020000000000000000000000000",
      "type": "0x2",
      "transactionHash": "0x2e6bc8fd2fdaf8fed4fe03e0510778f0bf2ca1ddec64050c97bb740370d0e1c6",
      "transactionIndex": "0x3",
      "blockHash": "0x940009f02855f703daeedf1d4fdd03c2d3b297ff29f8c0d6ebad067bdfb8f43e",
      "blockNumber": "0x1734e89",
      "gasUsed": "0x1727e",
      "effectiveGasPrice": "0xf4343",
      "from": "0xc06999313769622dad93d6d01642be9762e3b520",
      "to": "0x12452904be81b20ef06ee39fa2c7c49e27456edf",
      "contractAddress": null,
      "l1BaseFeeScalar": "0x1db0",
      "l1BlobBaseFee": "0x32cc680154",
      "l1BlobBaseFeeScalar": "0xd2730",
      "l1Fee": "0x11558d850136",
      "l1GasPrice": "0x4d452ed6c",
      "l1GasUsed": "0x640"
    }
  ],
  "libraries": [],
  "pending": [],
  "returns": {},
  "timestamp": 1740470463,
  "chain": 11155420,
  "commit": "1a90a3b"
}