{
  "transactions": [
    {
      "hash": "0x3d234830a55418d0343e41c7e1d5100350f94d935a9cfc2c0982c39c65a974a4",
      "transactionType": "CALL",
      "contractName": null,
      "contractAddress": "0x741973e28394f26f75cb1a09303aab3c43180d31",
      "function": "approve(address,uint256)",
      "arguments": [
        "0x12452904BE81b20eF06EE39fA2c7c49E27456EDf",
        "10000000000"
      ],
      "transaction": {
        "from": "0xc06999313769622dad93d6d01642be9762e3b520",
        "to": "0x741973e28394f26f75cb1a09303aab3c43180d31",
        "gas": "0xa68e",
        "value": "0x0",
        "input": "0x095ea7b300000000000000000000000012452904be81b20ef06ee39fa2c7c49e27456edf00000000000000000000000000000000000000000000000000000002540be400",
        "nonce": "0x48",
        "chainId": "0xaa37dc"
      },
      "additionalContracts": [],
      "isFixedGasLimit": false
    },
    {
      "hash": "0x20fe9dba943ebe71553bdc06d71f2e3ebf32b267ea6bcff71c2d3dff2c97050b",
      "transactionType": "CALL",
      "contractName": null,
      "contractAddress": "0x12452904be81b20ef06ee39fa2c7c49e27456edf",
      "function": "buyTokens(uint256)",
      "arguments": [
        "1000000000"
      ],
      "transaction": {
        "from": "0xc06999313769622dad93d6d01642be9762e3b520",
        "to": "0x12452904be81b20ef06ee39fa2c7c49e27456edf",
        "gas": "0x1ffbc",
        "value": "0x0",
        "input": "0x3610724e000000000000000000000000000000000000000000000000000000003b9aca00",
        "nonce": "0x49",
        "chainId": "0xaa37dc"
      },
      "additionalContracts": [],
      "isFixedGasLimit": false
    }
  ],
  "receipts": [
    {
      "status": "0x1",
      "cumulativeGasUsed": "0x1e48f4",
      "logs": [
        {
          "address": "0x741973e28394f26f75cb1a09303aab3c43180d31",
          "topics": [
            "0x8c5be1e5ebec7d5bd14f71427d1e84f3dd0314c0f7b2291e5b200ac8c7c3b925",
            "0x000000000000000000000000c06999313769622dad93d6d01642be9762e3b520",
            "0x00000000000000000000000012452904be81b20ef06ee39fa2c7c49e27456edf"
          ],
          "data": "0x00000000000000000000000000000000000000000000000000000002540be400",
          "blockHash": "0x4a17875a3b6b535bc7551207a9380eb81ed796d68a23685756690ad42ebcde34",
          "blockNumber": "0x1734e9e",
          "transactionHash": "0x3d234830a55418d0343e41c7e1d5100350f94d935a9cfc2c0982c39c65a974a4",
          "transactionIndex": "0x4",
          "logIndex": "0xc",
          "removed": false
        }
      ],
      "logsBloom": "0x00000000000000000000000001000000000000000000000000000000002000000100000000000000000000000000000000000000000040000000000000200000000000000000000000000000000000000000000000000000020000000000000000000000000000000000100000000000000000000000000000000000000000000000000000000000000000000000000000000000000000000000000000000000020000000000000000000000000000000000000000000000000000000000000000000000000000000000000000000000000000000000000000000000000000000010002000000000000000000800000000000020000000000000000000000000",
      "type": "0x2",
      "transactionHash": "0x3d234830a55418d0343e41c7e1d5100350f94d935a9cfc2c0982c39c65a974a4",
      "transactionIndex": "0x4",
      "blockHash": "0x4a17875a3b6b535bc7551207a9380eb81ed796d68a23685756690ad42ebcde34",
      "blockNumber": "0x1734e9e",
      "gasUsed": "0x71e3",
      "effectiveGasPrice": "0xf4341",
      "from": "0xc06999313769622dad93d6d01642be9762e3b520",
      "to": "0x741973e28394f26f75cb1a09303aab3c43180d31",
      "contractAddress": null,
      "l1BaseFeeScalar": "0x1db0",
      "l1BlobBaseFee": "0x3b6fc4ce0f",
      "l1BlobBaseFeeScalar": "0xd2730",
      "l1Fee": "0x1445f4df64c6",
      "l1GasPrice": "0x57875fe86",
      "l1GasUsed": "0x640"
    },
    {
      "status": "0x1",
      "cumulativeGasUsed": "0x67f0c",
      "logs": [
        {
          "address": "0x741973e28394f26f75cb1a09303aab3c43180d31",
          "topics": [
            "0x8c5be1e5ebec7d5bd14f71427d1e84f3dd0314c0f7b2291e5b200ac8c7c3b925",
            "0x000000000000000000000000c06999313769622dad93d6d01642be9762e3b520",
            "0x00000000000000000000000012452904be81b20ef06ee39fa2c7c49e27456edf"
          ],
          "data": "0x0000000000000000000000000000000000000000000000000000000218805c40",
          "blockHash": "0x1a87dc1f14f9e954a6a1bc75cce85bd2367931172f9ef95af57e90159a3fef66",
          "blockNumber": "0x1734e9f",
          "transactionHash": "0x20fe9dba943ebe71553bdc06d71f2e3ebf32b267ea6bcff71c2d3dff2c97050b",
          "transactionIndex": "0x4",
          "logIndex": "0x6",
          "removed": false
        },
        {
          "address": "0x741973e28394f26f75cb1a09303aab3c43180d31",
          "topics": [
            "0xddf252ad1be2c89b69c2b068fc378daa952ba7f163c4a11628f55a4df523b3ef",
            "0x000000000000000000000000c06999313769622dad93d6d01642be9762e3b520",
            "0x00000000000000000000000012452904be81b20ef06ee39fa2c7c49e27456edf"
          ],
          "data": "0x000000000000000000000000000000000000000000000000000000003b8b87c0",
          "blockHash": "0x1a87dc1f14f9e954a6a1bc75cce85bd2367931172f9ef95af57e90159a3fef66",
          "blockNumber": "0x1734e9f",
          "transactionHash": "0x20fe9dba943ebe71553bdc06d71f2e3ebf32b267ea6bcff71c2d3dff2c97050b",
          "transactionIndex": "0x4",
          "logIndex": "0x7",
          "removed": false
        },
        {
          "address": "0x741973e28394f26f75cb1a09303aab3c43180d31",
          "topics": [
            "0x8c5be1e5ebec7d5bd14f71427d1e84f3dd0314c0f7b2291e5b200ac8c7c3b925",
            "0x000000000000000000000000c06999313769622dad93d6d01642be9762e3b520",
            "0x00000000000000000000000012452904be81b20ef06ee39fa2c7c49e27456edf"
          ],
          "data": "0x0000000000000000000000000000000000000000000000000000000218711a00",
          "blockHash": "0x1a87dc1f14f9e954a6a1bc75cce85bd2367931172f9ef95af57e90159a3fef66",
          "blockNumber": "0x1734e9f",
          "transactionHash": "0x20fe9dba943ebe71553bdc06d71f2e3ebf32b267ea6bcff71c2d3dff2c97050b",
          "transactionIndex": "0x4",
          "logIndex": "0x8",
          "removed": false
        },
        {
          "address": "0x741973e28394f26f75cb1a09303aab3c43180d31",
          "topics": [
            "0xddf252ad1be2c89b69c2b068fc378daa952ba7f163c4a11628f55a4df523b3ef",
            "0x000000000000000000000000c06999313769622dad93d6d01642be9762e3b520",
            "0x000000000000000000000000c06999313769622dad93d6d01642be9762e3b520"
          ],
          "data": "0x00000000000000000000000000000000000000000000000000000000000f4240",
          "blockHash": "0x1a87dc1f14f9e954a6a1bc75cce85bd2367931172f9ef95af57e90159a3fef66",
          "blockNumber": "0x1734e9f",
          "transactionHash": "0x20fe9dba943ebe71553bdc06d71f2e3ebf32b267ea6bcff71c2d3dff2c97050b",
          "transactionIndex": "0x4",
          "logIndex": "0x9",
          "removed": false
        },
        {
          "address": "0xcec34c32ebb2ef111077b61d2c7913095bc26cd9",
          "topics": [
            "0xddf252ad1be2c89b69c2b068fc378daa952ba7f163c4a11628f55a4df523b3ef",
            "0x00000000000000000000000012452904be81b20ef06ee39fa2c7c49e27456edf",
            "0x000000000000000000000000c06999313769622dad93d6d01642be9762e3b520"
          ],
          "data": "0x000000000000000000000000000000000000000000001502edd1077128758756",
          "blockHash": "0x1a87dc1f14f9e954a6a1bc75cce85bd2367931172f9ef95af57e90159a3fef66",
          "blockNumber": "0x1734e9f",
          "transactionHash": "0x20fe9dba943ebe71553bdc06d71f2e3ebf32b267ea6bcff71c2d3dff2c97050b",
          "transactionIndex": "0x4",
          "logIndex": "0xa",
          "removed": false
        }
      ],
      "logsBloom": "0x00000000000000000000000001000000000000000000000000000000002000000100000000000000000000000000000000000000100040000000000000200000000000000000000000000008000000000000000000000000020000000000000000000000000000000000100000000000000000000000000000000010000000000000000000000000004000000000000000000000000000000000000000000000020000000080000000000000000000000000000000000000000000000000000000000002000000000000000000000000000000000000000000000000000000000010002000000000000000000800000000000020000000000000000000000000",
      "type": "0x2",
      "transactionHash": "0x20fe9dba943ebe71553bdc06d71f2e3ebf32b267ea6bcff71c2d3dff2c97050b",
      "transactionIndex": "0x4",
      "blockHash": "0x1a87dc1f14f9e954a6a1bc75cce85bd2367931172f9ef95af57e90159a3fef66",
      "blockNumber": "0x1734e9f",
      "gasUsed": "0x1727e",
      "effectiveGasPrice": "0xf4341",
      "from": "0xc06999313769622dad93d6d01642be9762e3b520",
      "to": "0x12452904be81b20ef06ee39fa2c7c49e27456edf",
      "contractAddress": null,
      "l1BaseFeeScalar": "0x1db0",
      "l1BlobBaseFee": "0x3b6fc4ce0f",
      "l1BlobBaseFeeScalar": "0xd2730",
      "l1Fee": "0x1445f4df64c6",
      "l1GasPrice": "0x57875fe86",
      "l1GasUsed": "0x640"
    }
  ],
  "libraries": [],
  "pending": [],
  "returns": {},
  "timestamp": 1740470507,
  "chain": 11155420,
  "commit": "1a90a3b"
}