{
  "transactions": [
    {
      "hash": "0xc435792131e601261c59f4ea50e1150fb42561d6d928d5f32c46ad4e4924e888",
      "transactionType": "CALL",
      "contractName": null,
      "contractAddress": "0x334f5a3ecc0c6dcea6d438a532b20dae20806bc6",
      "function": "approve(address,uint256)",
      "arguments": [
        "0x728EAE530d80E29a27074903775421A41eFd614A",
        "10000000000"
      ],
      "transaction": {
        "from": "0xc06999313769622dad93d6d01642be9762e3b520",
        "to": "0x334f5a3ecc0c6dcea6d438a532b20dae20806bc6",
        "gas": "0xa68e",
        "value": "0x0",
        "input": "0x095ea7b3000000000000000000000000728eae530d80e29a27074903775421a41efd614a00000000000000000000000000000000000000000000000000000002540be400",
        "nonce": "0x50",
        "chainId": "0xaa37dc"
      },
      "additionalContracts": [],
      "isFixedGasLimit": false
    },
    {
      "hash": "0x99e088975e179efb6b1163861aa80707e3e2dfd767b5a90d4e36bc9497b38dc5",
      "transactionType": "CALL",
      "contractName": null,
      "contractAddress": "0x728eae530d80e29a27074903775421a41efd614a",
      "function": "buyTokens(uint256)",
      "arguments": [
        "1000000000"
      ],
      "transaction": {
        "from": "0xc06999313769622dad93d6d01642be9762e3b520",
        "to": "0x728eae530d80e29a27074903775421a41efd614a",
        "gas": "0x2196d",
        "value": "0x0",
        "input": "0x3610724e000000000000000000000000000000000000000000000000000000003b9aca00",
        "nonce": "0x51",
        "chainId": "0xaa37dc"
      },
      "additionalContracts": [],
      "isFixedGasLimit": false
    }
  ],
  "receipts": [
    {
      "status": "0x1",
      "cumulativeGasUsed": "0x21e9a4",
      "logs": [
        {
          "address": "0x334f5a3ecc0c6dcea6d438a532b20dae20806bc6",
          "topics": [
            "0x8c5be1e5ebec7d5bd14f71427d1e84f3dd0314c0f7b2291e5b200ac8c7c3b925",
            "0x000000000000000000000000c06999313769622dad93d6d01642be9762e3b520",
            "0x000000000000000000000000728eae530d80e29a27074903775421a41efd614a"
          ],
          "data": "0x00000000000000000000000000000000000000000000000000000002540be400",
          "blockHash": "0x7024c9ff025f07dceed7289cd1811c2a5d58f1422a8ec0e4d94a2137663d3fcd",
          "blockNumber": "0x17359e5",
          "transactionHash": "0xc435792131e601261c59f4ea50e1150fb42561d6d928d5f32c46ad4e4924e888",
          "transactionIndex": "0x5",
          "logIndex": "0x10",
          "removed": false
        }
      ],
      "logsBloom": "0x00000000000000000000000001000000000000080000000000000000000000000100000000000000000000000000000000000000000000000000000000200000000000000000000000000000000000000000000000000000000000000000000000000000000000000000100000000000000000000000000000000000000000000000000000000000000000200000000000000000000000000000000000000040020000000000000000000000000000000000000000000000000000000000000000000000400000000000000000000000000000000000000000000000000000000010000000000000000000000000000000000000000000000000000000440000",
      "type": "0x2",
      "transactionHash": "0xc435792131e601261c59f4ea50e1150fb42561d6d928d5f32c46ad4e4924e888",
      "transactionIndex": "0x5",
      "blockHash": "0x7024c9ff025f07dceed7289cd1811c2a5d58f1422a8ec0e4d94a2137663d3fcd",
      "blockNumber": "0x17359e5",
      "gasUsed": "0x71e3",
      "effectiveGasPrice": "0xf433d",
      "from": "0xc06999313769622dad93d6d01642be9762e3b520",
      "to": "0x334f5a3ecc0c6dcea6d438a532b20dae20806bc6",
      "contractAddress": null,
      "l1BaseFeeScalar": "0x1db0",
      "l1BlobBaseFee": "0x98806356d5",
      "l1BlobBaseFeeScalar": "0xd2730",
      "l1Fee": "0x33eae311611a",
      "l1GasPrice": "0xbf2072073",
      "l1GasUsed": "0x640"
    },
    {
      "status": "0x1",
      "cumulativeGasUsed": "0x23591d",
      "logs": [
        {
          "address": "0x334f5a3ecc0c6dcea6d438a532b20dae20806bc6",
          "topics": [
            "0x8c5be1e5ebec7d5bd14f71427d1e84f3dd0314c0f7b2291e5b200ac8c7c3b925",
            "0x000000000000000000000000c06999313769622dad93d6d01642be9762e3b520",
            "0x000000000000000000000000728eae530d80e29a27074903775421a41efd614a"
          ],
          "data": "0x0000000000000000000000000000000000000000000000000000000218805c40",
          "blockHash": "0x7024c9ff025f07dceed7289cd1811c2a5d58f1422a8ec0e4d94a2137663d3fcd",
          "blockNumber": "0x17359e5",
          "transactionHash": "0x99e088975e179efb6b1163861aa80707e3e2dfd767b5a90d4e36bc9497b38dc5",
          "transactionIndex": "0x6",
          "logIndex": "0x11",
          "removed": false
        },
        {
          "address": "0x334f5a3ecc0c6dcea6d438a532b20dae20806bc6",
          "topics": [
            "0xddf252ad1be2c89b69c2b068fc378daa952ba7f163c4a11628f55a4df523b3ef",
            "0x000000000000000000000000c06999313769622dad93d6d01642be9762e3b520",
            "0x000000000000000000000000728eae530d80e29a27074903775421a41efd614a"
          ],
          "data": "0x000000000000000000000000000000000000000000000000000000003b8b87c0",
          "blockHash": "0x7024c9ff025f07dceed7289cd1811c2a5d58f1422a8ec0e4d94a2137663d3fcd",
          "blockNumber": "0x17359e5",
          "transactionHash": "0x99e088975e179efb6b1163861aa80707e3e2dfd767b5a90d4e36bc9497b38dc5",
          "transactionIndex": "0x6",
          "logIndex": "0x12",
          "removed": false
        },
        {
          "address": "0x334f5a3ecc0c6dcea6d438a532b20dae20806bc6",
          "topics": [
            "0x8c5be1e5ebec7d5bd14f71427d1e84f3dd0314c0f7b2291e5b200ac8c7c3b925",
            "0x000000000000000000000000c06999313769622dad93d6d01642be9762e3b520",
            "0x000000000000000000000000728eae530d80e29a27074903775421a41efd614a"
          ],
          "data": "0x0000000000000000000000000000000000000000000000000000000218711a00",
          "blockHash": "0x7024c9ff025f07dceed7289cd1811c2a5d58f1422a8ec0e4d94a2137663d3fcd",
          "blockNumber": "0x17359e5",
          "transactionHash": "0x99e088975e179efb6b1163861aa80707e3e2dfd767b5a90d4e36bc9497b38dc5",
          "transactionIndex": "0x6",
          "logIndex": "0x13",
          "removed": false
        },
        {
          "address": "0x334f5a3ecc0c6dcea6d438a532b20dae20806bc6",
          "topics": [
            "0xddf252ad1be2c89b69c2b068fc378daa952ba7f163c4a11628f55a4df523b3ef",
            "0x000000000000000000000000c06999313769622dad93d6d01642be9762e3b520",
            "0x000000000000000000000000c06999313769622dad93d6d01642be9762e3b520"
          ],
          "data": "0x00000000000000000000000000000000000000000000000000000000000f4240",
          "blockHash": "0x7024c9ff025f07dceed7289cd1811c2a5d58f1422a8ec0e4d94a2137663d3fcd",
          "blockNumber": "0x17359e5",
          "transactionHash": "0x99e088975e179efb6b1163861aa80707e3e2dfd767b5a90d4e36bc9497b38dc5",
          "transactionIndex": "0x6",
          "logIndex": "0x14",
          "removed": false
        },
        {
          "address": "0xa83cb2f4fa7ed1d77e60edcc4d0e99efda38a050",
          "topics": [
            "0xddf252ad1be2c89b69c2b068fc378daa952ba7f163c4a11628f55a4df523b3ef",
            "0x000000000000000000000000728eae530d80e29a27074903775421a41efd614a",
            "0x000000000000000000000000c06999313769622dad93d6d01642be9762e3b520"
          ],
          "data": "0x0000000000000000000000000000000000000000000015072d62b03f359bf2ba",
          "blockHash": "0x7024c9ff025f07dceed7289cd1811c2a5d58f1422a8ec0e4d94a2137663d3fcd",
          "blockNumber": "0x17359e5",
          "transactionHash": "0x99e088975e179efb6b1163861aa80707e3e2dfd767b5a90d4e36bc9497b38dc5",
          "transactionIndex": "0x6",
          "logIndex": "0x15",
          "removed": false
        },
        {
          "address": "0x728eae530d80e29a27074903775421a41efd614a",
          "topics": [
            "0x22f6af6e13430e3e7b6418d01e6a48c1fbce5e8cb1698901fc95134b4b1c58ad",
            "0x000000000000000000000000c06999313769622dad93d6d01642be9762e3b520"
          ],
          "data": "0x000000000000000000000000000000000000000000000000000000003b9aca000000000000000000000000000000000000000000000015072d62b03f359bf2ba0000000000000000000000000000000000000000000000000000000000000028",
          "blockHash": "0x7024c9ff025f07dceed7289cd1811c2a5d58f1422a8ec0e4d94a2137663d3fcd",
          "blockNumber": "0x17359e5",
          "transactionHash": "0x99e088975e179efb6b1163861aa80707e3e2dfd767b5a90d4e36bc9497b38dc5",
          "transactionIndex": "0x6",
          "logIndex": "0x16",
          "removed": false
        }
      ],
      "logsBloom": "0x00000000000000000000000021000000000000080000000000000000000000000100000000000000000000000000000000000004000000000000000000200000000000000000000000000008000000000000000000000200000000000000000000000000000000000000100000000000000000000000000000000010000000000000000000000000000000200001000000000000000800000000000000000040020000080000000000000000000000000000000000000000000000000000000000000002400000000000000000000000000000000000000000000040000800000010000000000000000000000000000000000000000000000000000020440000",
      "type": "0x2",
      "transactionHash": "0x99e088975e179efb6b1163861aa80707e3e2dfd767b5a90d4e36bc9497b38dc5",
      "transactionIndex": "0x6",
      "blockHash": "0x7024c9ff025f07dceed7289cd1811c2a5d58f1422a8ec0e4d94a2137663d3fcd",
      "blockNumber": "0x17359e5",
      "gasUsed": "0x16f79",
      "effectiveGasPrice": "0xf433d",
      "from": "0xc06999313769622dad93d6d01642be9762e3b520",
      "to": "0x728eae530d80e29a27074903775421a41efd614a",
      "contractAddress": null,
      "l1BaseFeeScalar": "0x1db0",
      "l1BlobBaseFee": "0x98806356d5",
      "l1BlobBaseFeeScalar": "0xd2730",
      "l1Fee": "0x33eae311611a",
      "l1GasPrice": "0xbf2072073",
      "l1GasUsed": "0x640"
    }
  ],
  "libraries": [],
  "pending": [],
  "returns": {},
  "timestamp": 1740476279,
  "chain": 11155420,
  "commit": "99a39e4"
}