{
  "transactions": [
    {
      "hash": "0x2e0c472a982f5d78fb0a6a532f742e03ad26c67e0b9dd28878e32fad93119a97",
      "transactionType": "CALL",
      "contractName": null,
      "contractAddress": "0x452387742c56993a47f35425ddcbb05000681fc6",
      "function": "approve(address,uint256)",
      "arguments": [
        "0xEed45965dd5DD2Fed4EA614fFA29cFF6CE974914",
        "1000000000"
      ],
      "transaction": {
        "from": "0xc06999313769622dad93d6d01642be9762e3b520",
        "to": "0x452387742c56993a47f35425ddcbb05000681fc6",
        "gas": "0x9d3d",
        "value": "0x0",
        "input": "0x095ea7b3000000000000000000000000eed45965dd5dd2fed4ea614ffa29cff6ce974914000000000000000000000000000000000000000000000000000000003b9aca00",
        "nonce": "0x28",
        "chainId": "0xaa37dc"
      },
      "additionalContracts": [],
      "isFixedGasLimit": false
    },
    {
      "hash": "0x693fcb03f9c19dbab054b4876f81906e30b748539561f606ffe3b31ede37caa9",
      "transactionType": "CALL",
      "contractName": null,
      "contractAddress": "0xeed45965dd5dd2fed4ea614ffa29cff6ce974914",
      "function": "buyTokens(uint256)",
      "arguments": [
        "100000000"
      ],
      "transaction": {
        "from": "0xc06999313769622dad93d6d01642be9762e3b520",
        "to": "0xeed45965dd5dd2fed4ea614ffa29cff6ce974914",
        "gas": "0x1ffb3",
        "value": "0x0",
        "input": "0x3610724e0000000000000000000000000000000000000000000000000000000005f5e100",
        "nonce": "0x29",
        "chainId": "0xaa37dc"
      },
      "additionalContracts": [],
      "isFixedGasLimit": false
    }
  ],
  "receipts": [
    {
      "status": "0x1",
      "cumulativeGasUsed": "0x1ee2fe",
      "logs": [
        {
          "address": "0x452387742c56993a47f35425ddcbb05000681fc6",
          "topics": [
            "0x8c5be1e5ebec7d5bd14f71427d1e84f3dd0314c0f7b2291e5b200ac8c7c3b925",
            "0x000000000000000000000000c06999313769622dad93d6d01642be9762e3b520",
            "0x000000000000000000000000eed45965dd5dd2fed4ea614ffa29cff6ce974914"
          ],
          "data": "0x000000000000000000000000000000000000000000000000000000003b9aca00",
          "blockHash": "0x7a8b9c09f17622a38361383284657b9c6805a9f05ea18908382f07c0fc2d7aa8",
          "blockNumber": "0x1734983",
          "transactionHash": "0x2e0c472a982f5d78fb0a6a532f742e03ad26c67e0b9dd28878e32fad93119a97",
          "transactionIndex": "0x6",
          "logIndex": "0x18",
          "removed": false
        }
      ],
      "logsBloom": "0x00000000000000000000000001000000000000000004000000000000000000000100000000000000000000000000020000000000000000000000000000200000000000000000000000000000000000000000000000000000000000000000000000800001000000000000100000400000000000000000000000000000000000000000000000000000000000000000000000000000000000000000000000000000020000000000000000000000000000010000000000000000000000000000000000000000000000000000000000000000000000000000000000000000000000000010000000000000000000000000000000000000000000000000000000000000",
      "type": "0x0",
      "transactionHash": "0x2e0c472a982f5d78fb0a6a532f742e03ad26c67e0b9dd28878e32fad93119a97",
      "transactionIndex": "0x6",
      "blockHash": "0x7a8b9c09f17622a38361383284657b9c6805a9f05ea18908382f07c0fc2d7aa8",
      "blockNumber": "0x1734983",
      "gasUsed": "0x71d7",
      "effectiveGasPrice": "0xf4344",
      "from": "0xc06999313769622dad93d6d01642be9762e3b520",
      "to": "0x452387742c56993a47f35425ddcbb05000681fc6",
      "contractAddress": null,
      "l1BaseFeeScalar": "0x1db0",
      "l1BlobBaseFee": "0x1309423560",
      "l1BlobBaseFeeScalar": "0xd2730",
      "l1Fee": "0x68c9c157b1e",
      "l1GasPrice": "0x2ef69e67f",
      "l1GasUsed": "0x640"
    },
    {
      "status": "0x1",
      "cumulativeGasUsed": "0x205575",
      "logs": [
        {
          "address": "0x452387742c56993a47f35425ddcbb05000681fc6",
          "topics": [
            "0x8c5be1e5ebec7d5bd14f71427d1e84f3dd0314c0f7b2291e5b200ac8c7c3b925",
            "0x000000000000000000000000c06999313769622dad93d6d01642be9762e3b520",
            "0x000000000000000000000000eed45965dd5dd2fed4ea614ffa29cff6ce974914"
          ],
          "data": "0x0000000000000000000000000000000000000000000000000000000035a66fa0",
          "blockHash": "0x7a8b9c09f17622a38361383284657b9c6805a9f05ea18908382f07c0fc2d7aa8",
          "blockNumber": "0x1734983",
          "transactionHash": "0x693fcb03f9c19dbab054b4876f81906e30b748539561f606ffe3b31ede37caa9",
          "transactionIndex": "0x7",
          "logIndex": "0x19",
          "removed": false
        },
        {
          "address": "0x452387742c56993a47f35425ddcbb05000681fc6",
          "topics": [
            "0xddf252ad1be2c89b69c2b068fc378daa952ba7f163c4a11628f55a4df523b3ef",
            "0x000000000000000000000000c06999313769622dad93d6d01642be9762e3b520",
            "0x000000000000000000000000eed45965dd5dd2fed4ea614ffa29cff6ce974914"
          ],
          "data": "0x0000000000000000000000000000000000000000000000000000000005f45a60",
          "blockHash": "0x7a8b9c09f17622a38361383284657b9c6805a9f05ea18908382f07c0fc2d7aa8",
          "blockNumber": "0x1734983",
          "transactionHash": "0x693fcb03f9c19dbab054b4876f81906e30b748539561f606ffe3b31ede37caa9",
          "transactionIndex": "0x7",
          "logIndex": "0x1a",
          "removed": false
        },
        {
          "address": "0x452387742c56993a47f35425ddcbb05000681fc6",
          "topics": [
            "0x8c5be1e5ebec7d5bd14f71427d1e84f3dd0314c0f7b2291e5b200ac8c7c3b925",
            "0x000000000000000000000000c06999313769622dad93d6d01642be9762e3b520",
            "0x000000000000000000000000eed45965dd5dd2fed4ea614ffa29cff6ce974914"
          ],
          "data": "0x0000000000000000000000000000000000000000000000000000000035a4e900",
          "blockHash": "0x7a8b9c09f17622a38361383284657b9c6805a9f05ea18908382f07c0fc2d7aa8",
          "blockNumber": "0x1734983",
          "transactionHash": "0x693fcb03f9c19dbab054b4876f81906e30b748539561f606ffe3b31ede37caa9",
          "transactionIndex": "0x7",
          "logIndex": "0x1b",
          "removed": false
        },
        {
          "address": "0x452387742c56993a47f35425ddcbb05000681fc6",
          "topics": [
            "0xddf252ad1be2c89b69c2b068fc378daa952ba7f163c4a11628f55a4df523b3ef",
            "0x000000000000000000000000c06999313769622dad93d6d01642be9762e3b520",
            "0x000000000000000000000000c06999313769622dad93d6d01642be9762e3b520"
          ],
          "data": "0x00000000000000000000000000000000000000000000000000000000000186a0",
          "blockHash": "0x7a8b9c09f17622a38361383284657b9c6805a9f05ea18908382f07c0fc2d7aa8",
          "blockNumber": "0x1734983",
          "transactionHash": "0x693fcb03f9c19dbab054b4876f81906e30b748539561f606ffe3b31ede37caa9",
          "transactionIndex": "0x7",
          "logIndex": "0x1c",
          "removed": false
        },
        {
          "address": "0x656e098e175c614bf14e9ce5a17736e25322920b",
          "topics": [
            "0xddf252ad1be2c89b69c2b068fc378daa952ba7f163c4a11628f55a4df523b3ef",
            "0x000000000000000000000000eed45965dd5dd2fed4ea614ffa29cff6ce974914",
            "0x000000000000000000000000c06999313769622dad93d6d01642be9762e3b520"
          ],
          "data": "0x00000000000000000000000000000000000000000000021c798b60ad14880000",
          "blockHash": "0x7a8b9c09f17622a38361383284657b9c6805a9f05ea18908382f07c0fc2d7aa8",
          "blockNumber": "0x1734983",
          "transactionHash": "0x693fcb03f9c19dbab054b4876f81906e30b748539561f606ffe3b31ede37caa9",
          "transactionIndex": "0x7",
          "logIndex": "0x1d",
          "removed": false
        }
      ],
      "logsBloom": "0x00000000000000000000000001000000000000000004000000000000000000000100000000000000000000000000020000000000000000000000000000200000000000000000000000000008000000000000000000000000000000000000000000800001000000000000100000400000000000000000000200000010000000000400002000000000000000000000000000000000000000000000000000000000020000000000000000000000000000010000000000000000000000000000000000000002000000000000000000000000000000000000000000000000000000000010000000000000000000000000000000000000000000000000000000000000",
      "type": "0x0",
      "transactionHash": "0x693fcb03f9c19dbab054b4876f81906e30b748539561f606ffe3b31ede37caa9",
      "transactionIndex": "0x7",
      "blockHash": "0x7a8b9c09f17622a38361383284657b9c6805a9f05ea18908382f07c0fc2d7aa8",
      "blockNumber": "0x1734983",
      "gasUsed": "0x17277",
      "effectiveGasPrice": "0xf4344",
      "from": "0xc06999313769622dad93d6d01642be9762e3b520",
      "to": "0xeed45965dd5dd2fed4ea614ffa29cff6ce974914",
      "contractAddress": null,
      "l1BaseFeeScalar": "0x1db0",
      "l1BlobBaseFee": "0x1309423560",
      "l1BlobBaseFeeScalar": "0xd2730",
      "l1Fee": "0x68c9c157b1e",
      "l1GasPrice": "0x2ef69e67f",
      "l1GasUsed": "0x640"
    }
  ],
  "libraries": [],
  "pending": [],
  "returns": {},
  "timestamp": 1740467891,
  "chain": 11155420,
  "commit": "ce9846d"
}