{
  "transactions": [
    {
      "hash": "0xc2c8524850f4decdb2c7157f3b7cb9e2f619c1a858281f7f07203824a45bffbb",
      "transactionType": "CALL",
      "contractName": null,
      "contractAddress": "0x741973e28394f26f75cb1a09303aab3c43180d31",
      "function": "approve(address,uint256)",
      "arguments": [
        "0x12452904BE81b20eF06EE39fA2c7c49E27456EDf",
        "10000000000"
      ],
      "transaction": {
        "from": "0xc06999313769622dad93d6d01642be9762e3b520",
        "to": "0x741973e28394f26f75cb1a09303aab3c43180d31",
        "gas": "0xa68e",
        "value": "0x0",
        "input": "0x095ea7b300000000000000000000000012452904be81b20ef06ee39fa2c7c49e27456edf00000000000000000000000000000000000000000000000000000002540be400",
        "nonce": "0x40",
        "chainId": "0xaa37dc"
      },
      "additionalContracts": [],
      "isFixedGasLimit": false
    },
    {
      "hash": "0x1dbb723986e7cdf66e9a23bd4957a1b88de23ea3d7ab47ad5bbee6d500222552",
      "transactionType": "CALL",
      "contractName": null,
      "contractAddress": "0x12452904be81b20ef06ee39fa2c7c49e27456edf",
      "function": "buyTokens(uint256)",
      "arguments": [
        "1000000"
      ],
      "transaction": {
        "from": "0xc06999313769622dad93d6d01642be9762e3b520",
        "to": "0x12452904be81b20ef06ee39fa2c7c49e27456edf",
        "gas": "0x1ffbc",
        "value": "0x0",
        "input": "0x3610724e00000000000000000000000000000000000000000000000000000000000f4240",
        "nonce": "0x41",
        "chainId": "0xaa37dc"
      },
      "additionalContracts": [],
      "isFixedGasLimit": false
    }
  ],
  "receipts": [
    {
      "status": "0x1",
      "cumulativeGasUsed": "0xb0514",
      "logs": [
        {
          "address": "0x741973e28394f26f75cb1a09303aab3c43180d31",
          "topics": [
            "0x8c5be1e5ebec7d5bd14f71427d1e84f3dd0314c0f7b2291e5b200ac8c7c3b925",
            "0x000000000000000000000000c06999313769622dad93d6d01642be9762e3b520",
            "0x00000000000000000000000012452904be81b20ef06ee39fa2c7c49e27456edf"
          ],
          "data": "0x00000000000000000000000000000000000000000000000000000002540be400",
          "blockHash": "0x5b2af703906e332c92cc3fab0ec8ab1cdb2b0da7a806f928e39f80126e6edde6",
          "blockNumber": "0x1734e23",
          "transactionHash": "0xc2c8524850f4decdb2c7157f3b7cb9e2f619c1a858281f7f07203824a45bffbb",
          "transactionIndex": "0x3",
          "logIndex": "0x4",
          "removed": false
        }
      ],
      "logsBloom": "0x00000000000000000000000001000000000000000000000000000000002000000100000000000000000000000000000000000000000040000000000000200000000000000000000000000000000000000000000000000000020000000000000000000000000000000000100000000000000000000000000000000000000000000000000000000000000000000000000000000000000000000000000000000000020000000000000000000000000000000000000000000000000000000000000000000000000000000000000000000000000000000000000000000000000000000010002000000000000000000800000000000020000000000000000000000000",
      "type": "0x2",
      "transactionHash": "0xc2c8524850f4decdb2c7157f3b7cb9e2f619c1a858281f7f07203824a45bffbb",
      "transactionIndex": "0x3",
      "blockHash": "0x5b2af703906e332c92cc3fab0ec8ab1cdb2b0da7a806f928e39f80126e6edde6",
      "blockNumber": "0x1734e23",
      "gasUsed": "0x71e3",
      "effectiveGasPrice": "0xf433e",
      "from": "0xc06999313769622dad93d6d01642be9762e3b520",
      "to": "0x741973e28394f26f75cb1a09303aab3c43180d31",
      "contractAddress": null,
      "l1BaseFeeScalar": "0x1db0",
      "l1BlobBaseFee": "0x42ddbd76a6",
      "l1BlobBaseFeeScalar": "0xd2730",
      "l1Fee": "0x16c57b66ff55",
      "l1GasPrice": "0x5656e7380",
      "l1GasUsed": "0x640"
    },
    {
      "status": "0x1",
      "cumulativeGasUsed": "0xc7792",
      "logs": [
        {
          "address": "0x741973e28394f26f75cb1a09303aab3c43180d31",
          "topics": [
            "0x8c5be1e5ebec7d5bd14f71427d1e84f3dd0314c0f7b2291e5b200ac8c7c3b925",
            "0x000000000000000000000000c06999313769622dad93d6d01642be9762e3b520",
            "0x00000000000000000000000012452904be81b20ef06ee39fa2c7c49e27456edf"
          ],
          "data": "0x0000000000000000000000000000000000000000000000000000000253fca5a8",
          "blockHash": "0x5b2af703906e332c92cc3fab0ec8ab1cdb2b0da7a806f928e39f80126e6edde6",
          "blockNumber": "0x1734e23",
          "transactionHash": "0x1dbb723986e7cdf66e9a23bd4957a1b88de23ea3d7ab47ad5bbee6d500222552",
          "transactionIndex": "0x4",
          "logIndex": "0x5",
          "removed": false
        },
        {
          "address": "0x741973e28394f26f75cb1a09303aab3c43180d31",
          "topics": [
            "0xddf252ad1be2c89b69c2b068fc378daa952ba7f163c4a11628f55a4df523b3ef",
            "0x000000000000000000000000c06999313769622dad93d6d01642be9762e3b520",
            "0x00000000000000000000000012452904be81b20ef06ee39fa2c7c49e27456edf"
          ],
          "data": "0x00000000000000000000000000000000000000000000000000000000000f3e58",
          "blockHash": "0x5b2af703906e332c92cc3fab0ec8ab1cdb2b0da7a806f928e39f80126e6edde6",
          "blockNumber": "0x1734e23",
          "transactionHash": "0x1dbb723986e7cdf66e9a23bd4957a1b88de23ea3d7ab47ad5bbee6d500222552",
          "transactionIndex": "0x4",
          "logIndex": "0x6",
          "removed": false
        },
        {
          "address": "0x741973e28394f26f75cb1a09303aab3c43180d31",
          "topics": [
            "0x8c5be1e5ebec7d5bd14f71427d1e84f3dd0314c0f7b2291e5b200ac8c7c3b925",
            "0x000000000000000000000000c06999313769622dad93d6d01642be9762e3b520",
            "0x00000000000000000000000012452904be81b20ef06ee39fa2c7c49e27456edf"
          ],
          "data": "0x0000000000000000000000000000000000000000000000000000000253fca1c0",
          "blockHash": "0x5b2af703906e332c92cc3fab0ec8ab1cdb2b0da7a806f928e39f80126e6edde6",
          "blockNumber": "0x1734e23",
          "transactionHash": "0x1dbb723986e7cdf66e9a23bd4957a1b88de23ea3d7ab47ad5bbee6d500222552",
          "transactionIndex": "0x4",
          "logIndex": "0x7",
          "removed": false
        },
        {
          "address": "0x741973e28394f26f75cb1a09303aab3c43180d31",
          "topics": [
            "0xddf252ad1be2c89b69c2b068fc378daa952ba7f163c4a11628f55a4df523b3ef",
            "0x000000000000000000000000c06999313769622dad93d6d01642be9762e3b520",
            "0x000000000000000000000000c06999313769622dad93d6d01642be9762e3b520"
          ],
          "data": "0x00000000000000000000000000000000000000000000000000000000000003e8",
          "blockHash": "0x5b2af703906e332c92cc3fab0ec8ab1cdb2b0da7a806f928e39f80126e6edde6",
          "blockNumber": "0x1734e23",
          "transactionHash": "0x1dbb723986e7cdf66e9a23bd4957a1b88de23ea3d7ab47ad5bbee6d500222552",
          "transactionIndex": "0x4",
          "logIndex": "0x8",
          "removed": false
        },
        {
          "address": "0xcec34c32ebb2ef111077b61d2c7913095bc26cd9",
          "topics": [
            "0xddf252ad1be2c89b69c2b068fc378daa952ba7f163c4a11628f55a4df523b3ef",
            "0x00000000000000000000000012452904be81b20ef06ee39fa2c7c49e27456edf",
            "0x000000000000000000000000c06999313769622dad93d6d01642be9762e3b520"
          ],
          "data": "0x000000000000000000000000000000000000000000000005612493521ce525a2",
          "blockHash": "0x5b2af703906e332c92cc3fab0ec8ab1cdb2b0da7a806f928e39f80126e6edde6",
          "blockNumber": "0x1734e23",
          "transactionHash": "0x1dbb723986e7cdf66e9a23bd4957a1b88de23ea3d7ab47ad5bbee6d500222552",
          "transactionIndex": "0x4",
          "logIndex": "0x9",
          "removed": false
        }
      ],
      "logsBloom": "0x00000000000000000000000001000000000000000000000000000000002000000100000000000000000000000000000000000000100040000000000000200000000000000000000000000008000000000000000000000000020000000000000000000000000000000000100000000000000000000000000000000010000000000000000000000000004000000000000000000000000000000000000000000000020000000080000000000000000000000000000000000000000000000000000000000002000000000000000000000000000000000000000000000000000000000010002000000000000000000800000000000020000000000000000000000000",
      "type": "0x2",
      "transactionHash": "0x1dbb723986e7cdf66e9a23bd4957a1b88de23ea3d7ab47ad5bbee6d500222552",
      "transactionIndex": "0x4",
      "blockHash": "0x5b2af703906e332c92cc3fab0ec8ab1cdb2b0da7a806f928e39f80126e6edde6",
      "blockNumber": "0x1734e23",
      "gasUsed": "0x1727e",
      "effectiveGasPrice": "0xf433e",
      "from": "0xc06999313769622dad93d6d01642be9762e3b520",
      "to": "0x12452904be81b20ef06ee39fa2c7c49e27456edf",
      "contractAddress": null,
      "l1BaseFeeScalar": "0x1db0",
      "l1BlobBaseFee": "0x42ddbd76a6",
      "l1BlobBaseFeeScalar": "0xd2730",
      "l1Fee": "0x16c57b66ff55",
      "l1GasPrice": "0x5656e7380",
      "l1GasUsed": "0x640"
    }
  ],
  "libraries": [],
  "pending": [],
  "returns": {},
  "timestamp": 1740470258,
  "chain": 11155420,
  "commit": "1a90a3b"
}