{
  "transactions": [
    {
      "hash": "0x14cc83bf0d698e099a40de64217d78437ddc90481b19470de8614db15479c144",
      "transactionType": "CALL",
      "contractName": null,
      "contractAddress": "0x334f5a3ecc0c6dcea6d438a532b20dae20806bc6",
      "function": "approve(address,uint256)",
      "arguments": [
        "0x728EAE530d80E29a27074903775421A41eFd614A",
        "10000000000"
      ],
      "transaction": {
        "from": "0xc06999313769622dad93d6d01642be9762e3b520",
        "to": "0x334f5a3ecc0c6dcea6d438a532b20dae20806bc6",
        "gas": "0xf990",
        "value": "0x0",
        "input": "0x095ea7b3000000000000000000000000728eae530d80e29a27074903775421a41efd614a00000000000000000000000000000000000000000000000000000002540be400",
        "nonce": "0x4e",
        "chainId": "0xaa37dc"
      },
      "additionalContracts": [],
      "isFixedGasLimit": false
    },
    {
      "hash": "0x28aafd268dde3e86136c5341867d3ec17745f9a85c2e07a915c5cae97b406b28",
      "transactionType": "CALL",
      "contractName": null,
      "contractAddress": "0x728eae530d80e29a27074903775421a41efd614a",
      "function": "buyTokens(uint256)",
      "arguments": [
        "1000000000"
      ],
      "transaction": {
        "from": "0xc06999313769622dad93d6d01642be9762e3b520",
        "to": "0x728eae530d80e29a27074903775421a41efd614a",
        "gas": "0x32ade",
        "value": "0x0",
        "input": "0x3610724e000000000000000000000000000000000000000000000000000000003b9aca00",
        "nonce": "0x4f",
        "chainId": "0xaa37dc"
      },
      "additionalContracts": [],
      "isFixedGasLimit": false
    }
  ],
  "receipts": [
    {
      "status": "0x1",
      "cumulativeGasUsed": "0xb5c5aa",
      "logs": [
        {
          "address": "0x334f5a3ecc0c6dcea6d438a532b20dae20806bc6",
          "topics": [
            "0x8c5be1e5ebec7d5bd14f71427d1e84f3dd0314c0f7b2291e5b200ac8c7c3b925",
            "0x000000000000000000000000c06999313769622dad93d6d01642be9762e3b520",
            "0x000000000000000000000000728eae530d80e29a27074903775421a41efd614a"
          ],
          "data": "0x00000000000000000000000000000000000000000000000000000002540be400",
          "blockHash": "0x96d22465673e37d9679d2e2436f546934d3ae500391eedcd24244d3d34c2a441",
          "blockNumber": "0x17359dd",
          "transactionHash": "0x14cc83bf0d698e099a40de64217d78437ddc90481b19470de8614db15479c144",
          "transactionIndex": "0xb",
          "logIndex": "0x21",
          "removed": false
        }
      ],
      "logsBloom": "0x00000000000000000000000001000000000000080000000000000000000000000100000000000000000000000000000000000000000000000000000000200000000000000000000000000000000000000000000000000000000000000000000000000000000000000000100000000000000000000000000000000000000000000000000000000000000000200000000000000000000000000000000000000040020000000000000000000000000000000000000000000000000000000000000000000000400000000000000000000000000000000000000000000000000000000010000000000000000000000000000000000000000000000000000000440000",
      "type": "0x2",
      "transactionHash": "0x14cc83bf0d698e099a40de64217d78437ddc90481b19470de8614db15479c144",
      "transactionIndex": "0xb",
      "blockHash": "0x96d22465673e37d9679d2e2436f546934d3ae500391eedcd24244d3d34c2a441",
      "blockNumber": "0x17359dd",
      "gasUsed": "0xb4af",
      "effectiveGasPrice": "0xf433c",
      "from": "0xc06999313769622dad93d6d01642be9762e3b520",
      "to": "0x334f5a3ecc0c6dcea6d438a532b20dae20806bc6",
      "contractAddress": null,
      "l1BaseFeeScalar": "0x1db0",
      "l1BlobBaseFee": "0x9e9ba3d45d",
      "l1BlobBaseFeeScalar": "0xd2730",
      "l1Fee": "0x35fffe9d6756",
      "l1GasPrice": "0xc7fbdb133",
      "l1GasUsed": "0x640"
    },
    {
      "status": "0x1",
      "cumulativeGasUsed": "0x15f979",
      "logs": [
        {
          "address": "0x334f5a3ecc0c6dcea6d438a532b20dae20806bc6",
          "topics": [
            "0x8c5be1e5ebec7d5bd14f71427d1e84f3dd0314c0f7b2291e5b200ac8c7c3b925",
            "0x000000000000000000000000c06999313769622dad93d6d01642be9762e3b520",
            "0x000000000000000000000000728eae530d80e29a27074903775421a41efd614a"
          ],
          "data": "0x0000000000000000000000000000000000000000000000000000000218805c40",
          "blockHash": "0xb7098cb6340f1c3dc7a15005dc84caa6113129dd93efae00fe36b5254548bb50",
          "blockNumber": "0x17359de",
          "transactionHash": "0x28aafd268dde3e86136c5341867d3ec17745f9a85c2e07a915c5cae97b406b28",
          "transactionIndex": "0x4",
          "logIndex": "0x15",
          "removed": false
        },
        {
          "address": "0x334f5a3ecc0c6dcea6d438a532b20dae20806bc6",
          "topics": [
            "0xddf252ad1be2c89b69c2b068fc378daa952ba7f163c4a11628f55a4df523b3ef",
            "0x000000000000000000000000c06999313769622dad93d6d01642be9762e3b520",
            "0x000000000000000000000000728eae530d80e29a27074903775421a41efd614a"
          ],
          "data": "0x000000000000000000000000000000000000000000000000000000003b8b87c0",
          "blockHash": "0xb7098cb6340f1c3dc7a15005dc84caa6113129dd93efae00fe36b5254548bb50",
          "blockNumber": "0x17359de",
          "transactionHash": "0x28aafd268dde3e86136c5341867d3ec17745f9a85c2e07a915c5cae97b406b28",
          "transactionIndex": "0x4",
          "logIndex": "0x16",
          "removed": false
        },
        {
          "address": "0x334f5a3ecc0c6dcea6d438a532b20dae20806bc6",
          "topics": [
            "0x8c5be1e5ebec7d5bd14f71427d1e84f3dd0314c0f7b2291e5b200ac8c7c3b925",
            "0x000000000000000000000000c06999313769622dad93d6d01642be9762e3b520",
            "0x000000000000000000000000728eae530d80e29a27074903775421a41efd614a"
          ],
          "data": "0x0000000000000000000000000000000000000000000000000000000218711a00",
          "blockHash": "0xb7098cb6340f1c3dc7a15005dc84caa6113129dd93efae00fe36b5254548bb50",
          "blockNumber": "0x17359de",
          "transactionHash": "0x28aafd268dde3e86136c5341867d3ec17745f9a85c2e07a915c5cae97b406b28",
          "transactionIndex": "0x4",
          "logIndex": "0x17",
          "removed": false
        },
        {
          "address": "0x334f5a3ecc0c6dcea6d438a532b20dae20806bc6",
          "topics": [
            "0xddf252ad1be2c89b69c2b068fc378daa952ba7f163c4a11628f55a4df523b3ef",
            "0x000000000000000000000000c06999313769622dad93d6d01642be9762e3b520",
            "0x000000000000000000000000c06999313769622dad93d6d01642be9762e3b520"
          ],
          "data": "0x00000000000000000000000000000000000000000000000000000000000f4240",
          "blockHash": "0xb7098cb6340f1c3dc7a15005dc84caa6113129dd93efae00fe36b5254548bb50",
          "blockNumber": "0x17359de",
          "transactionHash": "0x28aafd268dde3e86136c5341867d3ec17745f9a85c2e07a915c5cae97b406b28",
          "transactionIndex": "0x4",
          "logIndex": "0x18",
          "removed": false
        },
        {
          "address": "0xa83cb2f4fa7ed1d77e60edcc4d0e99efda38a050",
          "topics": [
            "0xddf252ad1be2c89b69c2b068fc378daa952ba7f163c4a11628f55a4df523b3ef",
            "0x000000000000000000000000728eae530d80e29a27074903775421a41efd614a",
            "0x000000000000000000000000c06999313769622dad93d6d01642be9762e3b520"
          ],
          "data": "0x00000000000000000000000000000000000000000000151753aa68956a400000",
          "blockHash": "0xb7098cb6340f1c3dc7a15005dc84caa6113129dd93efae00fe36b5254548bb50",
          "blockNumber": "0x17359de",
          "transactionHash": "0x28aafd268dde3e86136c5341867d3ec17745f9a85c2e07a915c5cae97b406b28",
          "transactionIndex": "0x4",
          "logIndex": "0x19",
          "removed": false
        },
        {
          "address": "0x728eae530d80e29a27074903775421a41efd614a",
          "topics": [
            "0x22f6af6e13430e3e7b6418d01e6a48c1fbce5e8cb1698901fc95134b4b1c58ad",
            "0x000000000000000000000000c06999313769622dad93d6d01642be9762e3b520"
          ],
          "data": "0x000000000000000000000000000000000000000000000000000000003b9aca0000000000000000000000000000000000000000000000151753aa68956a4000000000000000000000000000000000000000000000000000000000000000000028",
          "blockHash": "0xb7098cb6340f1c3dc7a15005dc84caa6113129dd93efae00fe36b5254548bb50",
          "blockNumber": "0x17359de",
          "transactionHash": "0x28aafd268dde3e86136c5341867d3ec17745f9a85c2e07a915c5cae97b406b28",
          "transactionIndex": "0x4",
          "logIndex": "0x1a",
          "removed": false
        }
      ],
      "logsBloom": "0x00000000000000000000000021000000000000080000000000000000000000000100000000000000000000000000000000000004000000000000000000200000000000000000000000000008000000000000000000000200000000000000000000000000000000000000100000000000000000000000000000000010000000000000000000000000000000200001000000000000000800000000000000000040020000080000000000000000000000000000000000000000000000000000000000000002400000000000000000000000000000000000000000000040000800000010000000000000000000000000000000000000000000000000000020440000",
      "type": "0x2",
      "transactionHash": "0x28aafd268dde3e86136c5341867d3ec17745f9a85c2e07a915c5cae97b406b28",
      "transactionIndex": "0x4",
      "blockHash": "0xb7098cb6340f1c3dc7a15005dc84caa6113129dd93efae00fe36b5254548bb50",
      "blockNumber": "0x17359de",
      "gasUsed": "0x22a71",
      "effectiveGasPrice": "0xf433d",
      "from": "0xc06999313769622dad93d6d01642be9762e3b520",
      "to": "0x728eae530d80e29a27074903775421a41efd614a",
      "contractAddress": null,
      "l1BaseFeeScalar": "0x1db0",
      "l1BlobBaseFee": "0x9e9ba3d45d",
      "l1BlobBaseFeeScalar": "0xd2730",
      "l1Fee": "0x35fffe9d6756",
      "l1GasPrice": "0xc7fbdb133",
      "l1GasUsed": "0x640"
    }
  ],
  "libraries": [],
  "pending": [],
  "returns": {},
  "timestamp": 1740476264,
  "chain": 11155420,
  "commit": "99a39e4"
}