{
  "transactions": [
    {
      "hash": "0x9c5a7f267002c8b37673b8ada3148fa5266383e36662302a4a5bcb77a9043245",
      "transactionType": "CALL",
      "contractName": null,
      "contractAddress": "0x741973e28394f26f75cb1a09303aab3c43180d31",
      "function": "approve(address,uint256)",
      "arguments": [
        "0x12452904BE81b20eF06EE39fA2c7c49E27456EDf",
        "10000000000"
      ],
      "transaction": {
        "from": "0xc06999313769622dad93d6d01642be9762e3b520",
        "to": "0x741973e28394f26f75cb1a09303aab3c43180d31",
        "gas": "0xa68e",
        "value": "0x0",
        "input": "0x095ea7b300000000000000000000000012452904be81b20ef06ee39fa2c7c49e27456edf00000000000000000000000000000000000000000000000000000002540be400",
        "nonce": "0x44",
        "chainId": "0xaa37dc"
      },
      "additionalContracts": [],
      "isFixedGasLimit": false
    },
    {
      "hash": "0x0c8e319db9bc1cf0e3b2214f68b01b4fae44f0d4f726f4b75acc4da9b2e40bfc",
      "transactionType": "CALL",
      "contractName": null,
      "contractAddress": "0x12452904be81b20ef06ee39fa2c7c49e27456edf",
      "function": "buyTokens(uint256)",
      "arguments": [
        "100000000"
      ],
      "transaction": {
        "from": "0xc06999313769622dad93d6d01642be9762e3b520",
        "to": "0x12452904be81b20ef06ee39fa2c7c49e27456edf",
        "gas": "0x1ffbc",
        "value": "0x0",
        "input": "0x3610724e0000000000000000000000000000000000000000000000000000000005f5e100",
        "nonce": "0x45",
        "chainId": "0xaa37dc"
      },
      "additionalContracts": [],
      "isFixedGasLimit": false
    }
  ],
  "receipts": [
    {
      "status": "0x1",
      "cumulativeGasUsed": "0x3557c1",
      "logs": [
        {
          "address": "0x741973e28394f26f75cb1a09303aab3c43180d31",
          "topics": [
            "0x8c5be1e5ebec7d5bd14f71427d1e84f3dd0314c0f7b2291e5b200ac8c7c3b925",
            "0x000000000000000000000000c06999313769622dad93d6d01642be9762e3b520",
            "0x00000000000000000000000012452904be81b20ef06ee39fa2c7c49e27456edf"
          ],
          "data": "0x00000000000000000000000000000000000000000000000000000002540be400",
          "blockHash": "0x55ec97a64630e5b4b99232226f78831509ecb25911a564c472b7dce67b5e1b49",
          "blockNumber": "0x1734e67",
          "transactionHash": "0x9c5a7f267002c8b37673b8ada3148fa5266383e36662302a4a5bcb77a9043245",
          "transactionIndex": "0x4",
          "logIndex": "0x11",
          "removed": false
        }
      ],
      "logsBloom": "0x00000000000000000000000001000000000000000000000000000000002000000100000000000000000000000000000000000000000040000000000000200000000000000000000000000000000000000000000000000000020000000000000000000000000000000000100000000000000000000000000000000000000000000000000000000000000000000000000000000000000000000000000000000000020000000000000000000000000000000000000000000000000000000000000000000000000000000000000000000000000000000000000000000000000000000010002000000000000000000800000000000020000000000000000000000000",
      "type": "0x2",
      "transactionHash": "0x9c5a7f267002c8b37673b8ada3148fa5266383e36662302a4a5bcb77a9043245",
      "transactionIndex": "0x4",
      "blockHash": "0x55ec97a64630e5b4b99232226f78831509ecb25911a564c472b7dce67b5e1b49",
      "blockNumber": "0x1734e67",
      "gasUsed": "0x71e3",
      "effectiveGasPrice": "0xf4341",
      "from": "0xc06999313769622dad93d6d01642be9762e3b520",
      "to": "0x741973e28394f26f75cb1a09303aab3c43180d31",
      "contractAddress": null,
      "l1BaseFeeScalar": "0x1db0",
      "l1BlobBaseFee": "0x34d520ab4b",
      "l1BlobBaseFeeScalar": "0xd2730",
      "l1Fee": "0x1206f97ffd9d",
      "l1GasPrice": "0x50038d5c0",
      "l1GasUsed": "0x640"
    },
    {
      "status": "0x1",
      "cumulativeGasUsed": "0x36ca3f",
      "logs": [
        {
          "address": "0x741973e28394f26f75cb1a09303aab3c43180d31",
          "topics": [
            "0x8c5be1e5ebec7d5bd14f71427d1e84f3dd0314c0f7b2291e5b200ac8c7c3b925",
            "0x000000000000000000000000c06999313769622dad93d6d01642be9762e3b520",
            "0x00000000000000000000000012452904be81b20ef06ee39fa2c7c49e27456edf"
          ],
          "data": "0x000000000000000000000000000000000000000000000000000000024e1789a0",
          "blockHash": "0x55ec97a64630e5b4b99232226f78831509ecb25911a564c472b7dce67b5e1b49",
          "blockNumber": "0x1734e67",
          "transactionHash": "0x0c8e319db9bc1cf0e3b2214f68b01b4fae44f0d4f726f4b75acc4da9b2e40bfc",
          "transactionIndex": "0x5",
          "logIndex": "0x12",
          "removed": false
        },
        {
          "address": "0x741973e28394f26f75cb1a09303aab3c43180d31",
          "topics": [
            "0xddf252ad1be2c89b69c2b068fc378daa952ba7f163c4a11628f55a4df523b3ef",
            "0x000000000000000000000000c06999313769622dad93d6d01642be9762e3b520",
            "0x00000000000000000000000012452904be81b20ef06ee39fa2c7c49e27456edf"
          ],
          "data": "0x0000000000000000000000000000000000000000000000000000000005f45a60",
          "blockHash": "0x55ec97a64630e5b4b99232226f78831509ecb25911a564c472b7dce67b5e1b49",
          "blockNumber": "0x1734e67",
          "transactionHash": "0x0c8e319db9bc1cf0e3b2214f68b01b4fae44f0d4f726f4b75acc4da9b2e40bfc",
          "transactionIndex": "0x5",
          "logIndex": "0x13",
          "removed": false
        },
        {
          "address": "0x741973e28394f26f75cb1a09303aab3c43180d31",
          "topics": [
            "0x8c5be1e5ebec7d5bd14f71427d1e84f3dd0314c0f7b2291e5b200ac8c7c3b925",
            "0x000000000000000000000000c06999313769622dad93d6d01642be9762e3b520",
            "0x00000000000000000000000012452904be81b20ef06ee39fa2c7c49e27456edf"
          ],
          "data": "0x000000000000000000000000000000000000000000000000000000024e160300",
          "blockHash": "0x55ec97a64630e5b4b99232226f78831509ecb25911a564c472b7dce67b5e1b49",
          "blockNumber": "0x1734e67",
          "transactionHash": "0x0c8e319db9bc1cf0e3b2214f68b01b4fae44f0d4f726f4b75acc4da9b2e40bfc",
          "transactionIndex": "0x5",
          "logIndex": "0x14",
          "removed": false
        },
        {
          "address": "0x741973e28394f26f75cb1a09303aab3c43180d31",
          "topics": [
            "0xddf252ad1be2c89b69c2b068fc378daa952ba7f163c4a11628f55a4df523b3ef",
            "0x000000000000000000000000c06999313769622dad93d6d01642be9762e3b520",
            "0x000000000000000000000000c06999313769622dad93d6d01642be9762e3b520"
          ],
          "data": "0x00000000000000000000000000000000000000000000000000000000000186a0",
          "blockHash": "0x55ec97a64630e5b4b99232226f78831509ecb25911a564c472b7dce67b5e1b49",
          "blockNumber": "0x1734e67",
          "transactionHash": "0x0c8e319db9bc1cf0e3b2214f68b01b4fae44f0d4f726f4b75acc4da9b2e40bfc",
          "transactionIndex": "0x5",
          "logIndex": "0x15",
          "removed": false
        },
        {
          "address": "0xcec34c32ebb2ef111077b61d2c7913095bc26cd9",
          "topics": [
            "0xddf252ad1be2c89b69c2b068fc378daa952ba7f163c4a11628f55a4df523b3ef",
            "0x00000000000000000000000012452904be81b20ef06ee39fa2c7c49e27456edf",
            "0x000000000000000000000000c06999313769622dad93d6d01642be9762e3b520"
          ],
          "data": "0x000000000000000000000000000000000000000000000219f2498c134982b36e",
          "blockHash": "0x55ec97a64630e5b4b99232226f78831509ecb25911a564c472b7dce67b5e1b49",
          "blockNumber": "0x1734e67",
          "transactionHash": "0x0c8e319db9bc1cf0e3b2214f68b01b4fae44f0d4f726f4b75acc4da9b2e40bfc",
          "transactionIndex": "0x5",
          "logIndex": "0x16",
          "removed": false
        }
      ],
      "logsBloom": "0x00000000000000000000000001000000000000000000000000000000002000000100000000000000000000000000000000000000100040000000000000200000000000000000000000000008000000000000000000000000020000000000000000000000000000000000100000000000000000000000000000000010000000000000000000000000004000000000000000000000000000000000000000000000020000000080000000000000000000000000000000000000000000000000000000000002000000000000000000000000000000000000000000000000000000000010002000000000000000000800000000000020000000000000000000000000",
      "type": "0x2",
      "transactionHash": "0x0c8e319db9bc1cf0e3b2214f68b01b4fae44f0d4f726f4b75acc4da9b2e40bfc",
      "transactionIndex": "0x5",
      "blockHash": "0x55ec97a64630e5b4b99232226f78831509ecb25911a564c472b7dce67b5e1b49",
      "blockNumber": "0x1734e67",
      "gasUsed": "0x1727e",
      "effectiveGasPrice": "0xf4341",
      "from": "0xc06999313769622dad93d6d01642be9762e3b520",
      "to": "0x12452904be81b20ef06ee39fa2c7c49e27456edf",
      "contractAddress": null,
      "l1BaseFeeScalar": "0x1db0",
      "l1BlobBaseFee": "0x34d520ab4b",
      "l1BlobBaseFeeScalar": "0xd2730",
      "l1Fee": "0x1206f97ffd9d",
      "l1GasPrice": "0x50038d5c0",
      "l1GasUsed": "0x640"
    }
  ],
  "libraries": [],
  "pending": [],
  "returns": {},
  "timestamp": 1740470395,
  "chain": 11155420,
  "commit": "1a90a3b"
}