{
  "transactions": [
    {
      "hash": "0x0eeada6bf881378f70234f3997adf8df451565aa00841bf8f4d0e01878501898",
      "transactionType": "CALL",
      "contractName": null,
      "contractAddress": "0x452387742c56993a47f35425ddcbb05000681fc6",
      "function": "approve(address,uint256)",
      "arguments": [
        "0xEed45965dd5DD2Fed4EA614fFA29cFF6CE974914",
        "1000000000"
      ],
      "transaction": {
        "from": "0xc06999313769622dad93d6d01642be9762e3b520",
        "to": "0x452387742c56993a47f35425ddcbb05000681fc6",
        "gas": "0x9d3d",
        "value": "0x0",
        "input": "0x095ea7b3000000000000000000000000eed45965dd5dd2fed4ea614ffa29cff6ce974914000000000000000000000000000000000000000000000000000000003b9aca00",
        "nonce": "0x2a",
        "chainId": "0xaa37dc"
      },
      "additionalContracts": [],
      "isFixedGasLimit": false
    },
    {
      "hash": "0xd9266c7fee76d77cbadc88bbaae17e99818437f303c9b021ebad1547ee1f87f5",
      "transactionType": "CALL",
      "contractName": null,
      "contractAddress": "0xeed45965dd5dd2fed4ea614ffa29cff6ce974914",
      "function": "buyTokens(uint256)",
      "arguments": [
        "1000000000"
      ],
      "transaction": {
        "from": "0xc06999313769622dad93d6d01642be9762e3b520",
        "to": "0xeed45965dd5dd2fed4ea614ffa29cff6ce974914",
        "gas": "0x1e5cd",
        "value": "0x0",
        "input": "0x3610724e000000000000000000000000000000000000000000000000000000003b9aca00",
        "nonce": "0x2b",
        "chainId": "0xaa37dc"
      },
      "additionalContracts": [],
      "isFixedGasLimit": false
    }
  ],
  "receipts": [
    {
      "status": "0x1",
      "cumulativeGasUsed": "0x10d924",
      "logs": [
        {
          "address": "0x452387742c56993a47f35425ddcbb05000681fc6",
          "topics": [
            "0x8c5be1e5ebec7d5bd14f71427d1e84f3dd0314c0f7b2291e5b200ac8c7c3b925",
            "0x000000000000000000000000c06999313769622dad93d6d01642be9762e3b520",
            "0x000000000000000000000000eed45965dd5dd2fed4ea614ffa29cff6ce974914"
          ],
          "data": "0x000000000000000000000000000000000000000000000000000000003b9aca00",
          "blockHash": "0xce1ad3332b357b16a13bdc9143ef83f89770a6cf67d1a1db9982dec80341b89e",
          "blockNumber": "0x17349b0",
          "transactionHash": "0x0eeada6bf881378f70234f3997adf8df451565aa00841bf8f4d0e01878501898",
          "transactionIndex": "0x5",
          "logIndex": "0xc",
          "removed": false
        }
      ],
      "logsBloom": "0x00000000000000000000000001000000000000000004000000000000000000000100000000000000000000000000020000000000000000000000000000200000000000000000000000000000000000000000000000000000000000000000000000800001000000000000100000400000000000000000000000000000000000000000000000000000000000000000000000000000000000000000000000000000020000000000000000000000000000010000000000000000000000000000000000000000000000000000000000000000000000000000000000000000000000000010000000000000000000000000000000000000000000000000000000000000",
      "type": "0x0",
      "transactionHash": "0x0eeada6bf881378f70234f3997adf8df451565aa00841bf8f4d0e01878501898",
      "transactionIndex": "0x5",
      "blockHash": "0xce1ad3332b357b16a13bdc9143ef83f89770a6cf67d1a1db9982dec80341b89e",
      "blockNumber": "0x17349b0",
      "gasUsed": "0x71d7",
      "effectiveGasPrice": "0xf434c",
      "from": "0xc06999313769622dad93d6d01642be9762e3b520",
      "to": "0x452387742c56993a47f35425ddcbb05000681fc6",
      "contractAddress": null,
      "l1BaseFeeScalar": "0x1db0",
      "l1BlobBaseFee": "0x13cc64ab25",
      "l1BlobBaseFeeScalar": "0xd2730",
      "l1Fee": "0x6cdf85fb869",
      "l1GasPrice": "0x2e826ac0f",
      "l1GasUsed": "0x640"
    },
    {
      "status": "0x1",
      "cumulativeGasUsed": "0x1238db",
      "logs": [
        {
          "address": "0x452387742c56993a47f35425ddcbb05000681fc6",
          "topics": [
            "0x8c5be1e5ebec7d5bd14f71427d1e84f3dd0314c0f7b2291e5b200ac8c7c3b925",
            "0x000000000000000000000000c06999313769622dad93d6d01642be9762e3b520",
            "0x000000000000000000000000eed45965dd5dd2fed4ea614ffa29cff6ce974914"
          ],
          "data": "0x00000000000000000000000000000000000000000000000000000000000f4240",
          "blockHash": "0xce1ad3332b357b16a13bdc9143ef83f89770a6cf67d1a1db9982dec80341b89e",
          "blockNumber": "0x17349b0",
          "transactionHash": "0xd9266c7fee76d77cbadc88bbaae17e99818437f303c9b021ebad1547ee1f87f5",
          "transactionIndex": "0x6",
          "logIndex": "0xd",
          "removed": false
        },
        {
          "address": "0x452387742c56993a47f35425ddcbb05000681fc6",
          "topics": [
            "0xddf252ad1be2c89b69c2b068fc378daa952ba7f163c4a11628f55a4df523b3ef",
            "0x000000000000000000000000c06999313769622dad93d6d01642be9762e3b520",
            "0x000000000000000000000000eed45965dd5dd2fed4ea614ffa29cff6ce974914"
          ],
          "data": "0x000000000000000000000000000000000000000000000000000000003b8b87c0",
          "blockHash": "0xce1ad3332b357b16a13bdc9143ef83f89770a6cf67d1a1db9982dec80341b89e",
          "blockNumber": "0x17349b0",
          "transactionHash": "0xd9266c7fee76d77cbadc88bbaae17e99818437f303c9b021ebad1547ee1f87f5",
          "transactionIndex": "0x6",
          "logIndex": "0xe",
          "removed": false
        },
        {
          "address": "0x452387742c56993a47f35425ddcbb05000681fc6",
          "topics": [
            "0x8c5be1e5ebec7d5bd14f71427d1e84f3dd0314c0f7b2291e5b200ac8c7c3b925",
            "0x000000000000000000000000c06999313769622dad93d6d01642be9762e3b520",
            "0x000000000000000000000000eed45965dd5dd2fed4ea614ffa29cff6ce974914"
          ],
          "data": "0x0000000000000000000000000000000000000000000000000000000000000000",
          "blockHash": "0xce1ad3332b357b16a13bdc9143ef83f89770a6cf67d1a1db9982dec80341b89e",
          "blockNumber": "0x17349b0",
          "transactionHash": "0xd9266c7fee76d77cbadc88bbaae17e99818437f303c9b021ebad1547ee1f87f5",
          "transactionIndex": "0x6",
          "logIndex": "0xf",
          "removed": false
        },
        {
          "address": "0x452387742c56993a47f35425ddcbb05000681fc6",
          "topics": [
            "0xddf252ad1be2c89b69c2b068fc378daa952ba7f163c4a11628f55a4df523b3ef",
            "0x000000000000000000000000c06999313769622dad93d6d01642be9762e3b520",
            "0x000000000000000000000000c06999313769622dad93d6d01642be9762e3b520"
          ],
          "data": "0x00000000000000000000000000000000000000000000000000000000000f4240",
          "blockHash": "0xce1ad3332b357b16a13bdc9143ef83f89770a6cf67d1a1db9982dec80341b89e",
          "blockNumber": "0x17349b0",
          "transactionHash": "0xd9266c7fee76d77cbadc88bbaae17e99818437f303c9b021ebad1547ee1f87f5",
          "transactionIndex": "0x6",
          "logIndex": "0x10",
          "removed": false
        },
        {
          "address": "0x656e098e175c614bf14e9ce5a17736e25322920b",
          "topics": [
            "0xddf252ad1be2c89b69c2b068fc378daa952ba7f163c4a11628f55a4df523b3ef",
            "0x000000000000000000000000eed45965dd5dd2fed4ea614ffa29cff6ce974914",
            "0x000000000000000000000000c06999313769622dad93d6d01642be9762e3b520"
          ],
          "data": "0x00000000000000000000000000000000000000000000151cbf71c6c2cd500000",
          "blockHash": "0xce1ad3332b357b16a13bdc9143ef83f89770a6cf67d1a1db9982dec80341b89e",
          "blockNumber": "0x17349b0",
          "transactionHash": "0xd9266c7fee76d77cbadc88bbaae17e99818437f303c9b021ebad1547ee1f87f5",
          "transactionIndex": "0x6",
          "logIndex": "0x11",
          "removed": false
        }
      ],
      "logsBloom": "0x00000000000000000000000001000000000000000004000000000000000000000100000000000000000000000000020000000000000000000000000000200000000000000000000000000008000000000000000000000000000000000000000000800001000000000000100000400000000000000000000200000010000000000400002000000000000000000000000000000000000000000000000000000000020000000000000000000000000000010000000000000000000000000000000000000002000000000000000000000000000000000000000000000000000000000010000000000000000000000000000000000000000000000000000000000000",
      "type": "0x0",
      "transactionHash": "0xd9266c7fee76d77cbadc88bbaae17e99818437f303c9b021ebad1547ee1f87f5",
      "transactionIndex": "0x6",
      "blockHash": "0xce1ad3332b357b16a13bdc9143ef83f89770a6cf67d1a1db9982dec80341b89e",
      "blockNumber": "0x17349b0",
      "gasUsed": "0x15fb7",
      "effectiveGasPrice": "0xf434c",
      "from": "0xc06999313769622dad93d6d01642be9762e3b520",
      "to": "0xeed45965dd5dd2fed4ea614ffa29cff6ce974914",
      "contractAddress": null,
      "l1BaseFeeScalar": "0x1db0",
      "l1BlobBaseFee": "0x13cc64ab25",
      "l1BlobBaseFeeScalar": "0xd2730",
      "l1Fee": "0x6cdf85fb869",
      "l1GasPrice": "0x2e826ac0f",
      "l1GasUsed": "0x640"
    }
  ],
  "libraries": [],
  "pending": [],
  "returns": {},
  "timestamp": 1740467980,
  "chain": 11155420,
  "commit": "ce9846d"
}