{
  "transactions": [
    {
      "hash": "0xf2c1d7c86d6f9ac95a3158d49d0c4836f7c55cc0bfc7b186bd3bfb00ea9c5e15",
      "transactionType": "CALL",
      "contractName": null,
      "contractAddress": "0x452387742c56993a47f35425ddcbb05000681fc6",
      "function": "approve(address,uint256)",
      "arguments": [
        "0xEed45965dd5DD2Fed4EA614fFA29cFF6CE974914",
        "1000000000"
      ],
      "transaction": {
        "from": "0xc06999313769622dad93d6d01642be9762e3b520",
        "to": "0x452387742c56993a47f35425ddcbb05000681fc6",
        "gas": "0x1082d",
        "value": "0x0",
        "input": "0x095ea7b3000000000000000000000000eed45965dd5dd2fed4ea614ffa29cff6ce974914000000000000000000000000000000000000000000000000000000003b9aca00",
        "nonce": "0x24",
        "chainId": "0xaa37dc"
      },
      "additionalContracts": [],
      "isFixedGasLimit": false
    },
    {
      "hash": "0xc63dcfc68d6394199eff9599ec73a1e70f580a49866dc4b1cfa4bd2df2b48cae",
      "transactionType": "CALL",
      "contractName": null,
      "contractAddress": "0xeed45965dd5dd2fed4ea614ffa29cff6ce974914",
      "function": "buyTokens(uint256)",
      "arguments": [
        "100000000"
      ],
      "transaction": {
        "from": "0xc06999313769622dad93d6d01642be9762e3b520",
        "to": "0xeed45965dd5dd2fed4ea614ffa29cff6ce974914",
        "gas": "0x342df",
        "value": "0x0",
        "input": "0x3610724e0000000000000000000000000000000000000000000000000000000005f5e100",
        "nonce": "0x25",
        "chainId": "0xaa37dc"
      },
      "additionalContracts": [],
      "isFixedGasLimit": false
    }
  ],
  "receipts": [
    {
      "status": "0x1",
      "cumulativeGasUsed": "0xa39a5",
      "logs": [
        {
          "address": "0x452387742c56993a47f35425ddcbb05000681fc6",
          "topics": [
            "0x8c5be1e5ebec7d5bd14f71427d1e84f3dd0314c0f7b2291e5b200ac8c7c3b925",
            "0x000000000000000000000000c06999313769622dad93d6d01642be9762e3b520",
            "0x000000000000000000000000eed45965dd5dd2fed4ea614ffa29cff6ce974914"
          ],
          "data": "0x000000000000000000000000000000000000000000000000000000003b9aca00",
          "blockHash": "0x6585d25830a2dbb61028f2a9f4e65d9e483d8adf95d456e0032714bb4ec5a5e2",
          "blockNumber": "0x1734904",
          "transactionHash": "0xf2c1d7c86d6f9ac95a3158d49d0c4836f7c55cc0bfc7b186bd3bfb00ea9c5e15",
          "transactionIndex": "0x6",
          "logIndex": "0x10",
          "removed": false
        }
      ],
      "logsBloom": "0x00000000000000000000000001000000000000000004000000000000000000000100000000000000000000000000020000000000000000000000000000200000000000000000000000000000000000000000000000000000000000000000000000800001000000000000100000400000000000000000000000000000000000000000000000000000000000000000000000000000000000000000000000000000020000000000000000000000000000010000000000000000000000000000000000000000000000000000000000000000000000000000000000000000000000000010000000000000000000000000000000000000000000000000000000000000",
      "type": "0x0",
      "transactionHash": "0xf2c1d7c86d6f9ac95a3158d49d0c4836f7c55cc0bfc7b186bd3bfb00ea9c5e15",
      "transactionIndex": "0x6",
      "blockHash": "0x6585d25830a2dbb61028f2a9f4e65d9e483d8adf95d456e0032714bb4ec5a5e2",
      "blockNumber": "0x1734904",
      "gasUsed": "0xb4a3",
      "effectiveGasPrice": "0xf4340",
      "from": "0xc06999313769622dad93d6d01642be9762e3b520",
      "to": "0x452387742c56993a47f35425ddcbb05000681fc6",
      "contractAddress": null,
      "l1BaseFeeScalar": "0x1db0",
      "l1BlobBaseFee": "0xafc9915b7",
      "l1BlobBaseFeeScalar": "0xd2730",
      "l1Fee": "0x3d3a33e2de7",
      "l1GasPrice": "0x2adf63d36",
      "l1GasUsed": "0x640"
    },
    {
      "status": "0x1",
      "cumulativeGasUsed": "0xc7480",
      "logs": [
        {
          "address": "0x452387742c56993a47f35425ddcbb05000681fc6",
          "topics": [
            "0x8c5be1e5ebec7d5bd14f71427d1e84f3dd0314c0f7b2291e5b200ac8c7c3b925",
            "0x000000000000000000000000c06999313769622dad93d6d01642be9762e3b520",
            "0x000000000000000000000000eed45965dd5dd2fed4ea614ffa29cff6ce974914"
          ],
          "data": "0x0000000000000000000000000000000000000000000000000000000035a66fa0",
          "blockHash": "0x6585d25830a2dbb61028f2a9f4e65d9e483d8adf95d456e0032714bb4ec5a5e2",
          "blockNumber": "0x1734904",
          "transactionHash": "0xc63dcfc68d6394199eff9599ec73a1e70f580a49866dc4b1cfa4bd2df2b48cae",
          "transactionIndex": "0x7",
          "logIndex": "0x11",
          "removed": false
        },
        {
          "address": "0x452387742c56993a47f35425ddcbb05000681fc6",
          "topics": [
            "0xddf252ad1be2c89b69c2b068fc378daa952ba7f163c4a11628f55a4df523b3ef",
            "0x000000000000000000000000c06999313769622dad93d6d01642be9762e3b520",
            "0x000000000000000000000000eed45965dd5dd2fed4ea614ffa29cff6ce974914"
          ],
          "data": "0x0000000000000000000000000000000000000000000000000000000005f45a60",
          "blockHash": "0x6585d25830a2dbb61028f2a9f4e65d9e483d8adf95d456e0032714bb4ec5a5e2",
          "blockNumber": "0x1734904",
          "transactionHash": "0xc63dcfc68d6394199eff9599ec73a1e70f580a49866dc4b1cfa4bd2df2b48cae",
          "transactionIndex": "0x7",
          "logIndex": "0x12",
          "removed": false
        },
        {
          "address": "0x452387742c56993a47f35425ddcbb05000681fc6",
          "topics": [
            "0x8c5be1e5ebec7d5bd14f71427d1e84f3dd0314c0f7b2291e5b200ac8c7c3b925",
            "0x000000000000000000000000c06999313769622dad93d6d01642be9762e3b520",
            "0x000000000000000000000000eed45965dd5dd2fed4ea614ffa29cff6ce974914"
          ],
          "data": "0x0000000000000000000000000000000000000000000000000000000035a4e900",
          "blockHash": "0x6585d25830a2dbb61028f2a9f4e65d9e483d8adf95d456e0032714bb4ec5a5e2",
          "blockNumber": "0x1734904",
          "transactionHash": "0xc63dcfc68d6394199eff9599ec73a1e70f580a49866dc4b1cfa4bd2df2b48cae",
          "transactionIndex": "0x7",
          "logIndex": "0x13",
          "removed": false
        },
        {
          "address": "0x452387742c56993a47f35425ddcbb05000681fc6",
          "topics": [
            "0xddf252ad1be2c89b69c2b068fc378daa952ba7f163c4a11628f55a4df523b3ef",
            "0x000000000000000000000000c06999313769622dad93d6d01642be9762e3b520",
            "0x000000000000000000000000c06999313769622dad93d6d01642be9762e3b520"
          ],
          "data": "0x00000000000000000000000000000000000000000000000000000000000186a0",
          "blockHash": "0x6585d25830a2dbb61028f2a9f4e65d9e483d8adf95d456e0032714bb4ec5a5e2",
          "blockNumber": "0x1734904",
          "transactionHash": "0xc63dcfc68d6394199eff9599ec73a1e70f580a49866dc4b1cfa4bd2df2b48cae",
          "transactionIndex": "0x7",
          "logIndex": "0x14",
          "removed": false
        },
        {
          "address": "0x656e098e175c614bf14e9ce5a17736e25322920b",
          "topics": [
            "0xddf252ad1be2c89b69c2b068fc378daa952ba7f163c4a11628f55a4df523b3ef",
            "0x000000000000000000000000eed45965dd5dd2fed4ea614ffa29cff6ce974914",
            "0x000000000000000000000000c06999313769622dad93d6d01642be9762e3b520"
          ],
          "data": "0x00000000000000000000000000000000000000000000021c798b60ad14880000",
          "blockHash": "0x6585d25830a2dbb61028f2a9f4e65d9e483d8adf95d456e0032714bb4ec5a5e2",
          "blockNumber": "0x1734904",
          "transactionHash": "0xc63dcfc68d6394199eff9599ec73a1e70f580a49866dc4b1cfa4bd2df2b48cae",
          "transactionIndex": "0x7",
          "logIndex": "0x15",
          "removed": false
        }
      ],
      "logsBloom": "0x00000000000000000000000001000000000000000004000000000000000000000100000000000000000000000000020000000000000000000000000000200000000000000000000000000008000000000000000000000000000000000000000000800001000000000000100000400000000000000000000200000010000000000400002000000000000000000000000000000000000000000000000000000000020000000000000000000000000000010000000000000000000000000000000000000002000000000000000000000000000000000000000000000000000000000010000000000000000000000000000000000000000000000000000000000000",
      "type": "0x0",
      "transactionHash": "0xc63dcfc68d6394199eff9599ec73a1e70f580a49866dc4b1cfa4bd2df2b48cae",
      "transactionIndex": "0x7",
      "blockHash": "0x6585d25830a2dbb61028f2a9f4e65d9e483d8adf95d456e0032714bb4ec5a5e2",
      "blockNumber": "0x1734904",
      "gasUsed": "0x23adb",
      "effectiveGasPrice": "0xf4340",
      "from": "0xc06999313769622dad93d6d01642be9762e3b520",
      "to": "0xeed45965dd5dd2fed4ea614ffa29cff6ce974914",
      "contractAddress": null,
      "l1BaseFeeScalar": "0x1db0",
      "l1BlobBaseFee": "0xafc9915b7",
      "l1BlobBaseFeeScalar": "0xd2730",
      "l1Fee": "0x3d3a33e2de7",
      "l1GasPrice": "0x2adf63d36",
      "l1GasUsed": "0x640"
    }
  ],
  "libraries": [],
  "pending": [],
  "returns": {},
  "timestamp": 1740467637,
  "chain": 11155420,
  "commit": "ce9846d"
}