{
  "transactions": [
    {
      "hash": "0xc517e6b4246f676714d25cf143627d9719e9dae5a15b3646d9d02a9a366f728f",
      "transactionType": "CALL",
      "contractName": null,
      "contractAddress": "0x334f5a3ecc0c6dcea6d438a532b20dae20806bc6",
      "function": "approve(address,uint256)",
      "arguments": [
        "0x728EAE530d80E29a27074903775421A41eFd614A",
        "10000000000"
      ],
      "transaction": {
        "from": "0xc06999313769622dad93d6d01642be9762e3b520",
        "to": "0x334f5a3ecc0c6dcea6d438a532b20dae20806bc6",
        "gas": "0xa68e",
        "value": "0x0",
        "input": "0x095ea7b3000000000000000000000000728eae530d80e29a27074903775421a41efd614a00000000000000000000000000000000000000000000000000000002540be400",
        "nonce": "0x56",
        "chainId": "0xaa37dc"
      },
      "additionalContracts": [],
      "isFixedGasLimit": false
    },
    {
      "hash": "0x53d96fa52e1a51660316db4e6374b72293b6a084052992aa0b5eae8fb925e305",
      "transactionType": "CALL",
      "contractName": null,
      "contractAddress": "0x728eae530d80e29a27074903775421a41efd614a",
      "function": "buyTokens(uint256)",
      "arguments": [
        "1000000000"
      ],
      "transaction": {
        "from": "0xc06999313769622dad93d6d01642be9762e3b520",
        "to": "0x728eae530d80e29a27074903775421a41efd614a",
        "gas": "0x2196d",
        "value": "0x0",
        "input": "0x3610724e000000000000000000000000000000000000000000000000000000003b9aca00",
        "nonce": "0x57",
        "chainId": "0xaa37dc"
      },
      "additionalContracts": [],
      "isFixedGasLimit": false
    }
  ],
  "receipts": [
    {
      "status": "0x1",
      "cumulativeGasUsed": "0x24b274",
      "logs": [
        {
          "address": "0x334f5a3ecc0c6dcea6d438a532b20dae20806bc6",
          "topics": [
            "0x8c5be1e5ebec7d5bd14f71427d1e84f3dd0314c0f7b2291e5b200ac8c7c3b925",
            "0x000000000000000000000000c06999313769622dad93d6d01642be9762e3b520",
            "0x000000000000000000000000728eae530d80e29a27074903775421a41efd614a"
          ],
          "data": "0x00000000000000000000000000000000000000000000000000000002540be400",
          "blockHash": "0x5a176e496ba586d801da7e6ed88866b12c29d1933923fcad7cacc092cfb0d52d",
          "blockNumber": "0x1735af2",
          "transactionHash": "0xc517e6b4246f676714d25cf143627d9719e9dae5a15b3646d9d02a9a366f728f",
          "transactionIndex": "0xa",
          "logIndex": "0x1f",
          "removed": false
        }
      ],
      "logsBloom": "0x00000000000000000000000001000000000000080000000000000000000000000100000000000000000000000000000000000000000000000000000000200000000000000000000000000000000000000000000000000000000000000000000000000000000000000000100000000000000000000000000000000000000000000000000000000000000000200000000000000000000000000000000000000040020000000000000000000000000000000000000000000000000000000000000000000000400000000000000000000000000000000000000000000000000000000010000000000000000000000000000000000000000000000000000000440000",
      "type": "0x2",
      "transactionHash": "0xc517e6b4246f676714d25cf143627d9719e9dae5a15b3646d9d02a9a366f728f",
      "transactionIndex": "0xa",
      "blockHash": "0x5a176e496ba586d801da7e6ed88866b12c29d1933923fcad7cacc092cfb0d52d",
      "blockNumber": "0x1735af2",
      "gasUsed": "0x71e3",
      "effectiveGasPrice": "0xf433d",
      "from": "0xc06999313769622dad93d6d01642be9762e3b520",
      "to": "0x334f5a3ecc0c6dcea6d438a532b20dae20806bc6",
      "contractAddress": null,
      "l1BaseFeeScalar": "0x1db0",
      "l1BlobBaseFee": "0x5f34b882cd",
      "l1BlobBaseFeeScalar": "0xd2730",
      "l1Fee": "0x20b85a6a4f6b",
      "l1GasPrice": "0xdf28cc74f",
      "l1GasUsed": "0x640"
    },
    {
      "status": "0x1",
      "cumulativeGasUsed": "0x74eacd",
      "logs": [
        {
          "address": "0x334f5a3ecc0c6dcea6d438a532b20dae20806bc6",
          "topics": [
            "0x8c5be1e5ebec7d5bd14f71427d1e84f3dd0314c0f7b2291e5b200ac8c7c3b925",
            "0x000000000000000000000000c06999313769622dad93d6d01642be9762e3b520",
            "0x000000000000000000000000728eae530d80e29a27074903775421a41efd614a"
          ],
          "data": "0x0000000000000000000000000000000000000000000000000000000218805c40",
          "blockHash": "0x5a176e496ba586d801da7e6ed88866b12c29d1933923fcad7cacc092cfb0d52d",
          "blockNumber": "0x1735af2",
          "transactionHash": "0x53d96fa52e1a51660316db4e6374b72293b6a084052992aa0b5eae8fb925e305",
          "transactionIndex": "0xd",
          "logIndex": "0x28",
          "removed": false
        },
        {
          "address": "0x334f5a3ecc0c6dcea6d438a532b20dae20806bc6",
          "topics": [
            "0xddf252ad1be2c89b69c2b068fc378daa952ba7f163c4a11628f55a4df523b3ef",
            "0x000000000000000000000000c06999313769622dad93d6d01642be9762e3b520",
            "0x000000000000000000000000728eae530d80e29a27074903775421a41efd614a"
          ],
          "data": "0x000000000000000000000000000000000000000000000000000000003b8b87c0",
          "blockHash": "0x5a176e496ba586d801da7e6ed88866b12c29d1933923fcad7cacc092cfb0d52d",
          "blockNumber": "0x1735af2",
          "transactionHash": "0x53d96fa52e1a51660316db4e6374b72293b6a084052992aa0b5eae8fb925e305",
          "transactionIndex": "0xd",
          "logIndex": "0x29",
          "removed": false
        },
        {
          "address": "0x334f5a3ecc0c6dcea6d438a532b20dae20806bc6",
          "topics": [
            "0x8c5be1e5ebec7d5bd14f71427d1e84f3dd0314c0f7b2291e5b200ac8c7c3b925",
            "0x000000000000000000000000c06999313769622dad93d6d01642be9762e3b520",
            "0x000000000000000000000000728eae530d80e29a27074903775421a41efd614a"
          ],
          "data": "0x0000000000000000000000000000000000000000000000000000000218711a00",
          "blockHash": "0x5a176e496ba586d801da7e6ed88866b12c29d1933923fcad7cacc092cfb0d52d",
          "blockNumber": "0x1735af2",
          "transactionHash": "0x53d96fa52e1a51660316db4e6374b72293b6a084052992aa0b5eae8fb925e305",
          "transactionIndex": "0xd",
          "logIndex": "0x2a",
          "removed": false
        },
        {
          "address": "0x334f5a3ecc0c6dcea6d438a532b20dae20806bc6",
          "topics": [
            "0xddf252ad1be2c89b69c2b068fc378daa952ba7f163c4a11628f55a4df523b3ef",
            "0x000000000000000000000000c06999313769622dad93d6d01642be9762e3b520",
            "0x000000000000000000000000c06999313769622dad93d6d01642be9762e3b520"
          ],
          "data": "0x00000000000000000000000000000000000000000000000000000000000f4240",
          "blockHash": "0x5a176e496ba586d801da7e6ed88866b12c29d1933923fcad7cacc092cfb0d52d",
          "blockNumber": "0x1735af2",
          "transactionHash": "0x53d96fa52e1a51660316db4e6374b72293b6a084052992aa0b5eae8fb925e305",
          "transactionIndex": "0xd",
          "logIndex": "0x2b",
          "removed": false
        },
        {
          "address": "0xa83cb2f4fa7ed1d77e60edcc4d0e99efda38a050",
          "topics": [
            "0xddf252ad1be2c89b69c2b068fc378daa952ba7f163c4a11628f55a4df523b3ef",
            "0x000000000000000000000000728eae530d80e29a27074903775421a41efd614a",
            "0x000000000000000000000000c06999313769622dad93d6d01642be9762e3b520"
          ],
          "data": "0x0000000000000000000000000000000000000000000014f9424bc6b3f25057fb",
          "blockHash": "0x5a176e496ba586d801da7e6ed88866b12c29d1933923fcad7cacc092cfb0d52d",
          "blockNumber": "0x1735af2",
          "transactionHash": "0x53d96fa52e1a51660316db4e6374b72293b6a084052992aa0b5eae8fb925e305",
          "transactionIndex": "0xd",
          "logIndex": "0x2c",
          "removed": false
        },
        {
          "address": "0x728eae530d80e29a27074903775421a41efd614a",
          "topics": [
            "0x22f6af6e13430e3e7b6418d01e6a48c1fbce5e8cb1698901fc95134b4b1c58ad",
            "0x000000000000000000000000c06999313769622dad93d6d01642be9762e3b520"
          ],
          "data": "0x000000000000000000000000000000000000000000000000000000003b9aca000000000000000000000000000000000000000000000014f9424bc6b3f25057fb0000000000000000000000000000000000000000000000000000000000000028",
          "blockHash": "0x5a176e496ba586d801da7e6ed88866b12c29d1933923fcad7cacc092cfb0d52d",
          "blockNumber": "0x1735af2",
          "transactionHash": "0x53d96fa52e1a51660316db4e6374b72293b6a084052992aa0b5eae8fb925e305",
          "transactionIndex": "0xd",
          "logIndex": "0x2d",
          "removed": false
        }
      ],
      "logsBloom": "0x00000000000000000000000021000000000000080000000000000000000000000100000000000000000000000000000000000004000000000000000000200000000000000000000000000008000000000000000000000200000000000000000000000000000000000000100000000000000000000000000000000010000000000000000000000000000000200001000000000000000800000000000000000040020000080000000000000000000000000000000000000000000000000000000000000002400000000000000000000000000000000000000000000040000800000010000000000000000000000000000000000000000000000000000020440000",
      "type": "0x2",
      "transactionHash": "0x53d96fa52e1a51660316db4e6374b72293b6a084052992aa0b5eae8fb925e305",
      "transactionIndex": "0xd",
      "blockHash": "0x5a176e496ba586d801da7e6ed88866b12c29d1933923fcad7cacc092cfb0d52d",
      "blockNumber": "0x1735af2",
      "gasUsed": "0x16f79",
      "effectiveGasPrice": "0xf433d",
      "from": "0xc06999313769622dad93d6d01642be9762e3b520",
      "to": "0x728eae530d80e29a27074903775421a41efd614a",
      "contractAddress": null,
      "l1BaseFeeScalar": "0x1db0",
      "l1BlobBaseFee": "0x5f34b882cd",
      "l1BlobBaseFeeScalar": "0xd2730",
      "l1Fee": "0x20b85a6a4f6b",
      "l1GasPrice": "0xdf28cc74f",
      "l1GasUsed": "0x640"
    }
  ],
  "libraries": [],
  "pending": [],
  "returns": {},
  "timestamp": 1740476817,
  "chain": 11155420,
  "commit": "99a39e4"
}