{
  "transactions": [
    {
      "hash": "0x02f14c40f9ef7b1bf20be80b6d75064aeb20d1c9f9195fd98446171fc6d6f9b2",
      "transactionType": "CALL",
      "contractName": null,
      "contractAddress": "0x452387742c56993a47f35425ddcbb05000681fc6",
      "function": "approve(address,uint256)",
      "arguments": [
        "0xEed45965dd5DD2Fed4EA614fFA29cFF6CE974914",
        "1000000000"
      ],
      "transaction": {
        "from": "0xc06999313769622dad93d6d01642be9762e3b520",
        "to": "0x452387742c56993a47f35425ddcbb05000681fc6",
        "gas": "0x1082d",
        "value": "0x0",
        "input": "0x095ea7b3000000000000000000000000eed45965dd5dd2fed4ea614ffa29cff6ce974914000000000000000000000000000000000000000000000000000000003b9aca00",
        "nonce": "0x2c",
        "chainId": "0xaa37dc"
      },
      "additionalContracts": [],
      "isFixedGasLimit": false
    },
    {
      "hash": "0xdd67cc1ee492bc856fb243e5ac654b69735e1a08e5b54d915bc768d2d801b8fd",
      "transactionType": "CALL",
      "contractName": null,
      "contractAddress": "0xeed45965dd5dd2fed4ea614ffa29cff6ce974914",
      "function": "buyTokens(uint256)",
      "arguments": [
        "1000000000"
      ],
      "transaction": {
        "from": "0xc06999313769622dad93d6d01642be9762e3b520",
        "to": "0xeed45965dd5dd2fed4ea614ffa29cff6ce974914",
        "gas": "0x1e5cd",
        "value": "0x0",
        "input": "0x3610724e000000000000000000000000000000000000000000000000000000003b9aca00",
        "nonce": "0x2d",
        "chainId": "0xaa37dc"
      },
      "additionalContracts": [],
      "isFixedGasLimit": false
    }
  ],
  "receipts": [
    {
      "status": "0x1",
      "cumulativeGasUsed": "0x4db5e4",
      "logs": [
        {
          "address": "0x452387742c56993a47f35425ddcbb05000681fc6",
          "topics": [
            "0x8c5be1e5ebec7d5bd14f71427d1e84f3dd0314c0f7b2291e5b200ac8c7c3b925",
            "0x000000000000000000000000c06999313769622dad93d6d01642be9762e3b520",
            "0x000000000000000000000000eed45965dd5dd2fed4ea614ffa29cff6ce974914"
          ],
          "data": "0x000000000000000000000000000000000000000000000000000000003b9aca00",
          "blockHash": "0x4ebc69d9e2c8a7004646b2dfcc9ad211959f387cee735b003575022d163f0843",
          "blockNumber": "0x17349b9",
          "transactionHash": "0x02f14c40f9ef7b1bf20be80b6d75064aeb20d1c9f9195fd98446171fc6d6f9b2",
          "transactionIndex": "0x2",
          "logIndex": "0x0",
          "removed": false
        }
      ],
      "logsBloom": "0x00000000000000000000000001000000000000000004000000000000000000000100000000000000000000000000020000000000000000000000000000200000000000000000000000000000000000000000000000000000000000000000000000800001000000000000100000400000000000000000000000000000000000000000000000000000000000000000000000000000000000000000000000000000020000000000000000000000000000010000000000000000000000000000000000000000000000000000000000000000000000000000000000000000000000000010000000000000000000000000000000000000000000000000000000000000",
      "type": "0x0",
      "transactionHash": "0x02f14c40f9ef7b1bf20be80b6d75064aeb20d1c9f9195fd98446171fc6d6f9b2",
      "transactionIndex": "0x2",
      "blockHash": "0x4ebc69d9e2c8a7004646b2dfcc9ad211959f387cee735b003575022d163f0843",
      "blockNumber": "0x17349b9",
      "gasUsed": "0xb4a3",
      "effectiveGasPrice": "0xf434c",
      "from": "0xc06999313769622dad93d6d01642be9762e3b520",
      "to": "0x452387742c56993a47f35425ddcbb05000681fc6",
      "contractAddress": null,
      "l1BaseFeeScalar": "0x1db0",
      "l1BlobBaseFee": "0x11993d0609",
      "l1BlobBaseFeeScalar": "0xd2730",
      "l1Fee": "0x6146b66b3fe",
      "l1GasPrice": "0x33dec1256",
      "l1GasUsed": "0x640"
    },
    {
      "status": "0x1",
      "cumulativeGasUsed": "0x91ee7b",
      "logs": [
        {
          "address": "0x452387742c56993a47f35425ddcbb05000681fc6",
          "topics": [
            "0x8c5be1e5ebec7d5bd14f71427d1e84f3dd0314c0f7b2291e5b200ac8c7c3b925",
            "0x000000000000000000000000c06999313769622dad93d6d01642be9762e3b520",
            "0x000000000000000000000000eed45965dd5dd2fed4ea614ffa29cff6ce974914"
          ],
          "data": "0x00000000000000000000000000000000000000000000000000000000000f4240",
          "blockHash": "0x4ebc69d9e2c8a7004646b2dfcc9ad211959f387cee735b003575022d163f0843",
          "blockNumber": "0x17349b9",
          "transactionHash": "0xdd67cc1ee492bc856fb243e5ac654b69735e1a08e5b54d915bc768d2d801b8fd",
          "transactionIndex": "0x4",
          "logIndex": "0x9",
          "removed": false
        },
        {
          "address": "0x452387742c56993a47f35425ddcbb05000681fc6",
          "topics": [
            "0xddf252ad1be2c89b69c2b068fc378daa952ba7f163c4a11628f55a4df523b3ef",
            "0x000000000000000000000000c06999313769622dad93d6d01642be9762e3b520",
            "0x000000000000000000000000eed45965dd5dd2fed4ea614ffa29cff6ce974914"
          ],
          "data": "0x000000000000000000000000000000000000000000000000000000003b8b87c0",
          "blockHash": "0x4ebc69d9e2c8a7004646b2dfcc9ad211959f387cee735b003575022d163f0843",
          "blockNumber": "0x17349b9",
          "transactionHash": "0xdd67cc1ee492bc856fb243e5ac654b69735e1a08e5b54d915bc768d2d801b8fd",
          "transactionIndex": "0x4",
          "logIndex": "0xa",
          "removed": false
        },
        {
          "address": "0x452387742c56993a47f35425ddcbb05000681fc6",
          "topics": [
            "0x8c5be1e5ebec7d5bd14f71427d1e84f3dd0314c0f7b2291e5b200ac8c7c3b925",
            "0x000000000000000000000000c06999313769622dad93d6d01642be9762e3b520",
            "0x000000000000000000000000eed45965dd5dd2fed4ea614ffa29cff6ce974914"
          ],
          "data": "0x0000000000000000000000000000000000000000000000000000000000000000",
          "blockHash": "0x4ebc69d9e2c8a7004646b2dfcc9ad211959f387cee735b003575022d163f0843",
          "blockNumber": "0x17349b9",
          "transactionHash": "0xdd67cc1ee492bc856fb243e5ac654b69735e1a08e5b54d915bc768d2d801b8fd",
          "transactionIndex": "0x4",
          "logIndex": "0xb",
          "removed": false
        },
        {
          "address": "0x452387742c56993a47f35425ddcbb05000681fc6",
          "topics": [
            "0xddf252ad1be2c89b69c2b068fc378daa952ba7f163c4a11628f55a4df523b3ef",
            "0x000000000000000000000000c06999313769622dad93d6d01642be9762e3b520",
            "0x000000000000000000000000c06999313769622dad93d6d01642be9762e3b520"
          ],
          "data": "0x00000000000000000000000000000000000000000000000000000000000f4240",
          "blockHash": "0x4ebc69d9e2c8a7004646b2dfcc9ad211959f387cee735b003575022d163f0843",
          "blockNumber": "0x17349b9",
          "transactionHash": "0xdd67cc1ee492bc856fb243e5ac654b69735e1a08e5b54d915bc768d2d801b8fd",
          "transactionIndex": "0x4",
          "logIndex": "0xc",
          "removed": false
        },
        {
          "address": "0x656e098e175c614bf14e9ce5a17736e25322920b",
          "topics": [
            "0xddf252ad1be2c89b69c2b068fc378daa952ba7f163c4a11628f55a4df523b3ef",
            "0x000000000000000000000000eed45965dd5dd2fed4ea614ffa29cff6ce974914",
            "0x000000000000000000000000c06999313769622dad93d6d01642be9762e3b520"
          ],
          "data": "0x00000000000000000000000000000000000000000000151cbf71c6c2cd500000",
          "blockHash": "0x4ebc69d9e2c8a7004646b2dfcc9ad211959f387cee735b003575022d163f0843",
          "blockNumber": "0x17349b9",
          "transactionHash": "0xdd67cc1ee492bc856fb243e5ac654b69735e1a08e5b54d915bc768d2d801b8fd",
          "transactionIndex": "0x4",
          "logIndex": "0xd",
          "removed": false
        }
      ],
      "logsBloom": "0x00000000000000000000000001000000000000000004000000000000000000000100000000000000000000000000020000000000000000000000000000200000000000000000000000000008000000000000000000000000000000000000000000800001000000000000100000400000000000000000000200000010000000000400002000000000000000000000000000000000000000000000000000000000020000000000000000000000000000010000000000000000000000000000000000000002000000000000000000000000000000000000000000000000000000000010000000000000000000000000000000000000000000000000000000000000",
      "type": "0x0",
      "transactionHash": "0xdd67cc1ee492bc856fb243e5ac654b69735e1a08e5b54d915bc768d2d801b8fd",
      "transactionIndex": "0x4",
      "blockHash": "0x4ebc69d9e2c8a7004646b2dfcc9ad211959f387cee735b003575022d163f0843",
      "blockNumber": "0x17349b9",
      "gasUsed": "0x15fb7",
      "effectiveGasPrice": "0xf434c",
      "from": "0xc06999313769622dad93d6d01642be9762e3b520",
      "to": "0xeed45965dd5dd2fed4ea614ffa29cff6ce974914",
      "contractAddress": null,
      "l1BaseFeeScalar": "0x1db0",
      "l1BlobBaseFee": "0x11993d0609",
      "l1BlobBaseFeeScalar": "0xd2730",
      "l1Fee": "0x6146b66b3fe",
      "l1GasPrice": "0x33dec1256",
      "l1GasUsed": "0x640"
    }
  ],
  "libraries": [],
  "pending": [],
  "returns": {},
  "timestamp": 1740467999,
  "chain": 11155420,
  "commit": "ce9846d"
}