{
  "transactions": [
    {
      "hash": "0x8f2e887321a6db0d873543fe85fee5ad72504844b5ea8b5f3ecd2d42ff99fabe",
      "transactionType": "CALL",
      "contractName": null,
      "contractAddress": "0x741973e28394f26f75cb1a09303aab3c43180d31",
      "function": "approve(address,uint256)",
      "arguments": [
        "0x12452904BE81b20eF06EE39fA2c7c49E27456EDf",
        "10000000000"
      ],
      "transaction": {
        "from": "0xc06999313769622dad93d6d01642be9762e3b520",
        "to": "0x741973e28394f26f75cb1a09303aab3c43180d31",
        "gas": "0xf990",
        "value": "0x0",
        "input": "0x095ea7b300000000000000000000000012452904be81b20ef06ee39fa2c7c49e27456edf00000000000000000000000000000000000000000000000000000002540be400",
        "nonce": "0x32",
        "chainId": "0xaa37dc"
      },
      "additionalContracts": [],
      "isFixedGasLimit": false
    },
    {
      "hash": "0xcb3c573676be63426056a0c7d970cd98259280490a4441e1afdff5d663b66188",
      "transactionType": "CALL",
      "contractName": null,
      "contractAddress": "0x12452904be81b20ef06ee39fa2c7c49e27456edf",
      "function": "buyTokens(uint256)",
      "arguments": [
        "10000000000"
      ],
      "transaction": {
        "from": "0xc06999313769622dad93d6d01642be9762e3b520",
        "to": "0x12452904be81b20ef06ee39fa2c7c49e27456edf",
        "gas": "0x3445f",
        "value": "0x0",
        "input": "0x3610724e00000000000000000000000000000000000000000000000000000002540be400",
        "nonce": "0x33",
        "chainId": "0xaa37dc"
      },
      "additionalContracts": [],
      "isFixedGasLimit": false
    }
  ],
  "receipts": [
    {
      "status": "0x1",
      "cumulativeGasUsed": "0x34ee6",
      "logs": [
        {
          "address": "0x741973e28394f26f75cb1a09303aab3c43180d31",
          "topics": [
            "0x8c5be1e5ebec7d5bd14f71427d1e84f3dd0314c0f7b2291e5b200ac8c7c3b925",
            "0x000000000000000000000000c06999313769622dad93d6d01642be9762e3b520",
            "0x00000000000000000000000012452904be81b20ef06ee39fa2c7c49e27456edf"
          ],
          "data": "0x00000000000000000000000000000000000000000000000000000002540be400",
          "blockHash": "0xe67c4280b00213312d9d2a601a99005153ace8b92c459480da61e4ebc6cce1c4",
          "blockNumber": "0x1734c5c",
          "transactionHash": "0x8f2e887321a6db0d873543fe85fee5ad72504844b5ea8b5f3ecd2d42ff99fabe",
          "transactionIndex": "0x2",
          "logIndex": "0x3",
          "removed": false
        }
      ],
      "logsBloom": "0x00000000000000000000000001000000000000000000000000000000002000000100000000000000000000000000000000000000000040000000000000200000000000000000000000000000000000000000000000000000020000000000000000000000000000000000100000000000000000000000000000000000000000000000000000000000000000000000000000000000000000000000000000000000020000000000000000000000000000000000000000000000000000000000000000000000000000000000000000000000000000000000000000000000000000000010002000000000000000000800000000000020000000000000000000000000",
      "type": "0x2",
      "transactionHash": "0x8f2e887321a6db0d873543fe85fee5ad72504844b5ea8b5f3ecd2d42ff99fabe",
      "transactionIndex": "0x2",
      "blockHash": "0xe67c4280b00213312d9d2a601a99005153ace8b92c459480da61e4ebc6cce1c4",
      "blockNumber": "0x1734c5c",
      "gasUsed": "0xb4af",
      "effectiveGasPrice": "0xf4346",
      "from": "0xc06999313769622dad93d6d01642be9762e3b520",
      "to": "0x741973e28394f26f75cb1a09303aab3c43180d31",
      "contractAddress": null,
      "l1BaseFeeScalar": "0x1db0",
      "l1BlobBaseFee": "0x48540a4664",
      "l1BlobBaseFeeScalar": "0xd2730",
      "l1Fee": "0x1899df04d60a",
      "l1GasPrice": "0x531f6b7e1",
      "l1GasUsed": "0x640"
    },
    {
      "status": "0x1",
      "cumulativeGasUsed": "0x48854b",
      "logs": [
        {
          "address": "0x741973e28394f26f75cb1a09303aab3c43180d31",
          "topics": [
            "0x8c5be1e5ebec7d5bd14f71427d1e84f3dd0314c0f7b2291e5b200ac8c7c3b925",
            "0x000000000000000000000000c06999313769622dad93d6d01642be9762e3b520",
            "0x00000000000000000000000012452904be81b20ef06ee39fa2c7c49e27456edf"
          ],
          "data": "0x0000000000000000000000000000000000000000000000000000000000989680",
          "blockHash": "0xe67c4280b00213312d9d2a601a99005153ace8b92c459480da61e4ebc6cce1c4",
          "blockNumber": "0x1734c5c",
          "transactionHash": "0xcb3c573676be63426056a0c7d970cd98259280490a4441e1afdff5d663b66188",
          "transactionIndex": "0x4",
          "logIndex": "0xc",
          "removed": false
        },
        {
          "address": "0x741973e28394f26f75cb1a09303aab3c43180d31",
          "topics": [
            "0xddf252ad1be2c89b69c2b068fc378daa952ba7f163c4a11628f55a4df523b3ef",
            "0x000000000000000000000000c06999313769622dad93d6d01642be9762e3b520",
            "0x00000000000000000000000012452904be81b20ef06ee39fa2c7c49e27456edf"
          ],
          "data": "0x0000000000000000000000000000000000000000000000000000000253734d80",
          "blockHash": "0xe67c4280b00213312d9d2a601a99005153ace8b92c459480da61e4ebc6cce1c4",
          "blockNumber": "0x1734c5c",
          "transactionHash": "0xcb3c573676be63426056a0c7d970cd98259280490a4441e1afdff5d663b66188",
          "transactionIndex": "0x4",
          "logIndex": "0xd",
          "removed": false
        },
        {
          "address": "0x741973e28394f26f75cb1a09303aab3c43180d31",
          "topics": [
            "0x8c5be1e5ebec7d5bd14f71427d1e84f3dd0314c0f7b2291e5b200ac8c7c3b925",
            "0x000000000000000000000000c06999313769622dad93d6d01642be9762e3b520",
            "0x00000000000000000000000012452904be81b20ef06ee39fa2c7c49e27456edf"
          ],
          "data": "0x0000000000000000000000000000000000000000000000000000000000000000",
          "blockHash": "0xe67c4280b00213312d9d2a601a99005153ace8b92c459480da61e4ebc6cce1c4",
          "blockNumber": "0x1734c5c",
          "transactionHash": "0xcb3c573676be63426056a0c7d970cd98259280490a4441e1afdff5d663b66188",
          "transactionIndex": "0x4",
          "logIndex": "0xe",
          "removed": false
        },
        {
          "address": "0x741973e28394f26f75cb1a09303aab3c43180d31",
          "topics": [
            "0xddf252ad1be2c89b69c2b068fc378daa952ba7f163c4a11628f55a4df523b3ef",
            "0x000000000000000000000000c06999313769622dad93d6d01642be9762e3b520",
            "0x000000000000000000000000c06999313769622dad93d6d01642be9762e3b520"
          ],
          "data": "0x0000000000000000000000000000000000000000000000000000000000989680",
          "blockHash": "0xe67c4280b00213312d9d2a601a99005153ace8b92c459480da61e4ebc6cce1c4",
          "blockNumber": "0x1734c5c",
          "transactionHash": "0xcb3c573676be63426056a0c7d970cd98259280490a4441e1afdff5d663b66188",
          "transactionIndex": "0x4",
          "logIndex": "0xf",
          "removed": false
        },
        {
          "address": "0xcec34c32ebb2ef111077b61d2c7913095bc26cd9",
          "topics": [
            "0xddf252ad1be2c89b69c2b068fc378daa952ba7f163c4a11628f55a4df523b3ef",
            "0x00000000000000000000000012452904be81b20ef06ee39fa2c7c49e27456edf",
            "0x000000000000000000000000c06999313769622dad93d6d01642be9762e3b520"
          ],
          "data": "0x00000000000000000000000000000000000000000000d31f7a71c39c05200000",
          "blockHash": "0xe67c4280b00213312d9d2a601a99005153ace8b92c459480da61e4ebc6cce1c4",
          "blockNumber": "0x1734c5c",
          "transactionHash": "0xcb3c573676be63426056a0c7d970cd98259280490a4441e1afdff5d663b66188",
          "transactionIndex": "0x4",
          "logIndex": "0x10",
          "removed": false
        }
      ],
      "logsBloom": "0x00000000000000000000000001000000000000000000000000000000002000000100000000000000000000000000000000000000100040000000000000200000000000000000000000000008000000000000000000000000020000000000000000000000000000000000100000000000000000000000000000000010000000000000000000000000004000000000000000000000000000000000000000000000020000000080000000000000000000000000000000000000000000000000000000000002000000000000000000000000000000000000000000000000000000000010002000000000000000000800000000000020000000000000000000000000",
      "type": "0x2",
      "transactionHash": "0xcb3c573676be63426056a0c7d970cd98259280490a4441e1afdff5d663b66188",
      "transactionIndex": "0x4",
      "blockHash": "0xe67c4280b00213312d9d2a601a99005153ace8b92c459480da61e4ebc6cce1c4",
      "blockNumber": "0x1734c5c",
      "gasUsed": "0x25d85",
      "effectiveGasPrice": "0xf4346",
      "from": "0xc06999313769622dad93d6d01642be9762e3b520",
      "to": "0x12452904be81b20ef06ee39fa2c7c49e27456edf",
      "contractAddress": null,
      "l1BaseFeeScalar": "0x1db0",
      "l1BlobBaseFee": "0x48540a4664",
      "l1BlobBaseFeeScalar": "0xd2730",
      "l1Fee": "0x1899df04d60a",
      "l1GasPrice": "0x531f6b7e1",
      "l1GasUsed": "0x640"
    }
  ],
  "libraries": [],
  "pending": [],
  "returns": {},
  "timestamp": 1740469349,
  "chain": 11155420,
  "commit": "1a90a3b"
}