{
  "transactions": [
    {
      "hash": "0x519e5d21e3a41c44195064bf9ed1604b236c2186668be4dfe5509f66e7a43c31",
      "transactionType": "CALL",
      "contractName": null,
      "contractAddress": "0x966be3df28040313a6ecc5c925f07b169b87cbb7",
      "function": "approve(address,uint256)",
      "arguments": [
        "0xa1bA1F0210319dd7e8abd51229012B692420a346",
        "10000000000"
      ],
      "transaction": {
        "from": "0xc06999313769622dad93d6d01642be9762e3b520",
        "to": "0x966be3df28040313a6ecc5c925f07b169b87cbb7",
        "gas": "0xf990",
        "value": "0x0",
        "input": "0x095ea7b3000000000000000000000000a1ba1f0210319dd7e8abd51229012b692420a34600000000000000000000000000000000000000000000000000000002540be400",
        "nonce": "0x60",
        "chainId": "0xaa37dc"
      },
      "additionalContracts": [],
      "isFixedGasLimit": false
    },
    {
      "hash": "0xa33bd8f8624fae85cf919b25bcf6f15c93d637e4a7f210b0e525b4f38e54fa49",
      "transactionType": "CALL",
      "contractName": null,
      "contractAddress": "0xa1ba1f0210319dd7e8abd51229012b692420a346",
      "function": "buyTokens(uint256)",
      "arguments": [
        "1000000000"
      ],
      "transaction": {
        "from": "0xc06999313769622dad93d6d01642be9762e3b520",
        "to": "0xa1ba1f0210319dd7e8abd51229012b692420a346",
        "gas": "0x2b3de",
        "value": "0x0",
        "input": "0x3610724e000000000000000000000000000000000000000000000000000000003b9aca00",
        "nonce": "0x61",
        "chainId": "0xaa37dc"
      },
      "additionalContracts": [],
      "isFixedGasLimit": false
    }
  ],
  "receipts": [
    {
      "status": "0x1",
      "cumulativeGasUsed": "0xc3365",
      "logs": [
        {
          "address": "0x966be3df28040313a6ecc5c925f07b169b87cbb7",
          "topics": [
            "0x8c5be1e5ebec7d5bd14f71427d1e84f3dd0314c0f7b2291e5b200ac8c7c3b925",
            "0x000000000000000000000000c06999313769622dad93d6d01642be9762e3b520",
            "0x000000000000000000000000a1ba1f0210319dd7e8abd51229012b692420a346"
          ],
          "data": "0x00000000000000000000000000000000000000000000000000000002540be400",
          "blockHash": "0xc9fe31182a9826ead29d6cc0889b64a67021f4fc5fd0a0dac52daf9e34d93a47",
          "blockNumber": "0x1735e0d",
          "transactionHash": "0x519e5d21e3a41c44195064bf9ed1604b236c2186668be4dfe5509f66e7a43c31",
          "transactionIndex": "0x7",
          "logIndex": "0x13",
          "removed": false
        }
      ],
      "logsBloom": "0x00000000000000000000000001000000000000000000000000000000000000000100000000000000000000000000000000000000000000000000000000200000000000000000020000000000000000000000000000000000000000000000000000000000000000000000100000000000000000200000000000000000000020000000000000004000000000000000000000000000000000000000000000000000020000000000000000080200000000000000000000000000000000000000000000000000000000000000000000000000000000000000000000000000000000000010000000000000000000000000000000000000000000000000000000000000",
      "type": "0x2",
      "transactionHash": "0x519e5d21e3a41c44195064bf9ed1604b236c2186668be4dfe5509f66e7a43c31",
      "transactionIndex": "0x7",
      "blockHash": "0xc9fe31182a9826ead29d6cc0889b64a67021f4fc5fd0a0dac52daf9e34d93a47",
      "blockNumber": "0x1735e0d",
      "gasUsed": "0xb4af",
      "effectiveGasPrice": "0xf4340",
      "from": "0xc06999313769622dad93d6d01642be9762e3b520",
      "to": "0x966be3df28040313a6ecc5c925f07b169b87cbb7",
      "contractAddress": null,
      "l1BaseFeeScalar": "0x1db0",
      "l1BlobBaseFee": "0x404ab3bea1",
      "l1BlobBaseFeeScalar": "0xd2730",
      "l1Fee": "0x1621635e2cc3",
      "l1GasPrice": "0xa269f408f",
      "l1GasUsed": "0x640"
    },
    {
      "status": "0x1",
      "cumulativeGasUsed": "0xe284c",
      "logs": [
        {
          "address": "0x966be3df28040313a6ecc5c925f07b169b87cbb7",
          "topics": [
            "0x8c5be1e5ebec7d5bd14f71427d1e84f3dd0314c0f7b2291e5b200ac8c7c3b925",
            "0x000000000000000000000000c06999313769622dad93d6d01642be9762e3b520",
            "0x000000000000000000000000a1ba1f0210319dd7e8abd51229012b692420a346"
          ],
          "data": "0x0000000000000000000000000000000000000000000000000000000218805c40",
          "blockHash": "0xc9fe31182a9826ead29d6cc0889b64a67021f4fc5fd0a0dac52daf9e34d93a47",
          "blockNumber": "0x1735e0d",
          "transactionHash": "0xa33bd8f8624fae85cf919b25bcf6f15c93d637e4a7f210b0e525b4f38e54fa49",
          "transactionIndex": "0x8",
          "logIndex": "0x14",
          "removed": false
        },
        {
          "address": "0x966be3df28040313a6ecc5c925f07b169b87cbb7",
          "topics": [
            "0xddf252ad1be2c89b69c2b068fc378daa952ba7f163c4a11628f55a4df523b3ef",
            "0x000000000000000000000000c06999313769622dad93d6d01642be9762e3b520",
            "0x000000000000000000000000a1ba1f0210319dd7e8abd51229012b692420a346"
          ],
          "data": "0x000000000000000000000000000000000000000000000000000000003b8b87c0",
          "blockHash": "0xc9fe31182a9826ead29d6cc0889b64a67021f4fc5fd0a0dac52daf9e34d93a47",
          "blockNumber": "0x1735e0d",
          "transactionHash": "0xa33bd8f8624fae85cf919b25bcf6f15c93d637e4a7f210b0e525b4f38e54fa49",
          "transactionIndex": "0x8",
          "logIndex": "0x15",
          "removed": false
        },
        {
          "address": "0x966be3df28040313a6ecc5c925f07b169b87cbb7",
          "topics": [
            "0x8c5be1e5ebec7d5bd14f71427d1e84f3dd0314c0f7b2291e5b200ac8c7c3b925",
            "0x000000000000000000000000c06999313769622dad93d6d01642be9762e3b520",
            "0x000000000000000000000000a1ba1f0210319dd7e8abd51229012b692420a346"
          ],
          "data": "0x0000000000000000000000000000000000000000000000000000000218711a00",
          "blockHash": "0xc9fe31182a9826ead29d6cc0889b64a67021f4fc5fd0a0dac52daf9e34d93a47",
          "blockNumber": "0x1735e0d",
          "transactionHash": "0xa33bd8f8624fae85cf919b25bcf6f15c93d637e4a7f210b0e525b4f38e54fa49",
          "transactionIndex": "0x8",
          "logIndex": "0x16",
          "removed": false
        },
        {
          "address": "0x966be3df28040313a6ecc5c925f07b169b87cbb7",
          "topics": [
            "0xddf252ad1be2c89b69c2b068fc378daa952ba7f163c4a11628f55a4df523b3ef",
            "0x000000000000000000000000c06999313769622dad93d6d01642be9762e3b520",
            "0x000000000000000000000000c06999313769622dad93d6d01642be9762e3b520"
          ],
          "data": "0x00000000000000000000000000000000000000000000000000000000000f4240",
          "blockHash": "0xc9fe31182a9826ead29d6cc0889b64a67021f4fc5fd0a0dac52daf9e34d93a47",
          "blockNumber": "0x1735e0d",
          "transactionHash": "0xa33bd8f8624fae85cf919b25bcf6f15c93d637e4a7f210b0e525b4f38e54fa49",
          "transactionIndex": "0x8",
          "logIndex": "0x17",
          "removed": false
        },
        {
          "address": "0x47170ea51bf13019d7e1eb666a0d2e19767d2397",
          "topics": [
            "0xddf252ad1be2c89b69c2b068fc378daa952ba7f163c4a11628f55a4df523b3ef",
            "0x000000000000000000000000a1ba1f0210319dd7e8abd51229012b692420a346",
            "0x000000000000000000000000c06999313769622dad93d6d01642be9762e3b520"
          ],
          "data": "0x00000000000000000000000000000000000000000000151753aa68956a400000",
          "blockHash": "0xc9fe31182a9826ead29d6cc0889b64a67021f4fc5fd0a0dac52daf9e34d93a47",
          "blockNumber": "0x1735e0d",
          "transactionHash": "0xa33bd8f8624fae85cf919b25bcf6f15c93d637e4a7f210b0e525b4f38e54fa49",
          "transactionIndex": "0x8",
          "logIndex": "0x18",
          "removed": false
        },
        {
          "address": "0xa1ba1f0210319dd7e8abd51229012b692420a346",
          "topics": [
            "0x22f6af6e13430e3e7b6418d01e6a48c1fbce5e8cb1698901fc95134b4b1c58ad",
            "0x000000000000000000000000c06999313769622dad93d6d01642be9762e3b520"
          ],
          "data": "0x000000000000000000000000000000000000000000000000000000003b9aca0000000000000000000000000000000000000000000000151753aa68956a4000000000000000000000000000000000000000000000000000000000000000000028",
          "blockHash": "0xc9fe31182a9826ead29d6cc0889b64a67021f4fc5fd0a0dac52daf9e34d93a47",
          "blockNumber": "0x1735e0d",
          "transactionHash": "0xa33bd8f8624fae85cf919b25bcf6f15c93d637e4a7f210b0e525b4f38e54fa49",
          "transactionIndex": "0x8",
          "logIndex": "0x19",
          "removed": false
        }
      ],
      "logsBloom": "0x00000000000000000000000001000000000000000000000000000000000000000120000000000000000000000000000000000004000010000000000000200000000000000000020000000008000000000000000000000200000000000000000000200000000000000000100000000000000000200000000000000010000020000000000000004000000000000000000000000000000800000000000000000000020000000000000000080200000000000000000000000000000000000000000002000002000000000000000000080000000000000000000000000000000000000010000000000000000000000000000000000000000000000000000010000000",
      "type": "0x2",
      "transactionHash": "0xa33bd8f8624fae85cf919b25bcf6f15c93d637e4a7f210b0e525b4f38e54fa49",
      "transactionIndex": "0x8",
      "blockHash": "0xc9fe31182a9826ead29d6cc0889b64a67021f4fc5fd0a0dac52daf9e34d93a47",
      "blockNumber": "0x1735e0d",
      "gasUsed": "0x1f4e7",
      "effectiveGasPrice": "0xf4340",
      "from": "0xc06999313769622dad93d6d01642be9762e3b520",
      "to": "0xa1ba1f0210319dd7e8abd51229012b692420a346",
      "contractAddress": null,
      "l1BaseFeeScalar": "0x1db0",
      "l1BlobBaseFee": "0x404ab3bea1",
      "l1BlobBaseFeeScalar": "0xd2730",
      "l1Fee": "0x1621635e2cc3",
      "l1GasPrice": "0xa269f408f",
      "l1GasUsed": "0x640"
    }
  ],
  "libraries": [],
  "pending": [],
  "returns": {},
  "timestamp": 1740478406,
  "chain": 11155420,
  "commit": "6f5774f"
}