{
  "transactions": [
    {
      "hash": "0x10bc2a899872e8d97ac526cef61d07246a36ada763e2d13080a2164c786810f6",
      "transactionType": "CALL",
      "contractName": null,
      "contractAddress": "0x741973e28394f26f75cb1a09303aab3c43180d31",
      "function": "approve(address,uint256)",
      "arguments": [
        "0x12452904BE81b20eF06EE39fA2c7c49E27456EDf",
        "10000000000"
      ],
      "transaction": {
        "from": "0xc06999313769622dad93d6d01642be9762e3b520",
        "to": "0x741973e28394f26f75cb1a09303aab3c43180d31",
        "gas": "0xf990",
        "value": "0x0",
        "input": "0x095ea7b300000000000000000000000012452904be81b20ef06ee39fa2c7c49e27456edf00000000000000000000000000000000000000000000000000000002540be400",
        "nonce": "0x3a",
        "chainId": "0xaa37dc"
      },
      "additionalContracts": [],
      "isFixedGasLimit": false
    },
    {
      "hash": "0x13ceddcbd138b892429ef35d37d41ab4b853c460916dbda4327b14534f9514d3",
      "transactionType": "CALL",
      "contractName": null,
      "contractAddress": "0x12452904be81b20ef06ee39fa2c7c49e27456edf",
      "function": "buyTokens(uint256)",
      "arguments": [
        "1000000"
      ],
      "transaction": {
        "from": "0xc06999313769622dad93d6d01642be9762e3b520",
        "to": "0x12452904be81b20ef06ee39fa2c7c49e27456edf",
        "gas": "0x1ffbc",
        "value": "0x0",
        "input": "0x3610724e00000000000000000000000000000000000000000000000000000000000f4240",
        "nonce": "0x3b",
        "chainId": "0xaa37dc"
      },
      "additionalContracts": [],
      "isFixedGasLimit": false
    }
  ],
  "receipts": [
    {
      "status": "0x1",
      "cumulativeGasUsed": "0x127c18",
      "logs": [
        {
          "address": "0x741973e28394f26f75cb1a09303aab3c43180d31",
          "topics": [
            "0x8c5be1e5ebec7d5bd14f71427d1e84f3dd0314c0f7b2291e5b200ac8c7c3b925",
            "0x000000000000000000000000c06999313769622dad93d6d01642be9762e3b520",
            "0x00000000000000000000000012452904be81b20ef06ee39fa2c7c49e27456edf"
          ],
          "data": "0x00000000000000000000000000000000000000000000000000000002540be400",
          "blockHash": "0xe075b0e9322e2a0d3b34d417da7a2b2af105533fd41a803840461549189ef90d",
          "blockNumber": "0x1734d5d",
          "transactionHash": "0x10bc2a899872e8d97ac526cef61d07246a36ada763e2d13080a2164c786810f6",
          "transactionIndex": "0x5",
          "logIndex": "0xe",
          "removed": false
        }
      ],
      "logsBloom": "0x00000000000000000000000001000000000000000000000000000000002000000100000000000000000000000000000000000000000040000000000000200000000000000000000000000000000000000000000000000000020000000000000000000000000000000000100000000000000000000000000000000000000000000000000000000000000000000000000000000000000000000000000000000000020000000000000000000000000000000000000000000000000000000000000000000000000000000000000000000000000000000000000000000000000000000010002000000000000000000800000000000020000000000000000000000000",
      "type": "0x2",
      "transactionHash": "0x10bc2a899872e8d97ac526cef61d07246a36ada763e2d13080a2164c786810f6",
      "transactionIndex": "0x5",
      "blockHash": "0xe075b0e9322e2a0d3b34d417da7a2b2af105533fd41a803840461549189ef90d",
      "blockNumber": "0x1734d5d",
      "gasUsed": "0xb4af",
      "effectiveGasPrice": "0xf433d",
      "from": "0xc06999313769622dad93d6d01642be9762e3b520",
      "to": "0x741973e28394f26f75cb1a09303aab3c43180d31",
      "contractAddress": null,
      "l1BaseFeeScalar": "0x1db0",
      "l1BlobBaseFee": "0x404ab3bea1",
      "l1BlobBaseFeeScalar": "0xd2730",
      "l1Fee": "0x15e6cdc040f8",
      "l1GasPrice": "0x55543f310",
      "l1GasUsed": "0x640"
    },
    {
      "status": "0x1",
      "cumulativeGasUsed": "0x3f1ae9",
      "logs": [
        {
          "address": "0x741973e28394f26f75cb1a09303aab3c43180d31",
          "topics": [
            "0x8c5be1e5ebec7d5bd14f71427d1e84f3dd0314c0f7b2291e5b200ac8c7c3b925",
            "0x000000000000000000000000c06999313769622dad93d6d01642be9762e3b520",
            "0x00000000000000000000000012452904be81b20ef06ee39fa2c7c49e27456edf"
          ],
          "data": "0x0000000000000000000000000000000000000000000000000000000253fca5a8",
          "blockHash": "0xe075b0e9322e2a0d3b34d417da7a2b2af105533fd41a803840461549189ef90d",
          "blockNumber": "0x1734d5d",
          "transactionHash": "0x13ceddcbd138b892429ef35d37d41ab4b853c460916dbda4327b14534f9514d3",
          "transactionIndex": "0x7",
          "logIndex": "0xf",
          "removed": false
        },
        {
          "address": "0x741973e28394f26f75cb1a09303aab3c43180d31",
          "topics": [
            "0xddf252ad1be2c89b69c2b068fc378daa952ba7f163c4a11628f55a4df523b3ef",
            "0x000000000000000000000000c06999313769622dad93d6d01642be9762e3b520",
            "0x00000000000000000000000012452904be81b20ef06ee39fa2c7c49e27456edf"
          ],
          "data": "0x00000000000000000000000000000000000000000000000000000000000f3e58",
          "blockHash": "0xe075b0e9322e2a0d3b34d417da7a2b2af105533fd41a803840461549189ef90d",
          "blockNumber": "0x1734d5d",
          "transactionHash": "0x13ceddcbd138b892429ef35d37d41ab4b853c460916dbda4327b14534f9514d3",
          "transactionIndex": "0x7",
          "logIndex": "0x10",
          "removed": false
        },
        {
          "address": "0x741973e28394f26f75cb1a09303aab3c43180d31",
          "topics": [
            "0x8c5be1e5ebec7d5bd14f71427d1e84f3dd0314c0f7b2291e5b200ac8c7c3b925",
            "0x000000000000000000000000c06999313769622dad93d6d01642be9762e3b520",
            "0x00000000000000000000000012452904be81b20ef06ee39fa2c7c49e27456edf"
          ],
          "data": "0x0000000000000000000000000000000000000000000000000000000253fca1c0",
          "blockHash": "0xe075b0e9322e2a0d3b34d417da7a2b2af105533fd41a803840461549189ef90d",
          "blockNumber": "0x1734d5d",
          "transactionHash": "0x13ceddcbd138b892429ef35d37d41ab4b853c460916dbda4327b14534f9514d3",
          "transactionIndex": "0x7",
          "logIndex": "0x11",
          "removed": false
        },
        {
          "address": "0x741973e28394f26f75cb1a09303aab3c43180d31",
          "topics": [
            "0xddf252ad1be2c89b69c2b068fc378daa952ba7f163c4a11628f55a4df523b3ef",
            "0x000000000000000000000000c06999313769622dad93d6d01642be9762e3b520",
            "0x000000000000000000000000c06999313769622dad93d6d01642be9762e3b520"
          ],
          "data": "0x00000000000000000000000000000000000000000000000000000000000003e8",
          "blockHash": "0xe075b0e9322e2a0d3b34d417da7a2b2af105533fd41a803840461549189ef90d",
          "blockNumber": "0x1734d5d",
          "transactionHash": "0x13ceddcbd138b892429ef35d37d41ab4b853c460916dbda4327b14534f9514d3",
          "transactionIndex": "0x7",
          "logIndex": "0x12",
          "removed": false
        },
        {
          "address": "0xcec34c32ebb2ef111077b61d2c7913095bc26cd9",
          "topics": [
            "0xddf252ad1be2c89b69c2b068fc378daa952ba7f163c4a11628f55a4df523b3ef",
            "0x00000000000000000000000012452904be81b20ef06ee39fa2c7c49e27456edf",
            "0x000000000000000000000000c06999313769622dad93d6d01642be9762e3b520"
          ],
          "data": "0x000000000000000000000000000000000000000000000005612493521ce525a2",
          "blockHash": "0xe075b0e9322e2a0d3b34d417da7a2b2af105533fd41a803840461549189ef90d",
          "blockNumber": "0x1734d5d",
          "transactionHash": "0x13ceddcbd138b892429ef35d37d41ab4b853c460916dbda4327b14534f9514d3",
          "transactionIndex": "0x7",
          "logIndex": "0x13",
          "removed": false
        }
      ],
      "logsBloom": "0x00000000000000000000000001000000000000000000000000000000002000000100000000000000000000000000000000000000100040000000000000200000000000000000000000000008000000000000000000000000020000000000000000000000000000000000100000000000000000000000000000000010000000000000000000000000004000000000000000000000000000000000000000000000020000000080000000000000000000000000000000000000000000000000000000000002000000000000000000000000000000000000000000000000000000000010002000000000000000000800000000000020000000000000000000000000",
      "type": "0x2",
      "transactionHash": "0x13ceddcbd138b892429ef35d37d41ab4b853c460916dbda4327b14534f9514d3",
      "transactionIndex": "0x7",
      "blockHash": "0xe075b0e9322e2a0d3b34d417da7a2b2af105533fd41a803840461549189ef90d",
      "blockNumber": "0x1734d5d",
      "gasUsed": "0x1727e",
      "effectiveGasPrice": "0xf433d",
      "from": "0xc06999313769622dad93d6d01642be9762e3b520",
      "to": "0x12452904be81b20ef06ee39fa2c7c49e27456edf",
      "contractAddress": null,
      "l1BaseFeeScalar": "0x1db0",
      "l1BlobBaseFee": "0x404ab3bea1",
      "l1BlobBaseFeeScalar": "0xd2730",
      "l1Fee": "0x15e6cdc040f8",
      "l1GasPrice": "0x55543f310",
      "l1GasUsed": "0x640"
    }
  ],
  "libraries": [],
  "pending": [],
  "returns": {},
  "timestamp": 1740469863,
  "chain": 11155420,
  "commit": "1a90a3b"
}