{
  "transactions": [
    {
      "hash": "0xb2fa29f477d8458ee26dd07c8f42f4001df58e0da206f5ca5f01dfa393d1ff31",
      "transactionType": "CALL",
      "contractName": null,
      "contractAddress": "0x47170ea51bf13019d7e1eb666a0d2e19767d2397",
      "function": "approve(address,uint256)",
      "arguments": [
        "0xa1bA1F0210319dd7e8abd51229012B692420a346",
        "10000000000000000000000"
      ],
      "transaction": {
        "from": "0xc06999313769622dad93d6d01642be9762e3b520",
        "to": "0x47170ea51bf13019d7e1eb666a0d2e19767d2397",
        "gas": "0xf9d2",
        "value": "0x0",
        "input": "0x095ea7b3000000000000000000000000a1ba1f0210319dd7e8abd51229012b692420a34600000000000000000000000000000000000000000000021e19e0c9bab2400000",
        "nonce": "0x6f",
        "chainId": "0xaa37dc"
      },
      "additionalContracts": [],
      "isFixedGasLimit": false
    },
    {
      "hash": "0xe6e0fd0e7041bbd5f162fb45751cf530bffa35c29cbc755566e6ea9e6e72cfa9",
      "transactionType": "CALL",
      "contractName": null,
      "contractAddress": "0xa1ba1f0210319dd7e8abd51229012b692420a346",
      "function": "sellTokens(uint256)",
      "arguments": [
        "10000000000000000000000"
      ],
      "transaction": {
        "from": "0xc06999313769622dad93d6d01642be9762e3b520",
        "to": "0xa1ba1f0210319dd7e8abd51229012b692420a346",
        "gas": "0x1d2f2",
        "value": "0x0",
        "input": "0x6c11bcd300000000000000000000000000000000000000000000021e19e0c9bab2400000",
        "nonce": "0x70",
        "chainId": "0xaa37dc"
      },
      "additionalContracts": [],
      "isFixedGasLimit": false
    }
  ],
  "receipts": [
    {
      "status": "0x1",
      "cumulativeGasUsed": "0x7a4e1",
      "logs": [
        {
          "address": "0x47170ea51bf13019d7e1eb666a0d2e19767d2397",
          "topics": [
            "0x8c5be1e5ebec7d5bd14f71427d1e84f3dd0314c0f7b2291e5b200ac8c7c3b925",
            "0x000000000000000000000000c06999313769622dad93d6d01642be9762e3b520",
            "0x000000000000000000000000a1ba1f0210319dd7e8abd51229012b692420a346"
          ],
          "data": "0x00000000000000000000000000000000000000000000021e19e0c9bab2400000",
          "blockHash": "0x1d3a300865b280d6c9868db142a527487e8ffddf68ad383f45da486855b7b40a",
          "blockNumber": "0x173605f",
          "transactionHash": "0xb2fa29f477d8458ee26dd07c8f42f4001df58e0da206f5ca5f01dfa393d1ff31",
          "transactionIndex": "0x5",
          "logIndex": "0x9",
          "removed": false
        }
      ],
      "logsBloom": "0x00000000000000000000000001000000000000000000000000000000000000000120000000000000000000000000000000000000000010000000000000200000000000000000000000000000000000000000000000000000000000000000000000200000000000000000100000000000000000000000000000000000000020000000000000004000000000000000000000000000000000000000000000000000020000000000000000080000000000000000000000000000000000000000000000000000000000000000000000000000000000000000000000000000000000000010000000000000000000000000000000000000000000000000000000000000",
      "type": "0x2",
      "transactionHash": "0xb2fa29f477d8458ee26dd07c8f42f4001df58e0da206f5ca5f01dfa393d1ff31",
      "transactionIndex": "0x5",
      "blockHash": "0x1d3a300865b280d6c9868db142a527487e8ffddf68ad383f45da486855b7b40a",
      "blockNumber": "0x173605f",
      "gasUsed": "0xb4df",
      "effectiveGasPrice": "0xf4343",
      "from": "0xc06999313769622dad93d6d01642be9762e3b520",
      "to": "0x47170ea51bf13019d7e1eb666a0d2e19767d2397",
      "contractAddress": null,
      "l1BaseFeeScalar": "0x1db0",
      "l1BlobBaseFee": "0x878e91113d",
      "l1BlobBaseFeeScalar": "0xd2730",
      "l1Fee": "0x2e067ea6501b",
      "l1GasPrice": "0x8046b0171",
      "l1GasUsed": "0x640"
    },
    {
      "status": "0x1",
      "cumulativeGasUsed": "0x8f6f1",
      "logs": [
        {
          "address": "0x47170ea51bf13019d7e1eb666a0d2e19767d2397",
          "topics": [
            "0x8c5be1e5ebec7d5bd14f71427d1e84f3dd0314c0f7b2291e5b200ac8c7c3b925",
            "0x000000000000000000000000c06999313769622dad93d6d01642be9762e3b520",
            "0x000000000000000000000000a1ba1f0210319dd7e8abd51229012b692420a346"
          ],
          "data": "0x0000000000000000000000000000000000000000000000000000000000000000",
          "blockHash": "0x1d3a300865b280d6c9868db142a527487e8ffddf68ad383f45da486855b7b40a",
          "blockNumber": "0x173605f",
          "transactionHash": "0xe6e0fd0e7041bbd5f162fb45751cf530bffa35c29cbc755566e6ea9e6e72cfa9",
          "transactionIndex": "0x6",
          "logIndex": "0xa",
          "removed": false
        },
        {
          "address": "0x47170ea51bf13019d7e1eb666a0d2e19767d2397",
          "topics": [
            "0xddf252ad1be2c89b69c2b068fc378daa952ba7f163c4a11628f55a4df523b3ef",
            "0x000000000000000000000000c06999313769622dad93d6d01642be9762e3b520",
            "0x000000000000000000000000a1ba1f0210319dd7e8abd51229012b692420a346"
          ],
          "data": "0x00000000000000000000000000000000000000000000021e19e0c9bab2400000",
          "blockHash": "0x1d3a300865b280d6c9868db142a527487e8ffddf68ad383f45da486855b7b40a",
          "blockNumber": "0x173605f",
          "transactionHash": "0xe6e0fd0e7041bbd5f162fb45751cf530bffa35c29cbc755566e6ea9e6e72cfa9",
          "transactionIndex": "0x6",
          "logIndex": "0xb",
          "removed": false
        },
        {
          "address": "0x966be3df28040313a6ecc5c925f07b169b87cbb7",
          "topics": [
            "0xddf252ad1be2c89b69c2b068fc378daa952ba7f163c4a11628f55a4df523b3ef",
            "0x000000000000000000000000a1ba1f0210319dd7e8abd51229012b692420a346",
            "0x000000000000000000000000c06999313769622dad93d6d01642be9762e3b520"
          ],
          "data": "0x000000000000000000000000000000000000000000000000000000001dccd108",
          "blockHash": "0x1d3a300865b280d6c9868db142a527487e8ffddf68ad383f45da486855b7b40a",
          "blockNumber": "0x173605f",
          "transactionHash": "0xe6e0fd0e7041bbd5f162fb45751cf530bffa35c29cbc755566e6ea9e6e72cfa9",
          "transactionIndex": "0x6",
          "logIndex": "0xc",
          "removed": false
        },
        {
          "address": "0x966be3df28040313a6ecc5c925f07b169b87cbb7",
          "topics": [
            "0xddf252ad1be2c89b69c2b068fc378daa952ba7f163c4a11628f55a4df523b3ef",
            "0x000000000000000000000000a1ba1f0210319dd7e8abd51229012b692420a346",
            "0x000000000000000000000000c06999313769622dad93d6d01642be9762e3b520"
          ],
          "data": "0x000000000000000000000000000000000000000000000000000000000007a8d2",
          "blockHash": "0x1d3a300865b280d6c9868db142a527487e8ffddf68ad383f45da486855b7b40a",
          "blockNumber": "0x173605f",
          "transactionHash": "0xe6e0fd0e7041bbd5f162fb45751cf530bffa35c29cbc755566e6ea9e6e72cfa9",
          "transactionIndex": "0x6",
          "logIndex": "0xd",
          "removed": false
        },
        {
          "address": "0xa1ba1f0210319dd7e8abd51229012b692420a346",
          "topics": [
            "0x6db63bebf1e6540277744df32846ebdb98385b1a73f2d5de49b28348add63f50",
            "0x000000000000000000000000c06999313769622dad93d6d01642be9762e3b520"
          ],
          "data": "0x00000000000000000000000000000000000000000000021e19e0c9bab2400000000000000000000000000000000000000000000000000000000000001dccd1080000000000000000000000000000000000000000000000000000000000000028",
          "blockHash": "0x1d3a300865b280d6c9868db142a527487e8ffddf68ad383f45da486855b7b40a",
          "blockNumber": "0x173605f",
          "transactionHash": "0xe6e0fd0e7041bbd5f162fb45751cf530bffa35c29cbc755566e6ea9e6e72cfa9",
          "transactionIndex": "0x6",
          "logIndex": "0xe",
          "removed": false
        }
      ],
      "logsBloom": "0x00000000000000000000000001000000000000000000000000000000000000000120000000000000000000000000000000000000000010000000000000200000000000000000020000000008000000000000000000000000000000000000000000200001000000000000100000000000000000200000000000000010000020000000000000004000000000000000000000000000000000000000000000000000020000000000000000080200000000000000000000000000000000000000000002000002000000000010000000080000000000000000000000000000000000000010000000000000000000000000000000000000000000200000000010000000",
      "type": "0x2",
      "transactionHash": "0xe6e0fd0e7041bbd5f162fb45751cf530bffa35c29cbc755566e6ea9e6e72cfa9",
      "transactionIndex": "0x6",
      "blockHash": "0x1d3a300865b280d6c9868db142a527487e8ffddf68ad383f45da486855b7b40a",
      "blockNumber": "0x173605f",
      "gasUsed": "0x15210",
      "effectiveGasPrice": "0xf4343",
      "from": "0xc06999313769622dad93d6d01642be9762e3b520",
      "to": "0xa1ba1f0210319dd7e8abd51229012b692420a346",
      "contractAddress": null,
      "l1BaseFeeScalar": "0x1db0",
      "l1BlobBaseFee": "0x878e91113d",
      "l1BlobBaseFeeScalar": "0xd2730",
      "l1Fee": "0x2e067ea6501b",
      "l1GasPrice": "0x8046b0171",
      "l1GasUsed": "0x640"
    }
  ],
  "libraries": [],
  "pending": [],
  "returns": {},
  "timestamp": 1740479594,
  "chain": 11155420,
  "commit": "6f5774f"
}