{
  "transactions": [
    {
      "hash": "0x01d520d208e683776b7f461f6cc75f07a572f5f663e67a9c402098cd3f5d1a02",
      "transactionType": "CALL",
      "contractName": null,
      "contractAddress": "0x0ec98aa4218e9db07c8ff0d2ade4b8e8e6dd2e5f",
      "function": "approve(address,uint256)",
      "arguments": [
        "0xBb535A3dbeEa0e2eAce9dF4caFEA8A1a4d0D8Ff6",
        "1010000"
      ],
      "transaction": {
        "from": "0xc06999313769622dad93d6d01642be9762e3b520",
        "to": "0x0ec98aa4218e9db07c8ff0d2ade4b8e8e6dd2e5f",
        "gas": "0x1082d",
        "value": "0x0",
        "input": "0x095ea7b3000000000000000000000000bb535a3dbeea0e2eace9df4cafea8a1a4d0d8ff600000000000000000000000000000000000000000000000000000000000f6950",
        "nonce": "0xf",
        "chainId": "0xaa37dc"
      },
      "additionalContracts": [],
      "isFixedGasLimit": false
    },
    {
      "hash": "0xb1850280763cf19458a583a173caa27978d0f85dc818527bf9a2375dca9c7ee8",
      "transactionType": "CALL",
      "contractName": null,
      "contractAddress": "0xbb535a3dbeea0e2eace9df4cafea8a1a4d0d8ff6",
      "function": "buyTokens(uint256)",
      "arguments": [
        "1010000"
      ],
      "transaction": {
        "from": "0xc06999313769622dad93d6d01642be9762e3b520",
        "to": "0xbb535a3dbeea0e2eace9df4cafea8a1a4d0d8ff6",
        "gas": "0x39da1",
        "value": "0x0",
        "input": "0x3610724e00000000000000000000000000000000000000000000000000000000000f6950",
        "nonce": "0x10",
        "chainId": "0xaa37dc"
      },
      "additionalContracts": [],
      "isFixedGasLimit": false
    }
  ],
  "receipts": [
    {
      "status": "0x1",
      "cumulativeGasUsed": "0x445c68",
      "logs": [
        {
          "address": "0x0ec98aa4218e9db07c8ff0d2ade4b8e8e6dd2e5f",
          "topics": [
            "0x8c5be1e5ebec7d5bd14f71427d1e84f3dd0314c0f7b2291e5b200ac8c7c3b925",
            "0x000000000000000000000000c06999313769622dad93d6d01642be9762e3b520",
            "0x000000000000000000000000bb535a3dbeea0e2eace9df4cafea8a1a4d0d8ff6"
          ],
          "data": "0x00000000000000000000000000000000000000000000000000000000000f6950",
          "blockHash": "0x765b13432c551a021f23060a3637eb1a11bfd9a8b7c6b2a4666ae1154d3353e2",
          "blockNumber": "0x172eed5",
          "transactionHash": "0x01d520d208e683776b7f461f6cc75f07a572f5f663e67a9c402098cd3f5d1a02",
          "transactionIndex": "0x4",
          "logIndex": "0x12",
          "removed": false
        }
      ],
      "logsBloom": "0x00000000000000000000000001000000000000000000000000000000000000000100000000000000000000000000000000000000000000000000000000200000000000000000000000000000000000880000000000000000001000000000000000000000000000000000100000000000000000000000000040000000000000000000000000000000000000000000000000000000000000000000000000000000020000000000000000000000000000000000000000000000000000000010000000000000000000000000000000000000000000000000000000000000000000000010000004000000000000000000000000000000000000000000000000000000",
      "type": "0x2",
      "transactionHash": "0x01d520d208e683776b7f461f6cc75f07a572f5f663e67a9c402098cd3f5d1a02",
      "transactionIndex": "0x4",
      "blockHash": "0x765b13432c551a021f23060a3637eb1a11bfd9a8b7c6b2a4666ae1154d3353e2",
      "blockNumber": "0x172eed5",
      "gasUsed": "0xb4a3",
      "effectiveGasPrice": "0xf4390",
      "from": "0xc06999313769622dad93d6d01642be9762e3b520",
      "to": "0x0ec98aa4218e9db07c8ff0d2ade4b8e8e6dd2e5f",
      "contractAddress": null,
      "l1BaseFeeScalar": "0x1db0",
      "l1BlobBaseFee": "0x36a4936",
      "l1BlobBaseFeeScalar": "0xd2730",
      "l1Fee": "0x12bb2d04ac",
      "l1GasPrice": "0x172216b17",
      "l1GasUsed": "0x640"
    },
    {
      "status": "0x1",
      "cumulativeGasUsed": "0x46fa8c",
      "logs": [
        {
          "address": "0x0ec98aa4218e9db07c8ff0d2ade4b8e8e6dd2e5f",
          "topics": [
            "0x8c5be1e5ebec7d5bd14f71427d1e84f3dd0314c0f7b2291e5b200ac8c7c3b925",
            "0x000000000000000000000000c06999313769622dad93d6d01642be9762e3b520",
            "0x000000000000000000000000bb535a3dbeea0e2eace9df4cafea8a1a4d0d8ff6"
          ],
          "data": "0x0000000000000000000000000000000000000000000000000000000000000000",
          "blockHash": "0x765b13432c551a021f23060a3637eb1a11bfd9a8b7c6b2a4666ae1154d3353e2",
          "blockNumber": "0x172eed5",
          "transactionHash": "0xb1850280763cf19458a583a173caa27978d0f85dc818527bf9a2375dca9c7ee8",
          "transactionIndex": "0x5",
          "logIndex": "0x13",
          "removed": false
        },
        {
          "address": "0x0ec98aa4218e9db07c8ff0d2ade4b8e8e6dd2e5f",
          "topics": [
            "0xddf252ad1be2c89b69c2b068fc378daa952ba7f163c4a11628f55a4df523b3ef",
            "0x000000000000000000000000c06999313769622dad93d6d01642be9762e3b520",
            "0x000000000000000000000000bb535a3dbeea0e2eace9df4cafea8a1a4d0d8ff6"
          ],
          "data": "0x00000000000000000000000000000000000000000000000000000000000f6950",
          "blockHash": "0x765b13432c551a021f23060a3637eb1a11bfd9a8b7c6b2a4666ae1154d3353e2",
          "blockNumber": "0x172eed5",
          "transactionHash": "0xb1850280763cf19458a583a173caa27978d0f85dc818527bf9a2375dca9c7ee8",
          "transactionIndex": "0x5",
          "logIndex": "0x14",
          "removed": false
        },
        {
          "address": "0xf2dfa80e04287186d73431af0ab09321d8e97dba",
          "topics": [
            "0xddf252ad1be2c89b69c2b068fc378daa952ba7f163c4a11628f55a4df523b3ef",
            "0x000000000000000000000000bb535a3dbeea0e2eace9df4cafea8a1a4d0d8ff6",
            "0x000000000000000000000000c06999313769622dad93d6d01642be9762e3b520"
          ],
          "data": "0x0000000000000000000000000000000000000000000000000000000005f5b9f0",
          "blockHash": "0x765b13432c551a021f23060a3637eb1a11bfd9a8b7c6b2a4666ae1154d3353e2",
          "blockNumber": "0x172eed5",
          "transactionHash": "0xb1850280763cf19458a583a173caa27978d0f85dc818527bf9a2375dca9c7ee8",
          "transactionIndex": "0x5",
          "logIndex": "0x15",
          "removed": false
        },
        {
          "address": "0xbb535a3dbeea0e2eace9df4cafea8a1a4d0d8ff6",
          "topics": [
            "0x0d1a0d5e3d583a0e92588799dd06e50fd78c07daf05f0cc06d7b848b1ca445f1",
            "0x000000000000000000000000c06999313769622dad93d6d01642be9762e3b520"
          ],
          "data": "0x00000000000000000000000000000000000000000000000000000000000f69500000000000000000000000000000000000000000000000000000000005f5b9f00000000000000000000000000000000000000000000000000000000000002774",
          "blockHash": "0x765b13432c551a021f23060a3637eb1a11bfd9a8b7c6b2a4666ae1154d3353e2",
          "blockNumber": "0x172eed5",
          "transactionHash": "0xb1850280763cf19458a583a173caa27978d0f85dc818527bf9a2375dca9c7ee8",
          "transactionIndex": "0x5",
          "logIndex": "0x16",
          "removed": false
        }
      ],
      "logsBloom": "0x02000000000000000000000001000000000000000000000000000000000000000100000000000000000000000000000000000000000000000000000000200000000000000000400000000008000000880000000000000000001000000000001000000000000000004000100000000000000000000000000040000010000000000000000000000000000000000000000000000000000000000000000000000002020000000000000000000000000000000000000000000000400000000010004000000002000000004000000000000000000000800000000000000000000000000010000004000000000000000000000000000000000000000000000000000000",
      "type": "0x2",
      "transactionHash": "0xb1850280763cf19458a583a173caa27978d0f85dc818527bf9a2375dca9c7ee8",
      "transactionIndex": "0x5",
      "blockHash": "0x765b13432c551a021f23060a3637eb1a11bfd9a8b7c6b2a4666ae1154d3353e2",
      "blockNumber": "0x172eed5",
      "gasUsed": "0x29e24",
      "effectiveGasPrice": "0xf4390",
      "from": "0xc06999313769622dad93d6d01642be9762e3b520",
      "to": "0xbb535a3dbeea0e2eace9df4cafea8a1a4d0d8ff6",
      "contractAddress": null,
      "l1BaseFeeScalar": "0x1db0",
      "l1BlobBaseFee": "0x36a4936",
      "l1BlobBaseFeeScalar": "0xd2730",
      "l1Fee": "0x12bb2d04ac",
      "l1GasPrice": "0x172216b17",
      "l1GasUsed": "0x640"
    }
  ],
  "libraries": [],
  "pending": [],
  "returns": {},
  "timestamp": 1740421462,
  "chain": 11155420,
  "commit": "1a215eb"
}