{
  "transactions": [
    {
      "hash": "0xb5308b02a648fc7dd75834ed5c29c43aeaa22b815df4e09278cd7abf9d1d7b42",
      "transactionType": "CALL",
      "contractName": null,
      "contractAddress": "0xe5c212de64a5481e719d7c6ee8d00f2cb9a20864",
      "function": "approve(address,uint256)",
      "arguments": [
        "0x1cEE9Bd2bdCD04e3880a51210AC78F5D70DD1B9B",
        "10000000000"
      ],
      "transaction": {
        "from": "0xc06999313769622dad93d6d01642be9762e3b520",
        "to": "0xe5c212de64a5481e719d7c6ee8d00f2cb9a20864",
        "gas": "0xa68e",
        "value": "0x0",
        "input": "0x095ea7b30000000000000000000000001cee9bd2bdcd04e3880a51210ac78f5d70dd1b9b00000000000000000000000000000000000000000000000000000002540be400",
        "nonce": "0x19",
        "chainId": "0xaa37dc"
      },
      "additionalContracts": [],
      "isFixedGasLimit": false
    },
    {
      "hash": "0x5e480e09297126f9567ff04f56ddc9574d222cc65c6959ea1d0981927fecbdb6",
      "transactionType": "CALL",
      "contractName": null,
      "contractAddress": "0x1cee9bd2bdcd04e3880a51210ac78f5d70dd1b9b",
      "function": "buyTokens(uint256)",
      "arguments": [
        "10000000000"
      ],
      "transaction": {
        "from": "0xc06999313769622dad93d6d01642be9762e3b520",
        "to": "0x1cee9bd2bdcd04e3880a51210ac78f5d70dd1b9b",
        "gas": "0x344bb",
        "value": "0x0",
        "input": "0x3610724e00000000000000000000000000000000000000000000000000000002540be400",
        "nonce": "0x1a",
        "chainId": "0xaa37dc"
      },
      "additionalContracts": [],
      "isFixedGasLimit": false
    }
  ],
  "receipts": [
    {
      "status": "0x1",
      "cumulativeGasUsed": "0x30bea",
      "logs": [
        {
          "address": "0xe5c212de64a5481e719d7c6ee8d00f2cb9a20864",
          "topics": [
            "0x8c5be1e5ebec7d5bd14f71427d1e84f3dd0314c0f7b2291e5b200ac8c7c3b925",
            "0x000000000000000000000000c06999313769622dad93d6d01642be9762e3b520",
            "0x0000000000000000000000001cee9bd2bdcd04e3880a51210ac78f5d70dd1b9b"
          ],
          "data": "0x00000000000000000000000000000000000000000000000000000002540be400",
          "blockHash": "0x397bf0034a03ada38b88b1ac7153bc3db84ae01e07e8e7deaa1c9ef34fb9e181",
          "blockNumber": "0x1734326",
          "transactionHash": "0xb5308b02a648fc7dd75834ed5c29c43aeaa22b815df4e09278cd7abf9d1d7b42",
          "transactionIndex": "0x2",
          "logIndex": "0x3",
          "removed": false
        }
      ],
      "logsBloom": "0x00400000000000000000000001000000000000000000000000008000000000000100000000000000000000000000000000000400000000000000000000200000000000000000000000000000000000000000000000000000000000000000008000000000000000000000100000000000000000000000000000000000000000000000800000000000000000000000000000000000000000000000000000000000020000000000000000000000000040000000000000000000000000000000000000000000000000000000000000000000000000000000000000000000000000000010000000000000000000000000000000000000000000000000000000000000",
      "type": "0x2",
      "transactionHash": "0xb5308b02a648fc7dd75834ed5c29c43aeaa22b815df4e09278cd7abf9d1d7b42",
      "transactionIndex": "0x2",
      "blockHash": "0x397bf0034a03ada38b88b1ac7153bc3db84ae01e07e8e7deaa1c9ef34fb9e181",
      "blockNumber": "0x1734326",
      "gasUsed": "0x71e3",
      "effectiveGasPrice": "0xf4340",
      "from": "0xc06999313769622dad93d6d01642be9762e3b520",
      "to": "0xe5c212de64a5481e719d7c6ee8d00f2cb9a20864",
      "contractAddress": null,
      "l1BaseFeeScalar": "0x1db0",
      "l1BlobBaseFee": "0x8390c2c1",
      "l1BlobBaseFeeScalar": "0xd2730",
      "l1Fee": "0x3fb9a43143",
      "l1GasPrice": "0x198f05f7a",
      "l1GasUsed": "0x640"
    },
    {
      "status": "0x1",
      "cumulativeGasUsed": "0x569b2",
      "logs": [
        {
          "address": "0xe5c212de64a5481e719d7c6ee8d00f2cb9a20864",
          "topics": [
            "0x8c5be1e5ebec7d5bd14f71427d1e84f3dd0314c0f7b2291e5b200ac8c7c3b925",
            "0x000000000000000000000000c06999313769622dad93d6d01642be9762e3b520",
            "0x0000000000000000000000001cee9bd2bdcd04e3880a51210ac78f5d70dd1b9b"
          ],
          "data": "0x0000000000000000000000000000000000000000000000000000000000989680",
          "blockHash": "0x397bf0034a03ada38b88b1ac7153bc3db84ae01e07e8e7deaa1c9ef34fb9e181",
          "blockNumber": "0x1734326",
          "transactionHash": "0x5e480e09297126f9567ff04f56ddc9574d222cc65c6959ea1d0981927fecbdb6",
          "transactionIndex": "0x3",
          "logIndex": "0x4",
          "removed": false
        },
        {
          "address": "0xe5c212de64a5481e719d7c6ee8d00f2cb9a20864",
          "topics": [
            "0xddf252ad1be2c89b69c2b068fc378daa952ba7f163c4a11628f55a4df523b3ef",
            "0x000000000000000000000000c06999313769622dad93d6d01642be9762e3b520",
            "0x0000000000000000000000001cee9bd2bdcd04e3880a51210ac78f5d70dd1b9b"
          ],
          "data": "0x0000000000000000000000000000000000000000000000000000000253734d80",
          "blockHash": "0x397bf0034a03ada38b88b1ac7153bc3db84ae01e07e8e7deaa1c9ef34fb9e181",
          "blockNumber": "0x1734326",
          "transactionHash": "0x5e480e09297126f9567ff04f56ddc9574d222cc65c6959ea1d0981927fecbdb6",
          "transactionIndex": "0x3",
          "logIndex": "0x5",
          "removed": false
        },
        {
          "address": "0xe5c212de64a5481e719d7c6ee8d00f2cb9a20864",
          "topics": [
            "0x8c5be1e5ebec7d5bd14f71427d1e84f3dd0314c0f7b2291e5b200ac8c7c3b925",
            "0x000000000000000000000000c06999313769622dad93d6d01642be9762e3b520",
            "0x0000000000000000000000001cee9bd2bdcd04e3880a51210ac78f5d70dd1b9b"
          ],
          "data": "0x0000000000000000000000000000000000000000000000000000000000000000",
          "blockHash": "0x397bf0034a03ada38b88b1ac7153bc3db84ae01e07e8e7deaa1c9ef34fb9e181",
          "blockNumber": "0x1734326",
          "transactionHash": "0x5e480e09297126f9567ff04f56ddc9574d222cc65c6959ea1d0981927fecbdb6",
          "transactionIndex": "0x3",
          "logIndex": "0x6",
          "removed": false
        },
        {
          "address": "0xe5c212de64a5481e719d7c6ee8d00f2cb9a20864",
          "topics": [
            "0xddf252ad1be2c89b69c2b068fc378daa952ba7f163c4a11628f55a4df523b3ef",
            "0x000000000000000000000000c06999313769622dad93d6d01642be9762e3b520",
            "0x000000000000000000000000c06999313769622dad93d6d01642be9762e3b520"
          ],
          "data": "0x0000000000000000000000000000000000000000000000000000000000989680",
          "blockHash": "0x397bf0034a03ada38b88b1ac7153bc3db84ae01e07e8e7deaa1c9ef34fb9e181",
          "blockNumber": "0x1734326",
          "transactionHash": "0x5e480e09297126f9567ff04f56ddc9574d222cc65c6959ea1d0981927fecbdb6",
          "transactionIndex": "0x3",
          "logIndex": "0x7",
          "removed": false
        },
        {
          "address": "0xaf36a1b261e42946f47b6eed24db5478e9b46f16",
          "topics": [
            "0xddf252ad1be2c89b69c2b068fc378daa952ba7f163c4a11628f55a4df523b3ef",
            "0x0000000000000000000000001cee9bd2bdcd04e3880a51210ac78f5d70dd1b9b",
            "0x000000000000000000000000c06999313769622dad93d6d01642be9762e3b520"
          ],
          "data": "0x00000000000000000000000000000000000000000000d31f7a71c39c05200000",
          "blockHash": "0x397bf0034a03ada38b88b1ac7153bc3db84ae01e07e8e7deaa1c9ef34fb9e181",
          "blockNumber": "0x1734326",
          "transactionHash": "0x5e480e09297126f9567ff04f56ddc9574d222cc65c6959ea1d0981927fecbdb6",
          "transactionIndex": "0x3",
          "logIndex": "0x8",
          "removed": false
        }
      ],
      "logsBloom": "0x00400000008000000000000001000000000000000000000000008000000000000100000000000000000000000000000000000400000000000000000000200000000000000000000000000008000000000000000000000008000000000000008000000000000000000000100000000000000000000000000000000010000000000000800000000000000000000000000000000000000000000000000000000000020000000000000000000000000040000000000000000000000000000000000000000002000000000000000000000000000000000000000000000000000000000010000000000000000000000000000000000000000000000000000000000100",
      "type": "0x2",
      "transactionHash": "0x5e480e09297126f9567ff04f56ddc9574d222cc65c6959ea1d0981927fecbdb6",
      "transactionIndex": "0x3",
      "blockHash": "0x397bf0034a03ada38b88b1ac7153bc3db84ae01e07e8e7deaa1c9ef34fb9e181",
      "blockNumber": "0x1734326",
      "gasUsed": "0x25dc8",
      "effectiveGasPrice": "0xf4340",
      "from": "0xc06999313769622dad93d6d01642be9762e3b520",
      "to": "0x1cee9bd2bdcd04e3880a51210ac78f5d70dd1b9b",
      "contractAddress": null,
      "l1BaseFeeScalar": "0x1db0",
      "l1BlobBaseFee": "0x8390c2c1",
      "l1BlobBaseFeeScalar": "0xd2730",
      "l1Fee": "0x3fb9a43143",
      "l1GasPrice": "0x198f05f7a",
      "l1GasUsed": "0x640"
    }
  ],
  "libraries": [],
  "pending": [],
  "returns": {},
  "timestamp": 1740464633,
  "chain": 11155420,
  "commit": "106638d"
}