{
  "transactions": [
    {
      "hash": "0x7adfb640cdf2699a3879bf890843aa8f1135be3488734870739ba8fd4d95782e",
      "transactionType": "CALL",
      "contractName": null,
      "contractAddress": "0x0ec98aa4218e9db07c8ff0d2ade4b8e8e6dd2e5f",
      "function": "approve(address,uint256)",
      "arguments": [
        "0xd4aAa5610b0eE8e2E55B0ec851dd3A7c55b5dDD8",
        "1000000"
      ],
      "transaction": {
        "from": "0xc06999313769622dad93d6d01642be9762e3b520",
        "to": "0x0ec98aa4218e9db07c8ff0d2ade4b8e8e6dd2e5f",
        "gas": "0x1082d",
        "value": "0x0",
        "input": "0x095ea7b3000000000000000000000000d4aaa5610b0ee8e2e55b0ec851dd3a7c55b5ddd800000000000000000000000000000000000000000000000000000000000f4240",
        "nonce": "0x6",
        "chainId": "0xaa37dc"
      },
      "additionalContracts": [],
      "isFixedGasLimit": false
    },
    {
      "hash": "0x44806715f2180c6e067079fa83cf4ab71977aab7bf6228ee1225798335dca682",
      "transactionType": "CALL",
      "contractName": null,
      "contractAddress": "0xd4aaa5610b0ee8e2e55b0ec851dd3a7c55b5ddd8",
      "function": "buyTokens(uint256)",
      "arguments": [
        "1000000"
      ],
      "transaction": {
        "from": "0xc06999313769622dad93d6d01642be9762e3b520",
        "to": "0xd4aaa5610b0ee8e2e55b0ec851dd3a7c55b5ddd8",
        "gas": "0x1edd6",
        "value": "0x0",
        "input": "0x3610724e00000000000000000000000000000000000000000000000000000000000f4240",
        "nonce": "0x7",
        "chainId": "0xaa37dc"
      },
      "additionalContracts": [],
      "isFixedGasLimit": false
    }
  ],
  "receipts": [
    {
      "status": "0x1",
      "cumulativeGasUsed": "0x55fe77",
      "logs": [
        {
          "address": "0x0ec98aa4218e9db07c8ff0d2ade4b8e8e6dd2e5f",
          "topics": [
            "0x8c5be1e5ebec7d5bd14f71427d1e84f3dd0314c0f7b2291e5b200ac8c7c3b925",
            "0x000000000000000000000000c06999313769622dad93d6d01642be9762e3b520",
            "0x000000000000000000000000d4aaa5610b0ee8e2e55b0ec851dd3a7c55b5ddd8"
          ],
          "data": "0x00000000000000000000000000000000000000000000000000000000000f4240",
          "blockHash": "0x27677700c82197af441418b1d2a05e63179e694fe8a6bc47f431967ea0feab86",
          "blockNumber": "0x172edab",
          "transactionHash": "0x7adfb640cdf2699a3879bf890843aa8f1135be3488734870739ba8fd4d95782e",
          "transactionIndex": "0x6",
          "logIndex": "0x19",
          "removed": false
        }
      ],
      "logsBloom": "0x00000000000000000000000001000000000000000000000000000000000000000100000000000000000000000000000000000000000000000000800010200000000000000000000000000000000000c80000000000000000000000000000000000000000000000000000100000000000000000000000000040000000000000000000000000000000000000000000000000000000000000000000000000000000020000000000000000000000000000000000000000000000000000000000000000000000000000000000000000000000000000000000000000000000000000000010000000000000000000000000000000000000000000000000000000000000",
      "type": "0x2",
      "transactionHash": "0x7adfb640cdf2699a3879bf890843aa8f1135be3488734870739ba8fd4d95782e",
      "transactionIndex": "0x6",
      "blockHash": "0x27677700c82197af441418b1d2a05e63179e694fe8a6bc47f431967ea0feab86",
      "blockNumber": "0x172edab",
      "gasUsed": "0xb4a3",
      "effectiveGasPrice": "0xf437b",
      "from": "0xc06999313769622dad93d6d01642be9762e3b520",
      "to": "0x0ec98aa4218e9db07c8ff0d2ade4b8e8e6dd2e5f",
      "contractAddress": null,
      "l1BaseFeeScalar": "0x1db0",
      "l1BlobBaseFee": "0x12ee318",
      "l1BlobBaseFeeScalar": "0xd2730",
      "l1Fee": "0x1435d3f386",
      "l1GasPrice": "0x1a1179526",
      "l1GasUsed": "0x640"
    },
    {
      "status": "0x1",
      "cumulativeGasUsed": "0x11e371",
      "logs": [
        {
          "address": "0x0ec98aa4218e9db07c8ff0d2ade4b8e8e6dd2e5f",
          "topics": [
            "0x8c5be1e5ebec7d5bd14f71427d1e84f3dd0314c0f7b2291e5b200ac8c7c3b925",
            "0x000000000000000000000000c06999313769622dad93d6d01642be9762e3b520",
            "0x000000000000000000000000d4aaa5610b0ee8e2e55b0ec851dd3a7c55b5ddd8"
          ],
          "data": "0x0000000000000000000000000000000000000000000000000000000000000000",
          "blockHash": "0x126969d0a43b4e0e0ca0d967b6ed569f3a2d76147684133afdaf5a4d9be93601",
          "blockNumber": "0x172edac",
          "transactionHash": "0x44806715f2180c6e067079fa83cf4ab71977aab7bf6228ee1225798335dca682",
          "transactionIndex": "0x2",
          "logIndex": "0x10",
          "removed": false
        },
        {
          "address": "0x0ec98aa4218e9db07c8ff0d2ade4b8e8e6dd2e5f",
          "topics": [
            "0xddf252ad1be2c89b69c2b068fc378daa952ba7f163c4a11628f55a4df523b3ef",
            "0x000000000000000000000000c06999313769622dad93d6d01642be9762e3b520",
            "0x000000000000000000000000d4aaa5610b0ee8e2e55b0ec851dd3a7c55b5ddd8"
          ],
          "data": "0x00000000000000000000000000000000000000000000000000000000000f4240",
          "blockHash": "0x126969d0a43b4e0e0ca0d967b6ed569f3a2d76147684133afdaf5a4d9be93601",
          "blockNumber": "0x172edac",
          "transactionHash": "0x44806715f2180c6e067079fa83cf4ab71977aab7bf6228ee1225798335dca682",
          "transactionIndex": "0x2",
          "logIndex": "0x11",
          "removed": false
        },
        {
          "address": "0xc939c1fb1cebc67a10463aa04cba9779c0499d5e",
          "topics": [
            "0xddf252ad1be2c89b69c2b068fc378daa952ba7f163c4a11628f55a4df523b3ef",
            "0x000000000000000000000000d4aaa5610b0ee8e2e55b0ec851dd3a7c55b5ddd8",
            "0x000000000000000000000000c06999313769622dad93d6d01642be9762e3b520"
          ],
          "data": "0x00000000000000000000000000000000000000000000000000000000000ef484",
          "blockHash": "0x126969d0a43b4e0e0ca0d967b6ed569f3a2d76147684133afdaf5a4d9be93601",
          "blockNumber": "0x172edac",
          "transactionHash": "0x44806715f2180c6e067079fa83cf4ab71977aab7bf6228ee1225798335dca682",
          "transactionIndex": "0x2",
          "logIndex": "0x12",
          "removed": false
        },
        {
          "address": "0xd4aaa5610b0ee8e2e55b0ec851dd3a7c55b5ddd8",
          "topics": [
            "0x0d1a0d5e3d583a0e92588799dd06e50fd78c07daf05f0cc06d7b848b1ca445f1",
            "0x000000000000000000000000c06999313769622dad93d6d01642be9762e3b520"
          ],
          "data": "0x00000000000000000000000000000000000000000000000000000000000f424000000000000000000000000000000000000000000000000000000000000ef4840000000000000000000000000000000000000000000000000000000000002710",
          "blockHash": "0x126969d0a43b4e0e0ca0d967b6ed569f3a2d76147684133afdaf5a4d9be93601",
          "blockNumber": "0x172edac",
          "transactionHash": "0x44806715f2180c6e067079fa83cf4ab71977aab7bf6228ee1225798335dca682",
          "transactionIndex": "0x2",
          "logIndex": "0x13",
          "removed": false
        }
      ],
      "logsBloom": "0x02000000000000000000000001000000000000000000000000000000000000000100000000000000000000000000000000000000000000000000800010200000000000000000000000000008000000c80001000000000020000000000000000000000000000000000000100000000000000000000000000040000010000000000000000000000000000000000000010000000000000000000000000000000000020000000000000000000000000000000000000000000000000000000000004000000002000000000000000000000000000000800000000000000010000000000010000000000000000800000000000000000000000000000000000020000000",
      "type": "0x2",
      "transactionHash": "0x44806715f2180c6e067079fa83cf4ab71977aab7bf6228ee1225798335dca682",
      "transactionIndex": "0x2",
      "blockHash": "0x126969d0a43b4e0e0ca0d967b6ed569f3a2d76147684133afdaf5a4d9be93601",
      "blockNumber": "0x172edac",
      "gasUsed": "0x151ab",
      "effectiveGasPrice": "0xf437b",
      "from": "0xc06999313769622dad93d6d01642be9762e3b520",
      "to": "0xd4aaa5610b0ee8e2e55b0ec851dd3a7c55b5ddd8",
      "contractAddress": null,
      "l1BaseFeeScalar": "0x1db0",
      "l1BlobBaseFee": "0x12ee318",
      "l1BlobBaseFeeScalar": "0xd2730",
      "l1Fee": "0x151f7a3905",
      "l1GasPrice": "0x1b44e84f8",
      "l1GasUsed": "0x640"
    }
  ],
  "libraries": [],
  "pending": [],
  "returns": {},
  "timestamp": 1740420870,
  "chain": 11155420,
  "commit": "1a215eb"
}