{
  "transactions": [
    {
      "hash": "0x087b6c15acd4b7ac3a3779d0ec3cc257fa0120ba190ff6c9d636aa65585b6901",
      "transactionType": "CALL",
      "contractName": null,
      "contractAddress": "0x0ec98aa4218e9db07c8ff0d2ade4b8e8e6dd2e5f",
      "function": "approve(address,uint256)",
      "arguments": [
        "0xd4aAa5610b0eE8e2E55B0ec851dd3A7c55b5dDD8",
        "1028779"
      ],
      "transaction": {
        "from": "0xc06999313769622dad93d6d01642be9762e3b520",
        "to": "0x0ec98aa4218e9db07c8ff0d2ade4b8e8e6dd2e5f",
        "gas": "0x1082d",
        "value": "0x0",
        "input": "0x095ea7b3000000000000000000000000d4aaa5610b0ee8e2e55b0ec851dd3a7c55b5ddd800000000000000000000000000000000000000000000000000000000000fb2ab",
        "nonce": "0xa",
        "chainId": "0xaa37dc"
      },
      "additionalContracts": [],
      "isFixedGasLimit": false
    },
    {
      "hash": "0x96de5e64065950922276051dd6673a9262bb59158081cba1f5e5ffc21bb0b034",
      "transactionType": "CALL",
      "contractName": null,
      "contractAddress": "0xd4aaa5610b0ee8e2e55b0ec851dd3a7c55b5ddd8",
      "function": "buyTokens(uint256)",
      "arguments": [
        "1028779"
      ],
      "transaction": {
        "from": "0xc06999313769622dad93d6d01642be9762e3b520",
        "to": "0xd4aaa5610b0ee8e2e55b0ec851dd3a7c55b5ddd8",
        "gas": "0x1edd6",
        "value": "0x0",
        "input": "0x3610724e00000000000000000000000000000000000000000000000000000000000fb2ab",
        "nonce": "0xb",
        "chainId": "0xaa37dc"
      },
      "additionalContracts": [],
      "isFixedGasLimit": false
    }
  ],
  "receipts": [
    {
      "status": "0x1",
      "cumulativeGasUsed": "0x516847",
      "logs": [
        {
          "address": "0x0ec98aa4218e9db07c8ff0d2ade4b8e8e6dd2e5f",
          "topics": [
            "0x8c5be1e5ebec7d5bd14f71427d1e84f3dd0314c0f7b2291e5b200ac8c7c3b925",
            "0x000000000000000000000000c06999313769622dad93d6d01642be9762e3b520",
            "0x000000000000000000000000d4aaa5610b0ee8e2e55b0ec851dd3a7c55b5ddd8"
          ],
          "data": "0x00000000000000000000000000000000000000000000000000000000000fb2ab",
          "blockHash": "0x73b2d2178d375d2584888602ca0e4bf7887eb384c10dde0829a82cfadc50050b",
          "blockNumber": "0x172ee07",
          "transactionHash": "0x087b6c15acd4b7ac3a3779d0ec3cc257fa0120ba190ff6c9d636aa65585b6901",
          "transactionIndex": "0x7",
          "logIndex": "0x0",
          "removed": false
        }
      ],
      "logsBloom": "0x00000000000000000000000001000000000000000000000000000000000000000100000000000000000000000000000000000000000000000000800010200000000000000000000000000000000000c80000000000000000000000000000000000000000000000000000100000000000000000000000000040000000000000000000000000000000000000000000000000000000000000000000000000000000020000000000000000000000000000000000000000000000000000000000000000000000000000000000000000000000000000000000000000000000000000000010000000000000000000000000000000000000000000000000000000000000",
      "type": "0x2",
      "transactionHash": "0x087b6c15acd4b7ac3a3779d0ec3cc257fa0120ba190ff6c9d636aa65585b6901",
      "transactionIndex": "0x7",
      "blockHash": "0x73b2d2178d375d2584888602ca0e4bf7887eb384c10dde0829a82cfadc50050b",
      "blockNumber": "0x172ee07",
      "gasUsed": "0xb4a3",
      "effectiveGasPrice": "0xf437e",
      "from": "0xc06999313769622dad93d6d01642be9762e3b520",
      "to": "0x0ec98aa4218e9db07c8ff0d2ade4b8e8e6dd2e5f",
      "contractAddress": null,
      "l1BaseFeeScalar": "0x1db0",
      "l1BlobBaseFee": "0x1c08712",
      "l1BlobBaseFeeScalar": "0xd2730",
      "l1Fee": "0x13e80c3a88",
      "l1GasPrice": "0x196a9afbf",
      "l1GasUsed": "0x640"
    },
    {
      "status": "0x1",
      "cumulativeGasUsed": "0x52b9f2",
      "logs": [
        {
          "address": "0x0ec98aa4218e9db07c8ff0d2ade4b8e8e6dd2e5f",
          "topics": [
            "0x8c5be1e5ebec7d5bd14f71427d1e84f3dd0314c0f7b2291e5b200ac8c7c3b925",
            "0x000000000000000000000000c06999313769622dad93d6d01642be9762e3b520",
            "0x000000000000000000000000d4aaa5610b0ee8e2e55b0ec851dd3a7c55b5ddd8"
          ],
          "data": "0x0000000000000000000000000000000000000000000000000000000000000000",
          "blockHash": "0x73b2d2178d375d2584888602ca0e4bf7887eb384c10dde0829a82cfadc50050b",
          "blockNumber": "0x172ee07",
          "transactionHash": "0x96de5e64065950922276051dd6673a9262bb59158081cba1f5e5ffc21bb0b034",
          "transactionIndex": "0x8",
          "logIndex": "0x1",
          "removed": false
        },
        {
          "address": "0x0ec98aa4218e9db07c8ff0d2ade4b8e8e6dd2e5f",
          "topics": [
            "0xddf252ad1be2c89b69c2b068fc378daa952ba7f163c4a11628f55a4df523b3ef",
            "0x000000000000000000000000c06999313769622dad93d6d01642be9762e3b520",
            "0x000000000000000000000000d4aaa5610b0ee8e2e55b0ec851dd3a7c55b5ddd8"
          ],
          "data": "0x00000000000000000000000000000000000000000000000000000000000fb2ab",
          "blockHash": "0x73b2d2178d375d2584888602ca0e4bf7887eb384c10dde0829a82cfadc50050b",
          "blockNumber": "0x172ee07",
          "transactionHash": "0x96de5e64065950922276051dd6673a9262bb59158081cba1f5e5ffc21bb0b034",
          "transactionIndex": "0x8",
          "logIndex": "0x2",
          "removed": false
        },
        {
          "address": "0xc939c1fb1cebc67a10463aa04cba9779c0499d5e",
          "topics": [
            "0xddf252ad1be2c89b69c2b068fc378daa952ba7f163c4a11628f55a4df523b3ef",
            "0x000000000000000000000000d4aaa5610b0ee8e2e55b0ec851dd3a7c55b5ddd8",
            "0x000000000000000000000000c06999313769622dad93d6d01642be9762e3b520"
          ],
          "data": "0x00000000000000000000000000000000000000000000000000000000000f41db",
          "blockHash": "0x73b2d2178d375d2584888602ca0e4bf7887eb384c10dde0829a82cfadc50050b",
          "blockNumber": "0x172ee07",
          "transactionHash": "0x96de5e64065950922276051dd6673a9262bb59158081cba1f5e5ffc21bb0b034",
          "transactionIndex": "0x8",
          "logIndex": "0x3",
          "removed": false
        },
        {
          "address": "0xd4aaa5610b0ee8e2e55b0ec851dd3a7c55b5ddd8",
          "topics": [
            "0x0d1a0d5e3d583a0e92588799dd06e50fd78c07daf05f0cc06d7b848b1ca445f1",
            "0x000000000000000000000000c06999313769622dad93d6d01642be9762e3b520"
          ],
          "data": "0x00000000000000000000000000000000000000000000000000000000000fb2ab00000000000000000000000000000000000000000000000000000000000f41db000000000000000000000000000000000000000000000000000000000000282f",
          "blockHash": "0x73b2d2178d375d2584888602ca0e4bf7887eb384c10dde0829a82cfadc50050b",
          "blockNumber": "0x172ee07",
          "transactionHash": "0x96de5e64065950922276051dd6673a9262bb59158081cba1f5e5ffc21bb0b034",
          "transactionIndex": "0x8",
          "logIndex": "0x4",
          "removed": false
        }
      ],
      "logsBloom": "0x02000000000000000000000001000000000000000000000000000000000000000100000000000000000000000000000000000000000000000000800010200000000000000000000000000008000000c80001000000000020000000000000000000000000000000000000100000000000000000000000000040000010000000000000000000000000000000000000010000000000000000000000000000000000020000000000000000000000000000000000000000000000000000000000004000000002000000000000000000000000000000800000000000000010000000000010000000000000000800000000000000000000000000000000000020000000",
      "type": "0x2",
      "transactionHash": "0x96de5e64065950922276051dd6673a9262bb59158081cba1f5e5ffc21bb0b034",
      "transactionIndex": "0x8",
      "blockHash": "0x73b2d2178d375d2584888602ca0e4bf7887eb384c10dde0829a82cfadc50050b",
      "blockNumber": "0x172ee07",
      "gasUsed": "0x151ab",
      "effectiveGasPrice": "0xf437e",
      "from": "0xc06999313769622dad93d6d01642be9762e3b520",
      "to": "0xd4aaa5610b0ee8e2e55b0ec851dd3a7c55b5ddd8",
      "contractAddress": null,
      "l1BaseFeeScalar": "0x1db0",
      "l1BlobBaseFee": "0x1c08712",
      "l1BlobBaseFeeScalar": "0xd2730",
      "l1Fee": "0x13e80c3a88",
      "l1GasPrice": "0x196a9afbf",
      "l1GasUsed": "0x640"
    }
  ],
  "libraries": [],
  "pending": [],
  "returns": {},
  "timestamp": 1740421051,
  "chain": 11155420,
  "commit": "1a215eb"
}